{
  "contractName": "Remplissage",
  "abi": [
    {
      "inputs": [],
      "stateMutability": "nonpayable",
      "type": "constructor"
    },
    {
      "inputs": [
        {
          "internalType": "uint256",
          "name": "",
          "type": "uint256"
        }
      ],
      "name": "ALLS",
      "outputs": [
        {
          "internalType": "string",
          "name": "",
          "type": "string"
        }
      ],
      "stateMutability": "view",
      "type": "function",
      "constant": true
    },
    {
      "inputs": [],
      "name": "nextID",
      "outputs": [
        {
          "internalType": "uint256",
          "name": "",
          "type": "uint256"
        }
      ],
      "stateMutability": "view",
      "type": "function",
      "constant": true
    },
    {
      "inputs": [
        {
          "internalType": "uint256",
          "name": "",
          "type": "uint256"
        }
      ],
      "name": "operations2",
      "outputs": [
        {
          "internalType": "uint256",
          "name": "idOperation",
          "type": "uint256"
        },
        {
          "internalType": "uint256",
          "name": "poidsLait",
          "type": "uint256"
        },
        {
          "internalType": "string",
          "name": "dateOperation",
          "type": "string"
        },
        {
          "internalType": "string",
          "name": "typeOp",
          "type": "string"
        },
        {
          "internalType": "uint256",
          "name": "code",
          "type": "uint256"
        },
        {
          "components": [
            {
              "internalType": "uint256",
              "name": "idCollecteur",
              "type": "uint256"
            },
            {
              "internalType": "string",
              "name": "nomCollecteur",
              "type": "string"
            },
            {
              "internalType": "string",
              "name": "adresse",
              "type": "string"
            },
            {
              "internalType": "uint256",
              "name": "tel",
              "type": "uint256"
            }
          ],
          "internalType": "struct Remplissage.Collecteur",
          "name": "collecteur",
          "type": "tuple"
        },
        {
          "components": [
            {
              "internalType": "uint256",
              "name": "idAgriculteur",
              "type": "uint256"
            },
            {
              "internalType": "string",
              "name": "nom",
              "type": "string"
            },
            {
              "internalType": "string",
              "name": "prenom",
              "type": "string"
            },
            {
              "internalType": "string",
              "name": "username",
              "type": "string"
            },
            {
              "internalType": "string",
              "name": "password",
              "type": "string"
            }
          ],
          "internalType": "struct Remplissage.Agriculteur",
          "name": "agriculteur",
          "type": "tuple"
        }
      ],
      "stateMutability": "view",
      "type": "function",
      "constant": true
    },
    {
      "inputs": [
        {
          "components": [
            {
              "internalType": "uint256",
              "name": "idOperation",
              "type": "uint256"
            },
            {
              "internalType": "uint256",
              "name": "poidsLait",
              "type": "uint256"
            },
            {
              "internalType": "string",
              "name": "dateOperation",
              "type": "string"
            },
            {
              "internalType": "string",
              "name": "typeOp",
              "type": "string"
            },
            {
              "internalType": "uint256",
              "name": "code",
              "type": "uint256"
            },
            {
              "components": [
                {
                  "internalType": "uint256",
                  "name": "idCollecteur",
                  "type": "uint256"
                },
                {
                  "internalType": "string",
                  "name": "nomCollecteur",
                  "type": "string"
                },
                {
                  "internalType": "string",
                  "name": "adresse",
                  "type": "string"
                },
                {
                  "internalType": "uint256",
                  "name": "tel",
                  "type": "uint256"
                }
              ],
              "internalType": "struct Remplissage.Collecteur",
              "name": "collecteur",
              "type": "tuple"
            },
            {
              "components": [
                {
                  "internalType": "uint256",
                  "name": "idAgriculteur",
                  "type": "uint256"
                },
                {
                  "internalType": "string",
                  "name": "nom",
                  "type": "string"
                },
                {
                  "internalType": "string",
                  "name": "prenom",
                  "type": "string"
                },
                {
                  "internalType": "string",
                  "name": "username",
                  "type": "string"
                },
                {
                  "internalType": "string",
                  "name": "password",
                  "type": "string"
                }
              ],
              "internalType": "struct Remplissage.Agriculteur",
              "name": "agriculteur",
              "type": "tuple"
            }
          ],
          "internalType": "struct Remplissage.Operation",
          "name": "op",
          "type": "tuple"
        }
      ],
      "name": "addOperation2",
      "outputs": [
        {
          "components": [
            {
              "internalType": "uint256",
              "name": "idOperation",
              "type": "uint256"
            },
            {
              "internalType": "uint256",
              "name": "poidsLait",
              "type": "uint256"
            },
            {
              "internalType": "string",
              "name": "dateOperation",
              "type": "string"
            },
            {
              "internalType": "string",
              "name": "typeOp",
              "type": "string"
            },
            {
              "internalType": "uint256",
              "name": "code",
              "type": "uint256"
            },
            {
              "components": [
                {
                  "internalType": "uint256",
                  "name": "idCollecteur",
                  "type": "uint256"
                },
                {
                  "internalType": "string",
                  "name": "nomCollecteur",
                  "type": "string"
                },
                {
                  "internalType": "string",
                  "name": "adresse",
                  "type": "string"
                },
                {
                  "internalType": "uint256",
                  "name": "tel",
                  "type": "uint256"
                }
              ],
              "internalType": "struct Remplissage.Collecteur",
              "name": "collecteur",
              "type": "tuple"
            },
            {
              "components": [
                {
                  "internalType": "uint256",
                  "name": "idAgriculteur",
                  "type": "uint256"
                },
                {
                  "internalType": "string",
                  "name": "nom",
                  "type": "string"
                },
                {
                  "internalType": "string",
                  "name": "prenom",
                  "type": "string"
                },
                {
                  "internalType": "string",
                  "name": "username",
                  "type": "string"
                },
                {
                  "internalType": "string",
                  "name": "password",
                  "type": "string"
                }
              ],
              "internalType": "struct Remplissage.Agriculteur",
              "name": "agriculteur",
              "type": "tuple"
            }
          ],
          "internalType": "struct Remplissage.Operation",
          "name": "op0",
          "type": "tuple"
        }
      ],
      "stateMutability": "nonpayable",
      "type": "function"
    },
    {
      "inputs": [],
      "name": "getOperations",
      "outputs": [
        {
          "components": [
            {
              "internalType": "uint256",
              "name": "idOperation",
              "type": "uint256"
            },
            {
              "internalType": "uint256",
              "name": "poidsLait",
              "type": "uint256"
            },
            {
              "internalType": "string",
              "name": "dateOperation",
              "type": "string"
            },
            {
              "internalType": "string",
              "name": "typeOp",
              "type": "string"
            },
            {
              "internalType": "uint256",
              "name": "code",
              "type": "uint256"
            },
            {
              "components": [
                {
                  "internalType": "uint256",
                  "name": "idCollecteur",
                  "type": "uint256"
                },
                {
                  "internalType": "string",
                  "name": "nomCollecteur",
                  "type": "string"
                },
                {
                  "internalType": "string",
                  "name": "adresse",
                  "type": "string"
                },
                {
                  "internalType": "uint256",
                  "name": "tel",
                  "type": "uint256"
                }
              ],
              "internalType": "struct Remplissage.Collecteur",
              "name": "collecteur",
              "type": "tuple"
            },
            {
              "components": [
                {
                  "internalType": "uint256",
                  "name": "idAgriculteur",
                  "type": "uint256"
                },
                {
                  "internalType": "string",
                  "name": "nom",
                  "type": "string"
                },
                {
                  "internalType": "string",
                  "name": "prenom",
                  "type": "string"
                },
                {
                  "internalType": "string",
                  "name": "username",
                  "type": "string"
                },
                {
                  "internalType": "string",
                  "name": "password",
                  "type": "string"
                }
              ],
              "internalType": "struct Remplissage.Agriculteur",
              "name": "agriculteur",
              "type": "tuple"
            }
          ],
          "internalType": "struct Remplissage.Operation[]",
          "name": "result",
          "type": "tuple[]"
        }
      ],
      "stateMutability": "view",
      "type": "function",
      "constant": true
    },
    {
      "inputs": [
        {
          "internalType": "uint256",
          "name": "id",
          "type": "uint256"
        }
      ],
      "name": "getOperation",
      "outputs": [
        {
          "components": [
            {
              "internalType": "uint256",
              "name": "idOperation",
              "type": "uint256"
            },
            {
              "internalType": "uint256",
              "name": "poidsLait",
              "type": "uint256"
            },
            {
              "internalType": "string",
              "name": "dateOperation",
              "type": "string"
            },
            {
              "internalType": "string",
              "name": "typeOp",
              "type": "string"
            },
            {
              "internalType": "uint256",
              "name": "code",
              "type": "uint256"
            },
            {
              "components": [
                {
                  "internalType": "uint256",
                  "name": "idCollecteur",
                  "type": "uint256"
                },
                {
                  "internalType": "string",
                  "name": "nomCollecteur",
                  "type": "string"
                },
                {
                  "internalType": "string",
                  "name": "adresse",
                  "type": "string"
                },
                {
                  "internalType": "uint256",
                  "name": "tel",
                  "type": "uint256"
                }
              ],
              "internalType": "struct Remplissage.Collecteur",
              "name": "collecteur",
              "type": "tuple"
            },
            {
              "components": [
                {
                  "internalType": "uint256",
                  "name": "idAgriculteur",
                  "type": "uint256"
                },
                {
                  "internalType": "string",
                  "name": "nom",
                  "type": "string"
                },
                {
                  "internalType": "string",
                  "name": "prenom",
                  "type": "string"
                },
                {
                  "internalType": "string",
                  "name": "username",
                  "type": "string"
                },
                {
                  "internalType": "string",
                  "name": "password",
                  "type": "string"
                }
              ],
              "internalType": "struct Remplissage.Agriculteur",
              "name": "agriculteur",
              "type": "tuple"
            }
          ],
          "internalType": "struct Remplissage.Operation",
          "name": "operation",
          "type": "tuple"
        }
      ],
      "stateMutability": "view",
      "type": "function",
      "constant": true
    }
  ],
  "bytecode": "0x6080604052600160025534801561001557600080fd5b506121bc806100256000396000f3fe608060405234801561001057600080fd5b50600436106100625760003560e01c80631e96917d14610067578063202e3924146100855780635383bbfd146100b5578063627d612e146100e5578063996ba7bb14610115578063f948e50a1461014b575b600080fd5b61006f610169565b60405161007c91906115ad565b60405180910390f35b61009f600480360381019061009a9190611608565b61016f565b6040516100ac9190611883565b60405180910390f35b6100cf60048036038101906100ca9190611608565b6106f4565b6040516100dc91906118ef565b60405180910390f35b6100ff60048036038101906100fa9190611d20565b6107a0565b60405161010c9190611883565b60405180910390f35b61012f600480360381019061012a9190611608565b6109fe565b6040516101429796959493929190611e5e565b60405180910390f35b610153610efe565b604051610160919061205c565b60405180910390f35b60025481565b610177611451565b60005b6002548110156106ed5782600082815481106101995761019861207e565b5b90600052602060002090600e02016000015414156106da57600081815481106101c5576101c461207e565b5b90600052602060002090600e02016040518060e00160405290816000820154815260200160018201548152602001600282018054610202906120dc565b80601f016020809104026020016040519081016040528092919081815260200182805461022e906120dc565b801561027b5780601f106102505761010080835404028352916020019161027b565b820191906000526020600020905b81548152906001019060200180831161025e57829003601f168201915b50505050508152602001600382018054610294906120dc565b80601f01602080910402602001604051908101604052809291908181526020018280546102c0906120dc565b801561030d5780601f106102e25761010080835404028352916020019161030d565b820191906000526020600020905b8154815290600101906020018083116102f057829003601f168201915b5050505050815260200160048201548152602001600582016040518060800160405290816000820154815260200160018201805461034a906120dc565b80601f0160208091040260200160405190810160405280929190818152602001828054610376906120dc565b80156103c35780601f10610398576101008083540402835291602001916103c3565b820191906000526020600020905b8154815290600101906020018083116103a657829003601f168201915b505050505081526020016002820180546103dc906120dc565b80601f0160208091040260200160405190810160405280929190818152602001828054610408906120dc565b80156104555780601f1061042a57610100808354040283529160200191610455565b820191906000526020600020905b81548152906001019060200180831161043857829003601f168201915b505050505081526020016003820154815250508152602001600982016040518060a001604052908160008201548152602001600182018054610496906120dc565b80601f01602080910402602001604051908101604052809291908181526020018280546104c2906120dc565b801561050f5780601f106104e45761010080835404028352916020019161050f565b820191906000526020600020905b8154815290600101906020018083116104f257829003601f168201915b50505050508152602001600282018054610528906120dc565b80601f0160208091040260200160405190810160405280929190818152602001828054610554906120dc565b80156105a15780601f10610576576101008083540402835291602001916105a1565b820191906000526020600020905b81548152906001019060200180831161058457829003601f168201915b505050505081526020016003820180546105ba906120dc565b80601f01602080910402602001604051908101604052809291908181526020018280546105e6906120dc565b80156106335780601f1061060857610100808354040283529160200191610633565b820191906000526020600020905b81548152906001019060200180831161061657829003601f168201915b5050505050815260200160048201805461064c906120dc565b80601f0160208091040260200160405190810160405280929190818152602001828054610678906120dc565b80156106c55780601f1061069a576101008083540402835291602001916106c5565b820191906000526020600020905b8154815290600101906020018083116106a857829003601f168201915b505050505081525050815250509150506106ef565b80806106e59061213d565b91505061017a565b505b919050565b6001818154811061070457600080fd5b90600052602060002001600091509050805461071f906120dc565b80601f016020809104026020016040519081016040528092919081815260200182805461074b906120dc565b80156107985780601f1061076d57610100808354040283529160200191610798565b820191906000526020600020905b81548152906001019060200180831161077b57829003601f168201915b505050505081565b6107a8611451565b60006040518060a001604052808460c001516000015181526020018460c001516020015181526020018460c001516040015181526020018460c001516060015181526020018460c00151608001518152509050600060405180608001604052808560a001516000015181526020018560a001516020015181526020018560a001516040015181526020018560a0015160600151815250905060006040518060e00160405280866000015181526020018660200151815260200186604001518152602001866060015181526020018660800151815260200183815260200184815250905060008190806001815401808255809150506001900390600052602060002090600e0201600090919091909150600082015181600001556020820151816001015560408201518160020190805190602001906108e792919061149a565b50606082015181600301908051906020019061090492919061149a565b506080820151816004015560a08201518160050160008201518160000155602082015181600101908051906020019061093e92919061149a565b50604082015181600201908051906020019061095b92919061149a565b5060608201518160030155505060c08201518160090160008201518160000155602082015181600101908051906020019061099792919061149a565b5060408201518160020190805190602001906109b492919061149a565b5060608201518160030190805190602001906109d192919061149a565b5060808201518160040190805190602001906109ee92919061149a565b5050505050809350505050919050565b60008181548110610a0e57600080fd5b90600052602060002090600e0201600091509050806000015490806001015490806002018054610a3d906120dc565b80601f0160208091040260200160405190810160405280929190818152602001828054610a69906120dc565b8015610ab65780601f10610a8b57610100808354040283529160200191610ab6565b820191906000526020600020905b815481529060010190602001808311610a9957829003601f168201915b505050505090806003018054610acb906120dc565b80601f0160208091040260200160405190810160405280929190818152602001828054610af7906120dc565b8015610b445780601f10610b1957610100808354040283529160200191610b44565b820191906000526020600020905b815481529060010190602001808311610b2757829003601f168201915b5050505050908060040154908060050160405180608001604052908160008201548152602001600182018054610b79906120dc565b80601f0160208091040260200160405190810160405280929190818152602001828054610ba5906120dc565b8015610bf25780601f10610bc757610100808354040283529160200191610bf2565b820191906000526020600020905b815481529060010190602001808311610bd557829003601f168201915b50505050508152602001600282018054610c0b906120dc565b80601f0160208091040260200160405190810160405280929190818152602001828054610c37906120dc565b8015610c845780601f10610c5957610100808354040283529160200191610c84565b820191906000526020600020905b815481529060010190602001808311610c6757829003601f168201915b5050505050815260200160038201548152505090806009016040518060a001604052908160008201548152602001600182018054610cc1906120dc565b80601f0160208091040260200160405190810160405280929190818152602001828054610ced906120dc565b8015610d3a5780601f10610d0f57610100808354040283529160200191610d3a565b820191906000526020600020905b815481529060010190602001808311610d1d57829003601f168201915b50505050508152602001600282018054610d53906120dc565b80601f0160208091040260200160405190810160405280929190818152602001828054610d7f906120dc565b8015610dcc5780601f10610da157610100808354040283529160200191610dcc565b820191906000526020600020905b815481529060010190602001808311610daf57829003601f168201915b50505050508152602001600382018054610de5906120dc565b80601f0160208091040260200160405190810160405280929190818152602001828054610e11906120dc565b8015610e5e5780601f10610e3357610100808354040283529160200191610e5e565b820191906000526020600020905b815481529060010190602001808311610e4157829003601f168201915b50505050508152602001600482018054610e77906120dc565b80601f0160208091040260200160405190810160405280929190818152602001828054610ea3906120dc565b8015610ef05780601f10610ec557610100808354040283529160200191610ef0565b820191906000526020600020905b815481529060010190602001808311610ed357829003601f168201915b505050505081525050905087565b60606000805480602002602001604051908101604052809291908181526020016000905b8282101561144857838290600052602060002090600e02016040518060e00160405290816000820154815260200160018201548152602001600282018054610f69906120dc565b80601f0160208091040260200160405190810160405280929190818152602001828054610f95906120dc565b8015610fe25780601f10610fb757610100808354040283529160200191610fe2565b820191906000526020600020905b815481529060010190602001808311610fc557829003601f168201915b50505050508152602001600382018054610ffb906120dc565b80601f0160208091040260200160405190810160405280929190818152602001828054611027906120dc565b80156110745780601f1061104957610100808354040283529160200191611074565b820191906000526020600020905b81548152906001019060200180831161105757829003601f168201915b505050505081526020016004820154815260200160058201604051806080016040529081600082015481526020016001820180546110b1906120dc565b80601f01602080910402602001604051908101604052809291908181526020018280546110dd906120dc565b801561112a5780601f106110ff5761010080835404028352916020019161112a565b820191906000526020600020905b81548152906001019060200180831161110d57829003601f168201915b50505050508152602001600282018054611143906120dc565b80601f016020809104026020016040519081016040528092919081815260200182805461116f906120dc565b80156111bc5780601f10611191576101008083540402835291602001916111bc565b820191906000526020600020905b81548152906001019060200180831161119f57829003601f168201915b505050505081526020016003820154815250508152602001600982016040518060a0016040529081600082015481526020016001820180546111fd906120dc565b80601f0160208091040260200160405190810160405280929190818152602001828054611229906120dc565b80156112765780601f1061124b57610100808354040283529160200191611276565b820191906000526020600020905b81548152906001019060200180831161125957829003601f168201915b5050505050815260200160028201805461128f906120dc565b80601f01602080910402602001604051908101604052809291908181526020018280546112bb906120dc565b80156113085780601f106112dd57610100808354040283529160200191611308565b820191906000526020600020905b8154815290600101906020018083116112eb57829003601f168201915b50505050508152602001600382018054611321906120dc565b80601f016020809104026020016040519081016040528092919081815260200182805461134d906120dc565b801561139a5780601f1061136f5761010080835404028352916020019161139a565b820191906000526020600020905b81548152906001019060200180831161137d57829003601f168201915b505050505081526020016004820180546113b3906120dc565b80601f01602080910402602001604051908101604052809291908181526020018280546113df906120dc565b801561142c5780601f106114015761010080835404028352916020019161142c565b820191906000526020600020905b81548152906001019060200180831161140f57829003601f168201915b5050505050815250508152505081526020019060010190610f22565b50505050905090565b6040518060e001604052806000815260200160008152602001606081526020016060815260200160008152602001611487611520565b8152602001611494611548565b81525090565b8280546114a6906120dc565b90600052602060002090601f0160209004810192826114c8576000855561150f565b82601f106114e157805160ff191683800117855561150f565b8280016001018555821561150f579182015b8281111561150e5782518255916020019190600101906114f3565b5b50905061151c9190611577565b5090565b6040518060800160405280600081526020016060815260200160608152602001600081525090565b6040518060a0016040528060008152602001606081526020016060815260200160608152602001606081525090565b5b80821115611590576000816000905550600101611578565b5090565b6000819050919050565b6115a781611594565b82525050565b60006020820190506115c2600083018461159e565b92915050565b6000604051905090565b600080fd5b600080fd5b6115e581611594565b81146115f057600080fd5b50565b600081359050611602816115dc565b92915050565b60006020828403121561161e5761161d6115d2565b5b600061162c848285016115f3565b91505092915050565b61163e81611594565b82525050565b600081519050919050565b600082825260208201905092915050565b60005b8381101561167e578082015181840152602081019050611663565b8381111561168d576000848401525b50505050565b6000601f19601f8301169050919050565b60006116af82611644565b6116b9818561164f565b93506116c9818560208601611660565b6116d281611693565b840191505092915050565b60006080830160008301516116f56000860182611635565b506020830151848203602086015261170d82826116a4565b9150506040830151848203604086015261172782826116a4565b915050606083015161173c6060860182611635565b508091505092915050565b600060a08301600083015161175f6000860182611635565b506020830151848203602086015261177782826116a4565b9150506040830151848203604086015261179182826116a4565b915050606083015184820360608601526117ab82826116a4565b915050608083015184820360808601526117c582826116a4565b9150508091505092915050565b600060e0830160008301516117ea6000860182611635565b5060208301516117fd6020860182611635565b506040830151848203604086015261181582826116a4565b9150506060830151848203606086015261182f82826116a4565b91505060808301516118446080860182611635565b5060a083015184820360a086015261185c82826116dd565b91505060c083015184820360c08601526118768282611747565b9150508091505092915050565b6000602082019050818103600083015261189d81846117d2565b905092915050565b600082825260208201905092915050565b60006118c182611644565b6118cb81856118a5565b93506118db818560208601611660565b6118e481611693565b840191505092915050565b6000602082019050818103600083015261190981846118b6565b905092915050565b600080fd5b7f4e487b7100000000000000000000000000000000000000000000000000000000600052604160045260246000fd5b61194e82611693565b810181811067ffffffffffffffff8211171561196d5761196c611916565b5b80604052505050565b60006119806115c8565b905061198c8282611945565b919050565b600080fd5b600080fd5b600080fd5b600067ffffffffffffffff8211156119bb576119ba611916565b5b6119c482611693565b9050602081019050919050565b82818337600083830152505050565b60006119f36119ee846119a0565b611976565b905082815260208101848484011115611a0f57611a0e61199b565b5b611a1a8482856119d1565b509392505050565b600082601f830112611a3757611a36611996565b5b8135611a478482602086016119e0565b91505092915050565b600060808284031215611a6657611a65611911565b5b611a706080611976565b90506000611a80848285016115f3565b600083015250602082013567ffffffffffffffff811115611aa457611aa3611991565b5b611ab084828501611a22565b602083015250604082013567ffffffffffffffff811115611ad457611ad3611991565b5b611ae084828501611a22565b6040830152506060611af4848285016115f3565b60608301525092915050565b600060a08284031215611b1657611b15611911565b5b611b2060a0611976565b90506000611b30848285016115f3565b600083015250602082013567ffffffffffffffff811115611b5457611b53611991565b5b611b6084828501611a22565b602083015250604082013567ffffffffffffffff811115611b8457611b83611991565b5b611b9084828501611a22565b604083015250606082013567ffffffffffffffff811115611bb457611bb3611991565b5b611bc084828501611a22565b606083015250608082013567ffffffffffffffff811115611be457611be3611991565b5b611bf084828501611a22565b60808301525092915050565b600060e08284031215611c1257611c11611911565b5b611c1c60e0611976565b90506000611c2c848285016115f3565b6000830152506020611c40848285016115f3565b602083015250604082013567ffffffffffffffff811115611c6457611c63611991565b5b611c7084828501611a22565b604083015250606082013567ffffffffffffffff811115611c9457611c93611991565b5b611ca084828501611a22565b6060830152506080611cb4848285016115f3565b60808301525060a082013567ffffffffffffffff811115611cd857611cd7611991565b5b611ce484828501611a50565b60a08301525060c082013567ffffffffffffffff811115611d0857611d07611991565b5b611d1484828501611b00565b60c08301525092915050565b600060208284031215611d3657611d356115d2565b5b600082013567ffffffffffffffff811115611d5457611d536115d7565b5b611d6084828501611bfc565b91505092915050565b6000608083016000830151611d816000860182611635565b5060208301518482036020860152611d9982826116a4565b91505060408301518482036040860152611db382826116a4565b9150506060830151611dc86060860182611635565b508091505092915050565b600060a083016000830151611deb6000860182611635565b5060208301518482036020860152611e0382826116a4565b91505060408301518482036040860152611e1d82826116a4565b91505060608301518482036060860152611e3782826116a4565b91505060808301518482036080860152611e5182826116a4565b9150508091505092915050565b600060e082019050611e73600083018a61159e565b611e80602083018961159e565b8181036040830152611e9281886118b6565b90508181036060830152611ea681876118b6565b9050611eb5608083018661159e565b81810360a0830152611ec78185611d69565b905081810360c0830152611edb8184611dd3565b905098975050505050505050565b600081519050919050565b600082825260208201905092915050565b6000819050602082019050919050565b600060e083016000830151611f2d6000860182611635565b506020830151611f406020860182611635565b5060408301518482036040860152611f5882826116a4565b91505060608301518482036060860152611f7282826116a4565b9150506080830151611f876080860182611635565b5060a083015184820360a0860152611f9f82826116dd565b91505060c083015184820360c0860152611fb98282611747565b9150508091505092915050565b6000611fd28383611f15565b905092915050565b6000602082019050919050565b6000611ff282611ee9565b611ffc8185611ef4565b93508360208202850161200e85611f05565b8060005b8581101561204a578484038952815161202b8582611fc6565b945061203683611fda565b925060208a01995050600181019050612012565b50829750879550505050505092915050565b600060208201905081810360008301526120768184611fe7565b905092915050565b7f4e487b7100000000000000000000000000000000000000000000000000000000600052603260045260246000fd5b7f4e487b7100000000000000000000000000000000000000000000000000000000600052602260045260246000fd5b600060028204905060018216806120f457607f821691505b60208210811415612108576121076120ad565b5b50919050565b7f4e487b7100000000000000000000000000000000000000000000000000000000600052601160045260246000fd5b600061214882611594565b91507fffffffffffffffffffffffffffffffffffffffffffffffffffffffffffffffff82141561217b5761217a61210e565b5b60018201905091905056fea26469706673582212206a1fb62122fa275d979f5d6db24297fb9a75cebd4a9829c939580232b8b89f7264736f6c634300080b0033",
  "immutableReferences": {},
  "source": "// SPDX-License-Identifier: MIT\r\npragma solidity >=0.4.22 <0.9.0;\r\ncontract Remplissage{\r\n struct Usine{\r\n   uint idUsine;\r\n    string nomUsine;\r\n   string adresse;  \r\n   }\r\n   struct Operation0{\r\n  uint idOperation;\r\n  uint  poidsLait;\r\n  string  dateOperation ;\r\n  string typeOp ;\r\n  uint  code;\r\n  //string sender;\r\n // uint tank ;\r\n  Agriculteur0 agriculteur;\r\n  Chef chef;\r\n//Usine usine;\r\n//Tank tank ;\r\n   }\r\n  struct Agriculteur0{\r\n  uint idAgriculteur;\r\n  string nom;\r\n  string prenom;\r\n  string email;\r\n  string adress;  \r\n  uint tel;  \r\n   }\r\n  struct Chef{\r\n  uint idChef;\r\n  string nom;\r\n  string prenom;\r\n  string email;\r\n  string adress;  \r\n  uint tel;  \r\n  uint cin; \r\n // uint tank ;\r\n   string username;\r\n  string password; \r\n   }\r\n      struct OperationTank{\r\n  uint idOpTank;\r\n  uint qteInsereTank;  \r\n   string date;\r\n  Operation0 operation;\r\n  Tank tank ;\r\n   }\r\n      struct OperationTank0{\r\n  uint idOpTank;\r\n  uint qteInsereTank;  \r\n   string date;\r\n  Operation01 operation;\r\n  Tank tank ;\r\n   }\r\nstruct Operation01{\r\n  uint idOperation;\r\n  uint  poidsLait;\r\n  string  dateOperation ;\r\n  string typeOp ;\r\n  uint  code;\r\n  //string sender;\r\n // uint tank ;\r\n // Agriculteur0 agriculteur;\r\n  Chef chef;\r\nUsine usine;\r\n//Tank tank ;\r\n   }\r\n struct Tank{\r\n  uint idTank;\r\n  string matricule;\r\n  uint poidVide;\r\n  uint poidActuel;\r\n  string etat ;\r\n   }\r\n  struct Agriculteur{\r\n  uint idAgriculteur;\r\n  string nom;\r\n  string prenom;\r\n  string username;\r\n  string password; \r\n   }\r\nstruct Operation{\r\n  uint idOperation;\r\n  uint  poidsLait;\r\n  string  dateOperation ;\r\n  string typeOp ;\r\n  uint  code;\r\n  //string sender;\r\n // uint tank ;\r\n  Collecteur collecteur; \r\n  Agriculteur agriculteur;\r\n \r\n   }\r\nstruct Collecteur{\r\n  uint idCollecteur;\r\n  string  nomCollecteur ;\r\n  string adresse ;\r\n  uint  tel;\r\n   }\r\n   constructor() {\r\n  }\r\nOperation[] public operations2;\r\n\r\nstring[] public ALLS;\r\nuint256 public nextID = 1;\r\n//create 2\r\n  function addOperation2(Operation memory op)\r\n   public returns (Operation memory op0) {\r\n\r\n    Agriculteur memory newAgriculteur = Agriculteur(op.agriculteur.idAgriculteur\r\n     ,op.agriculteur.nom,op.agriculteur.prenom\r\n     ,op.agriculteur.username,op.agriculteur.password);\r\n\r\n\r\n     Collecteur memory newCollecteur = Collecteur(op.collecteur.idCollecteur, \r\n     op.collecteur.nomCollecteur\r\n     ,op.collecteur.adresse,op.collecteur.tel);\r\n\r\n    Operation memory newOperation = Operation(op.idOperation,op.poidsLait, \r\n    op.dateOperation,op.typeOp,op.code,newCollecteur,newAgriculteur);\r\n    operations2.push(newOperation);\r\n    return (newOperation);\r\n  }\r\n  //get all operations \r\n  \r\n  function getOperations() public view returns (Operation[] memory result ) {\r\n    return operations2;\r\n  }\r\n\r\n//get one operation\r\n\r\n function getOperation(uint id) public view returns(Operation memory operation) {\r\n    for(uint i = 0; i<nextID;i++) {\r\n      if(operations2[i].idOperation==id) {\r\n        return operations2[i];\r\n      }\r\n    }\r\n  } \r\n\r\n}\r\n",
  "sourcePath": "C:\\Users\\ASUS\\Desktop\\pfe\\PFE_Project2022-Collecteur-\\PFE-FrontEnd\\contracts\\Remplissage.sol",
  "compiler": {
    "name": "solc",
    "version": "0.8.11+commit.d7f03943.Emscripten.clang"
  },
  "schemaVersion": "3.4.5",
  "updatedAt": "2022-04-21T02:16:38.248Z",
  "networkType": "ethereum",
  "devdoc": {
    "kind": "dev",
    "methods": {},
    "version": 1
  },
  "userdoc": {
    "kind": "user",
    "methods": {},
    "version": 1
  }
}