{
  "contractName": "RemplissageCol",
  "abi": [
    {
      "inputs": [
        {
          "internalType": "uint256",
          "name": "",
          "type": "uint256"
        }
      ],
      "name": "ALLS",
      "outputs": [
        {
          "internalType": "string",
          "name": "",
          "type": "string"
        }
      ],
      "stateMutability": "view",
      "type": "function",
      "constant": true
    },
    {
      "inputs": [
        {
          "components": [
            {
              "internalType": "uint256",
              "name": "idOperation",
              "type": "uint256"
            },
            {
              "internalType": "uint256",
              "name": "poidsLait",
              "type": "uint256"
            },
            {
              "internalType": "string",
              "name": "dateOperation",
              "type": "string"
            },
            {
              "internalType": "string",
              "name": "typeOp",
              "type": "string"
            },
            {
              "internalType": "uint256",
              "name": "code",
              "type": "uint256"
            },
            {
              "components": [
                {
                  "internalType": "uint256",
                  "name": "idCollecteur",
                  "type": "uint256"
                },
                {
                  "internalType": "string",
                  "name": "nomCollecteur",
                  "type": "string"
                },
                {
                  "internalType": "string",
                  "name": "adresse",
                  "type": "string"
                },
                {
                  "internalType": "uint256",
                  "name": "tel",
                  "type": "uint256"
                }
              ],
              "internalType": "struct Remplissage.Collecteur",
              "name": "collecteur",
              "type": "tuple"
            },
            {
              "components": [
                {
                  "internalType": "uint256",
                  "name": "idAgriculteur",
                  "type": "uint256"
                },
                {
                  "internalType": "string",
                  "name": "nom",
                  "type": "string"
                },
                {
                  "internalType": "string",
                  "name": "prenom",
                  "type": "string"
                },
                {
                  "internalType": "string",
                  "name": "username",
                  "type": "string"
                },
                {
                  "internalType": "string",
                  "name": "password",
                  "type": "string"
                }
              ],
              "internalType": "struct Remplissage.Agriculteur",
              "name": "agriculteur",
              "type": "tuple"
            }
          ],
          "internalType": "struct Remplissage.Operation",
          "name": "op",
          "type": "tuple"
        }
      ],
      "name": "addOperation2",
      "outputs": [
        {
          "components": [
            {
              "internalType": "uint256",
              "name": "idOperation",
              "type": "uint256"
            },
            {
              "internalType": "uint256",
              "name": "poidsLait",
              "type": "uint256"
            },
            {
              "internalType": "string",
              "name": "dateOperation",
              "type": "string"
            },
            {
              "internalType": "string",
              "name": "typeOp",
              "type": "string"
            },
            {
              "internalType": "uint256",
              "name": "code",
              "type": "uint256"
            },
            {
              "components": [
                {
                  "internalType": "uint256",
                  "name": "idCollecteur",
                  "type": "uint256"
                },
                {
                  "internalType": "string",
                  "name": "nomCollecteur",
                  "type": "string"
                },
                {
                  "internalType": "string",
                  "name": "adresse",
                  "type": "string"
                },
                {
                  "internalType": "uint256",
                  "name": "tel",
                  "type": "uint256"
                }
              ],
              "internalType": "struct Remplissage.Collecteur",
              "name": "collecteur",
              "type": "tuple"
            },
            {
              "components": [
                {
                  "internalType": "uint256",
                  "name": "idAgriculteur",
                  "type": "uint256"
                },
                {
                  "internalType": "string",
                  "name": "nom",
                  "type": "string"
                },
                {
                  "internalType": "string",
                  "name": "prenom",
                  "type": "string"
                },
                {
                  "internalType": "string",
                  "name": "username",
                  "type": "string"
                },
                {
                  "internalType": "string",
                  "name": "password",
                  "type": "string"
                }
              ],
              "internalType": "struct Remplissage.Agriculteur",
              "name": "agriculteur",
              "type": "tuple"
            }
          ],
          "internalType": "struct Remplissage.Operation",
          "name": "op0",
          "type": "tuple"
        }
      ],
      "stateMutability": "nonpayable",
      "type": "function"
    },
    {
      "inputs": [
        {
          "internalType": "uint256",
          "name": "id",
          "type": "uint256"
        }
      ],
      "name": "getOperation",
      "outputs": [
        {
          "components": [
            {
              "internalType": "uint256",
              "name": "idOperation",
              "type": "uint256"
            },
            {
              "internalType": "uint256",
              "name": "poidsLait",
              "type": "uint256"
            },
            {
              "internalType": "string",
              "name": "dateOperation",
              "type": "string"
            },
            {
              "internalType": "string",
              "name": "typeOp",
              "type": "string"
            },
            {
              "internalType": "uint256",
              "name": "code",
              "type": "uint256"
            },
            {
              "components": [
                {
                  "internalType": "uint256",
                  "name": "idCollecteur",
                  "type": "uint256"
                },
                {
                  "internalType": "string",
                  "name": "nomCollecteur",
                  "type": "string"
                },
                {
                  "internalType": "string",
                  "name": "adresse",
                  "type": "string"
                },
                {
                  "internalType": "uint256",
                  "name": "tel",
                  "type": "uint256"
                }
              ],
              "internalType": "struct Remplissage.Collecteur",
              "name": "collecteur",
              "type": "tuple"
            },
            {
              "components": [
                {
                  "internalType": "uint256",
                  "name": "idAgriculteur",
                  "type": "uint256"
                },
                {
                  "internalType": "string",
                  "name": "nom",
                  "type": "string"
                },
                {
                  "internalType": "string",
                  "name": "prenom",
                  "type": "string"
                },
                {
                  "internalType": "string",
                  "name": "username",
                  "type": "string"
                },
                {
                  "internalType": "string",
                  "name": "password",
                  "type": "string"
                }
              ],
              "internalType": "struct Remplissage.Agriculteur",
              "name": "agriculteur",
              "type": "tuple"
            }
          ],
          "internalType": "struct Remplissage.Operation",
          "name": "operation",
          "type": "tuple"
        }
      ],
      "stateMutability": "view",
      "type": "function",
      "constant": true
    },
    {
      "inputs": [],
      "name": "getOperations",
      "outputs": [
        {
          "components": [
            {
              "internalType": "uint256",
              "name": "idOperation",
              "type": "uint256"
            },
            {
              "internalType": "uint256",
              "name": "poidsLait",
              "type": "uint256"
            },
            {
              "internalType": "string",
              "name": "dateOperation",
              "type": "string"
            },
            {
              "internalType": "string",
              "name": "typeOp",
              "type": "string"
            },
            {
              "internalType": "uint256",
              "name": "code",
              "type": "uint256"
            },
            {
              "components": [
                {
                  "internalType": "uint256",
                  "name": "idCollecteur",
                  "type": "uint256"
                },
                {
                  "internalType": "string",
                  "name": "nomCollecteur",
                  "type": "string"
                },
                {
                  "internalType": "string",
                  "name": "adresse",
                  "type": "string"
                },
                {
                  "internalType": "uint256",
                  "name": "tel",
                  "type": "uint256"
                }
              ],
              "internalType": "struct Remplissage.Collecteur",
              "name": "collecteur",
              "type": "tuple"
            },
            {
              "components": [
                {
                  "internalType": "uint256",
                  "name": "idAgriculteur",
                  "type": "uint256"
                },
                {
                  "internalType": "string",
                  "name": "nom",
                  "type": "string"
                },
                {
                  "internalType": "string",
                  "name": "prenom",
                  "type": "string"
                },
                {
                  "internalType": "string",
                  "name": "username",
                  "type": "string"
                },
                {
                  "internalType": "string",
                  "name": "password",
                  "type": "string"
                }
              ],
              "internalType": "struct Remplissage.Agriculteur",
              "name": "agriculteur",
              "type": "tuple"
            }
          ],
          "internalType": "struct Remplissage.Operation[]",
          "name": "result",
          "type": "tuple[]"
        }
      ],
      "stateMutability": "view",
      "type": "function",
      "constant": true
    },
    {
      "inputs": [],
      "name": "nextID",
      "outputs": [
        {
          "internalType": "uint256",
          "name": "",
          "type": "uint256"
        }
      ],
      "stateMutability": "view",
      "type": "function",
      "constant": true
    },
    {
      "inputs": [
        {
          "internalType": "uint256",
          "name": "",
          "type": "uint256"
        }
      ],
      "name": "operationTank2",
      "outputs": [
        {
          "internalType": "uint256",
          "name": "idOpTank",
          "type": "uint256"
        },
        {
          "internalType": "uint256",
          "name": "qteInsereTank",
          "type": "uint256"
        },
        {
          "internalType": "string",
          "name": "date",
          "type": "string"
        },
        {
          "components": [
            {
              "internalType": "uint256",
              "name": "idOperation",
              "type": "uint256"
            },
            {
              "internalType": "uint256",
              "name": "poidsLait",
              "type": "uint256"
            },
            {
              "internalType": "string",
              "name": "dateOperation",
              "type": "string"
            },
            {
              "internalType": "string",
              "name": "typeOp",
              "type": "string"
            },
            {
              "internalType": "uint256",
              "name": "code",
              "type": "uint256"
            },
            {
              "components": [
                {
                  "internalType": "uint256",
                  "name": "idAgriculteur",
                  "type": "uint256"
                },
                {
                  "internalType": "string",
                  "name": "nom",
                  "type": "string"
                },
                {
                  "internalType": "string",
                  "name": "prenom",
                  "type": "string"
                },
                {
                  "internalType": "string",
                  "name": "email",
                  "type": "string"
                },
                {
                  "internalType": "string",
                  "name": "adress",
                  "type": "string"
                },
                {
                  "internalType": "uint256",
                  "name": "tel",
                  "type": "uint256"
                }
              ],
              "internalType": "struct Remplissage.Agriculteur0",
              "name": "agriculteur",
              "type": "tuple"
            },
            {
              "components": [
                {
                  "internalType": "uint256",
                  "name": "idChef",
                  "type": "uint256"
                },
                {
                  "internalType": "string",
                  "name": "nom",
                  "type": "string"
                },
                {
                  "internalType": "string",
                  "name": "prenom",
                  "type": "string"
                },
                {
                  "internalType": "string",
                  "name": "email",
                  "type": "string"
                },
                {
                  "internalType": "string",
                  "name": "adress",
                  "type": "string"
                },
                {
                  "internalType": "uint256",
                  "name": "tel",
                  "type": "uint256"
                },
                {
                  "internalType": "uint256",
                  "name": "cin",
                  "type": "uint256"
                },
                {
                  "internalType": "string",
                  "name": "username",
                  "type": "string"
                },
                {
                  "internalType": "string",
                  "name": "password",
                  "type": "string"
                }
              ],
              "internalType": "struct Remplissage.Chef",
              "name": "chef",
              "type": "tuple"
            }
          ],
          "internalType": "struct Remplissage.Operation0",
          "name": "operation",
          "type": "tuple"
        },
        {
          "components": [
            {
              "internalType": "uint256",
              "name": "idTank",
              "type": "uint256"
            },
            {
              "internalType": "string",
              "name": "matricule",
              "type": "string"
            },
            {
              "internalType": "uint256",
              "name": "poidVide",
              "type": "uint256"
            },
            {
              "internalType": "uint256",
              "name": "poidActuel",
              "type": "uint256"
            },
            {
              "internalType": "string",
              "name": "etat",
              "type": "string"
            }
          ],
          "internalType": "struct Remplissage.Tank",
          "name": "tank",
          "type": "tuple"
        }
      ],
      "stateMutability": "view",
      "type": "function",
      "constant": true
    },
    {
      "inputs": [
        {
          "internalType": "uint256",
          "name": "",
          "type": "uint256"
        }
      ],
      "name": "operations2",
      "outputs": [
        {
          "internalType": "uint256",
          "name": "idOperation",
          "type": "uint256"
        },
        {
          "internalType": "uint256",
          "name": "poidsLait",
          "type": "uint256"
        },
        {
          "internalType": "string",
          "name": "dateOperation",
          "type": "string"
        },
        {
          "internalType": "string",
          "name": "typeOp",
          "type": "string"
        },
        {
          "internalType": "uint256",
          "name": "code",
          "type": "uint256"
        },
        {
          "components": [
            {
              "internalType": "uint256",
              "name": "idCollecteur",
              "type": "uint256"
            },
            {
              "internalType": "string",
              "name": "nomCollecteur",
              "type": "string"
            },
            {
              "internalType": "string",
              "name": "adresse",
              "type": "string"
            },
            {
              "internalType": "uint256",
              "name": "tel",
              "type": "uint256"
            }
          ],
          "internalType": "struct Remplissage.Collecteur",
          "name": "collecteur",
          "type": "tuple"
        },
        {
          "components": [
            {
              "internalType": "uint256",
              "name": "idAgriculteur",
              "type": "uint256"
            },
            {
              "internalType": "string",
              "name": "nom",
              "type": "string"
            },
            {
              "internalType": "string",
              "name": "prenom",
              "type": "string"
            },
            {
              "internalType": "string",
              "name": "username",
              "type": "string"
            },
            {
              "internalType": "string",
              "name": "password",
              "type": "string"
            }
          ],
          "internalType": "struct Remplissage.Agriculteur",
          "name": "agriculteur",
          "type": "tuple"
        }
      ],
      "stateMutability": "view",
      "type": "function",
      "constant": true
    },
    {
      "inputs": [
        {
          "components": [
            {
              "internalType": "uint256",
              "name": "idOpTank",
              "type": "uint256"
            },
            {
              "internalType": "uint256",
              "name": "qteInsereTank",
              "type": "uint256"
            },
            {
              "internalType": "string",
              "name": "date",
              "type": "string"
            },
            {
              "components": [
                {
                  "internalType": "uint256",
                  "name": "idOperation",
                  "type": "uint256"
                },
                {
                  "internalType": "uint256",
                  "name": "poidsLait",
                  "type": "uint256"
                },
                {
                  "internalType": "string",
                  "name": "dateOperation",
                  "type": "string"
                },
                {
                  "internalType": "string",
                  "name": "typeOp",
                  "type": "string"
                },
                {
                  "internalType": "uint256",
                  "name": "code",
                  "type": "uint256"
                },
                {
                  "components": [
                    {
                      "internalType": "uint256",
                      "name": "idAgriculteur",
                      "type": "uint256"
                    },
                    {
                      "internalType": "string",
                      "name": "nom",
                      "type": "string"
                    },
                    {
                      "internalType": "string",
                      "name": "prenom",
                      "type": "string"
                    },
                    {
                      "internalType": "string",
                      "name": "email",
                      "type": "string"
                    },
                    {
                      "internalType": "string",
                      "name": "adress",
                      "type": "string"
                    },
                    {
                      "internalType": "uint256",
                      "name": "tel",
                      "type": "uint256"
                    }
                  ],
                  "internalType": "struct Remplissage.Agriculteur0",
                  "name": "agriculteur",
                  "type": "tuple"
                },
                {
                  "components": [
                    {
                      "internalType": "uint256",
                      "name": "idChef",
                      "type": "uint256"
                    },
                    {
                      "internalType": "string",
                      "name": "nom",
                      "type": "string"
                    },
                    {
                      "internalType": "string",
                      "name": "prenom",
                      "type": "string"
                    },
                    {
                      "internalType": "string",
                      "name": "email",
                      "type": "string"
                    },
                    {
                      "internalType": "string",
                      "name": "adress",
                      "type": "string"
                    },
                    {
                      "internalType": "uint256",
                      "name": "tel",
                      "type": "uint256"
                    },
                    {
                      "internalType": "uint256",
                      "name": "cin",
                      "type": "uint256"
                    },
                    {
                      "internalType": "string",
                      "name": "username",
                      "type": "string"
                    },
                    {
                      "internalType": "string",
                      "name": "password",
                      "type": "string"
                    }
                  ],
                  "internalType": "struct Remplissage.Chef",
                  "name": "chef",
                  "type": "tuple"
                }
              ],
              "internalType": "struct Remplissage.Operation0",
              "name": "operation",
              "type": "tuple"
            },
            {
              "components": [
                {
                  "internalType": "uint256",
                  "name": "idTank",
                  "type": "uint256"
                },
                {
                  "internalType": "string",
                  "name": "matricule",
                  "type": "string"
                },
                {
                  "internalType": "uint256",
                  "name": "poidVide",
                  "type": "uint256"
                },
                {
                  "internalType": "uint256",
                  "name": "poidActuel",
                  "type": "uint256"
                },
                {
                  "internalType": "string",
                  "name": "etat",
                  "type": "string"
                }
              ],
              "internalType": "struct Remplissage.Tank",
              "name": "tank",
              "type": "tuple"
            }
          ],
          "internalType": "struct Remplissage.OperationTank[]",
          "name": "operationTank",
          "type": "tuple[]"
        },
        {
          "internalType": "uint256",
          "name": "count",
          "type": "uint256"
        }
      ],
      "name": "addOperationTank",
      "outputs": [
        {
          "components": [
            {
              "internalType": "uint256",
              "name": "idOpTank",
              "type": "uint256"
            },
            {
              "internalType": "uint256",
              "name": "qteInsereTank",
              "type": "uint256"
            },
            {
              "internalType": "string",
              "name": "date",
              "type": "string"
            },
            {
              "components": [
                {
                  "internalType": "uint256",
                  "name": "idOperation",
                  "type": "uint256"
                },
                {
                  "internalType": "uint256",
                  "name": "poidsLait",
                  "type": "uint256"
                },
                {
                  "internalType": "string",
                  "name": "dateOperation",
                  "type": "string"
                },
                {
                  "internalType": "string",
                  "name": "typeOp",
                  "type": "string"
                },
                {
                  "internalType": "uint256",
                  "name": "code",
                  "type": "uint256"
                },
                {
                  "components": [
                    {
                      "internalType": "uint256",
                      "name": "idAgriculteur",
                      "type": "uint256"
                    },
                    {
                      "internalType": "string",
                      "name": "nom",
                      "type": "string"
                    },
                    {
                      "internalType": "string",
                      "name": "prenom",
                      "type": "string"
                    },
                    {
                      "internalType": "string",
                      "name": "email",
                      "type": "string"
                    },
                    {
                      "internalType": "string",
                      "name": "adress",
                      "type": "string"
                    },
                    {
                      "internalType": "uint256",
                      "name": "tel",
                      "type": "uint256"
                    }
                  ],
                  "internalType": "struct Remplissage.Agriculteur0",
                  "name": "agriculteur",
                  "type": "tuple"
                },
                {
                  "components": [
                    {
                      "internalType": "uint256",
                      "name": "idChef",
                      "type": "uint256"
                    },
                    {
                      "internalType": "string",
                      "name": "nom",
                      "type": "string"
                    },
                    {
                      "internalType": "string",
                      "name": "prenom",
                      "type": "string"
                    },
                    {
                      "internalType": "string",
                      "name": "email",
                      "type": "string"
                    },
                    {
                      "internalType": "string",
                      "name": "adress",
                      "type": "string"
                    },
                    {
                      "internalType": "uint256",
                      "name": "tel",
                      "type": "uint256"
                    },
                    {
                      "internalType": "uint256",
                      "name": "cin",
                      "type": "uint256"
                    },
                    {
                      "internalType": "string",
                      "name": "username",
                      "type": "string"
                    },
                    {
                      "internalType": "string",
                      "name": "password",
                      "type": "string"
                    }
                  ],
                  "internalType": "struct Remplissage.Chef",
                  "name": "chef",
                  "type": "tuple"
                }
              ],
              "internalType": "struct Remplissage.Operation0",
              "name": "operation",
              "type": "tuple"
            },
            {
              "components": [
                {
                  "internalType": "uint256",
                  "name": "idTank",
                  "type": "uint256"
                },
                {
                  "internalType": "string",
                  "name": "matricule",
                  "type": "string"
                },
                {
                  "internalType": "uint256",
                  "name": "poidVide",
                  "type": "uint256"
                },
                {
                  "internalType": "uint256",
                  "name": "poidActuel",
                  "type": "uint256"
                },
                {
                  "internalType": "string",
                  "name": "etat",
                  "type": "string"
                }
              ],
              "internalType": "struct Remplissage.Tank",
              "name": "tank",
              "type": "tuple"
            }
          ],
          "internalType": "struct Remplissage.OperationTank[]",
          "name": "tt0",
          "type": "tuple[]"
        }
      ],
      "stateMutability": "nonpayable",
      "type": "function"
    },
    {
      "inputs": [],
      "name": "getOperationTanks",
      "outputs": [
        {
          "components": [
            {
              "internalType": "uint256",
              "name": "idOpTank",
              "type": "uint256"
            },
            {
              "internalType": "uint256",
              "name": "qteInsereTank",
              "type": "uint256"
            },
            {
              "internalType": "string",
              "name": "date",
              "type": "string"
            },
            {
              "components": [
                {
                  "internalType": "uint256",
                  "name": "idOperation",
                  "type": "uint256"
                },
                {
                  "internalType": "uint256",
                  "name": "poidsLait",
                  "type": "uint256"
                },
                {
                  "internalType": "string",
                  "name": "dateOperation",
                  "type": "string"
                },
                {
                  "internalType": "string",
                  "name": "typeOp",
                  "type": "string"
                },
                {
                  "internalType": "uint256",
                  "name": "code",
                  "type": "uint256"
                },
                {
                  "components": [
                    {
                      "internalType": "uint256",
                      "name": "idAgriculteur",
                      "type": "uint256"
                    },
                    {
                      "internalType": "string",
                      "name": "nom",
                      "type": "string"
                    },
                    {
                      "internalType": "string",
                      "name": "prenom",
                      "type": "string"
                    },
                    {
                      "internalType": "string",
                      "name": "email",
                      "type": "string"
                    },
                    {
                      "internalType": "string",
                      "name": "adress",
                      "type": "string"
                    },
                    {
                      "internalType": "uint256",
                      "name": "tel",
                      "type": "uint256"
                    }
                  ],
                  "internalType": "struct Remplissage.Agriculteur0",
                  "name": "agriculteur",
                  "type": "tuple"
                },
                {
                  "components": [
                    {
                      "internalType": "uint256",
                      "name": "idChef",
                      "type": "uint256"
                    },
                    {
                      "internalType": "string",
                      "name": "nom",
                      "type": "string"
                    },
                    {
                      "internalType": "string",
                      "name": "prenom",
                      "type": "string"
                    },
                    {
                      "internalType": "string",
                      "name": "email",
                      "type": "string"
                    },
                    {
                      "internalType": "string",
                      "name": "adress",
                      "type": "string"
                    },
                    {
                      "internalType": "uint256",
                      "name": "tel",
                      "type": "uint256"
                    },
                    {
                      "internalType": "uint256",
                      "name": "cin",
                      "type": "uint256"
                    },
                    {
                      "internalType": "string",
                      "name": "username",
                      "type": "string"
                    },
                    {
                      "internalType": "string",
                      "name": "password",
                      "type": "string"
                    }
                  ],
                  "internalType": "struct Remplissage.Chef",
                  "name": "chef",
                  "type": "tuple"
                }
              ],
              "internalType": "struct Remplissage.Operation0",
              "name": "operation",
              "type": "tuple"
            },
            {
              "components": [
                {
                  "internalType": "uint256",
                  "name": "idTank",
                  "type": "uint256"
                },
                {
                  "internalType": "string",
                  "name": "matricule",
                  "type": "string"
                },
                {
                  "internalType": "uint256",
                  "name": "poidVide",
                  "type": "uint256"
                },
                {
                  "internalType": "uint256",
                  "name": "poidActuel",
                  "type": "uint256"
                },
                {
                  "internalType": "string",
                  "name": "etat",
                  "type": "string"
                }
              ],
              "internalType": "struct Remplissage.Tank",
              "name": "tank",
              "type": "tuple"
            }
          ],
          "internalType": "struct Remplissage.OperationTank[]",
          "name": "result",
          "type": "tuple[]"
        }
      ],
      "stateMutability": "view",
      "type": "function",
      "constant": true
    }
  ],
  "bytecode": "0x6080604052600160025534801561001557600080fd5b50614e84806100256000396000f3fe608060405234801561001057600080fd5b50600436106100935760003560e01c8063627d612e11610066578063627d612e1461014a57806392932c0a1461017a578063996ba7bb146101aa578063c9c28e0f146101e0578063f948e50a146101fe57610093565b80631e96917d14610098578063202e3924146100b65780632fca5529146100e65780635383bbfd1461011a575b600080fd5b6100a061021c565b6040516100ad9190613621565b60405180910390f35b6100d060048036038101906100cb919061367c565b610222565b6040516100dd91906138f7565b60405180910390f35b61010060048036038101906100fb919061367c565b6107a7565b604051610111959493929190613c17565b60405180910390f35b610134600480360381019061012f919061367c565b61111c565b6040516101419190613c7f565b60405180910390f35b610164600480360381019061015f91906140b0565b6111c8565b60405161017191906138f7565b60405180910390f35b610194600480360381019061018f919061473f565b611426565b6040516101a19190614a0f565b60405180910390f35b6101c460048036038101906101bf919061367c565b6120b2565b6040516101d79796959493929190614b26565b60405180910390f35b6101e86125b2565b6040516101f59190614a0f565b60405180910390f35b610206612f72565b6040516102139190614d24565b60405180910390f35b60025481565b61022a6134c5565b60005b6002548110156107a057826000828154811061024c5761024b614d46565b5b90600052602060002090600e020160000154141561078d576000818154811061027857610277614d46565b5b90600052602060002090600e02016040518060e001604052908160008201548152602001600182015481526020016002820180546102b590614da4565b80601f01602080910402602001604051908101604052809291908181526020018280546102e190614da4565b801561032e5780601f106103035761010080835404028352916020019161032e565b820191906000526020600020905b81548152906001019060200180831161031157829003601f168201915b5050505050815260200160038201805461034790614da4565b80601f016020809104026020016040519081016040528092919081815260200182805461037390614da4565b80156103c05780601f10610395576101008083540402835291602001916103c0565b820191906000526020600020905b8154815290600101906020018083116103a357829003601f168201915b505050505081526020016004820154815260200160058201604051806080016040529081600082015481526020016001820180546103fd90614da4565b80601f016020809104026020016040519081016040528092919081815260200182805461042990614da4565b80156104765780601f1061044b57610100808354040283529160200191610476565b820191906000526020600020905b81548152906001019060200180831161045957829003601f168201915b5050505050815260200160028201805461048f90614da4565b80601f01602080910402602001604051908101604052809291908181526020018280546104bb90614da4565b80156105085780601f106104dd57610100808354040283529160200191610508565b820191906000526020600020905b8154815290600101906020018083116104eb57829003601f168201915b505050505081526020016003820154815250508152602001600982016040518060a00160405290816000820154815260200160018201805461054990614da4565b80601f016020809104026020016040519081016040528092919081815260200182805461057590614da4565b80156105c25780601f10610597576101008083540402835291602001916105c2565b820191906000526020600020905b8154815290600101906020018083116105a557829003601f168201915b505050505081526020016002820180546105db90614da4565b80601f016020809104026020016040519081016040528092919081815260200182805461060790614da4565b80156106545780601f1061062957610100808354040283529160200191610654565b820191906000526020600020905b81548152906001019060200180831161063757829003601f168201915b5050505050815260200160038201805461066d90614da4565b80601f016020809104026020016040519081016040528092919081815260200182805461069990614da4565b80156106e65780601f106106bb576101008083540402835291602001916106e6565b820191906000526020600020905b8154815290600101906020018083116106c957829003601f168201915b505050505081526020016004820180546106ff90614da4565b80601f016020809104026020016040519081016040528092919081815260200182805461072b90614da4565b80156107785780601f1061074d57610100808354040283529160200191610778565b820191906000526020600020905b81548152906001019060200180831161075b57829003601f168201915b505050505081525050815250509150506107a2565b808061079890614e05565b91505061022d565b505b919050565b600381815481106107b757600080fd5b90600052602060002090601c02016000915090508060000154908060010154908060020180546107e690614da4565b80601f016020809104026020016040519081016040528092919081815260200182805461081290614da4565b801561085f5780601f106108345761010080835404028352916020019161085f565b820191906000526020600020905b81548152906001019060200180831161084257829003601f168201915b505050505090806003016040518060e0016040529081600082015481526020016001820154815260200160028201805461089890614da4565b80601f01602080910402602001604051908101604052809291908181526020018280546108c490614da4565b80156109115780601f106108e657610100808354040283529160200191610911565b820191906000526020600020905b8154815290600101906020018083116108f457829003601f168201915b5050505050815260200160038201805461092a90614da4565b80601f016020809104026020016040519081016040528092919081815260200182805461095690614da4565b80156109a35780601f10610978576101008083540402835291602001916109a3565b820191906000526020600020905b81548152906001019060200180831161098657829003601f168201915b5050505050815260200160048201548152602001600582016040518060c0016040529081600082015481526020016001820180546109e090614da4565b80601f0160208091040260200160405190810160405280929190818152602001828054610a0c90614da4565b8015610a595780601f10610a2e57610100808354040283529160200191610a59565b820191906000526020600020905b815481529060010190602001808311610a3c57829003601f168201915b50505050508152602001600282018054610a7290614da4565b80601f0160208091040260200160405190810160405280929190818152602001828054610a9e90614da4565b8015610aeb5780601f10610ac057610100808354040283529160200191610aeb565b820191906000526020600020905b815481529060010190602001808311610ace57829003601f168201915b50505050508152602001600382018054610b0490614da4565b80601f0160208091040260200160405190810160405280929190818152602001828054610b3090614da4565b8015610b7d5780601f10610b5257610100808354040283529160200191610b7d565b820191906000526020600020905b815481529060010190602001808311610b6057829003601f168201915b50505050508152602001600482018054610b9690614da4565b80601f0160208091040260200160405190810160405280929190818152602001828054610bc290614da4565b8015610c0f5780601f10610be457610100808354040283529160200191610c0f565b820191906000526020600020905b815481529060010190602001808311610bf257829003601f168201915b505050505081526020016005820154815250508152602001600b82016040518061012001604052908160008201548152602001600182018054610c5190614da4565b80601f0160208091040260200160405190810160405280929190818152602001828054610c7d90614da4565b8015610cca5780601f10610c9f57610100808354040283529160200191610cca565b820191906000526020600020905b815481529060010190602001808311610cad57829003601f168201915b50505050508152602001600282018054610ce390614da4565b80601f0160208091040260200160405190810160405280929190818152602001828054610d0f90614da4565b8015610d5c5780601f10610d3157610100808354040283529160200191610d5c565b820191906000526020600020905b815481529060010190602001808311610d3f57829003601f168201915b50505050508152602001600382018054610d7590614da4565b80601f0160208091040260200160405190810160405280929190818152602001828054610da190614da4565b8015610dee5780601f10610dc357610100808354040283529160200191610dee565b820191906000526020600020905b815481529060010190602001808311610dd157829003601f168201915b50505050508152602001600482018054610e0790614da4565b80601f0160208091040260200160405190810160405280929190818152602001828054610e3390614da4565b8015610e805780601f10610e5557610100808354040283529160200191610e80565b820191906000526020600020905b815481529060010190602001808311610e6357829003601f168201915b505050505081526020016005820154815260200160068201548152602001600782018054610ead90614da4565b80601f0160208091040260200160405190810160405280929190818152602001828054610ed990614da4565b8015610f265780601f10610efb57610100808354040283529160200191610f26565b820191906000526020600020905b815481529060010190602001808311610f0957829003601f168201915b50505050508152602001600882018054610f3f90614da4565b80601f0160208091040260200160405190810160405280929190818152602001828054610f6b90614da4565b8015610fb85780601f10610f8d57610100808354040283529160200191610fb8565b820191906000526020600020905b815481529060010190602001808311610f9b57829003601f168201915b5050505050815250508152505090806017016040518060a001604052908160008201548152602001600182018054610fef90614da4565b80601f016020809104026020016040519081016040528092919081815260200182805461101b90614da4565b80156110685780601f1061103d57610100808354040283529160200191611068565b820191906000526020600020905b81548152906001019060200180831161104b57829003601f168201915b50505050508152602001600282015481526020016003820154815260200160048201805461109590614da4565b80601f01602080910402602001604051908101604052809291908181526020018280546110c190614da4565b801561110e5780601f106110e35761010080835404028352916020019161110e565b820191906000526020600020905b8154815290600101906020018083116110f157829003601f168201915b505050505081525050905085565b6001818154811061112c57600080fd5b90600052602060002001600091509050805461114790614da4565b80601f016020809104026020016040519081016040528092919081815260200182805461117390614da4565b80156111c05780601f10611195576101008083540402835291602001916111c0565b820191906000526020600020905b8154815290600101906020018083116111a357829003601f168201915b505050505081565b6111d06134c5565b60006040518060a001604052808460c001516000015181526020018460c001516020015181526020018460c001516040015181526020018460c001516060015181526020018460c00151608001518152509050600060405180608001604052808560a001516000015181526020018560a001516020015181526020018560a001516040015181526020018560a0015160600151815250905060006040518060e00160405280866000015181526020018660200151815260200186604001518152602001866060015181526020018660800151815260200183815260200184815250905060008190806001815401808255809150506001900390600052602060002090600e02016000909190919091506000820151816000015560208201518160010155604082015181600201908051906020019061130f92919061350e565b50606082015181600301908051906020019061132c92919061350e565b506080820151816004015560a08201518160050160008201518160000155602082015181600101908051906020019061136692919061350e565b50604082015181600201908051906020019061138392919061350e565b5060608201518160030155505060c0820151816009016000820151816000015560208201518160010190805190602001906113bf92919061350e565b5060408201518160020190805190602001906113dc92919061350e565b5060608201518160030190805190602001906113f992919061350e565b50608082015181600401908051906020019061141692919061350e565b5050505050809350505050919050565b606060005b828110156116f057600384828151811061144857611447614d46565b5b602002602001015190806001815401808255809150506001900390600052602060002090601c0201600090919091909150600082015181600001556020820151816001015560408201518160020190805190602001906114a992919061350e565b50606082015181600301600082015181600001556020820151816001015560408201518160020190805190602001906114e392919061350e565b50606082015181600301908051906020019061150092919061350e565b506080820151816004015560a08201518160050160008201518160000155602082015181600101908051906020019061153a92919061350e565b50604082015181600201908051906020019061155792919061350e565b50606082015181600301908051906020019061157492919061350e565b50608082015181600401908051906020019061159192919061350e565b5060a08201518160050155505060c082015181600b016000820151816000015560208201518160010190805190602001906115cd92919061350e565b5060408201518160020190805190602001906115ea92919061350e565b50606082015181600301908051906020019061160792919061350e565b50608082015181600401908051906020019061162492919061350e565b5060a0820151816005015560c0820151816006015560e082015181600701908051906020019061165592919061350e565b5061010082015181600801908051906020019061167392919061350e565b50505050506080820151816017016000820151816000015560208201518160010190805190602001906116a792919061350e565b50604082015181600201556060820151816003015560808201518160040190805190602001906116d892919061350e565b505050505080806116e890614e05565b91505061142b565b506003805480602002602001604051908101604052809291908181526020016000905b828210156120a657838290600052602060002090601c02016040518060a0016040529081600082015481526020016001820154815260200160028201805461175a90614da4565b80601f016020809104026020016040519081016040528092919081815260200182805461178690614da4565b80156117d35780601f106117a8576101008083540402835291602001916117d3565b820191906000526020600020905b8154815290600101906020018083116117b657829003601f168201915b50505050508152602001600382016040518060e0016040529081600082015481526020016001820154815260200160028201805461181090614da4565b80601f016020809104026020016040519081016040528092919081815260200182805461183c90614da4565b80156118895780601f1061185e57610100808354040283529160200191611889565b820191906000526020600020905b81548152906001019060200180831161186c57829003601f168201915b505050505081526020016003820180546118a290614da4565b80601f01602080910402602001604051908101604052809291908181526020018280546118ce90614da4565b801561191b5780601f106118f05761010080835404028352916020019161191b565b820191906000526020600020905b8154815290600101906020018083116118fe57829003601f168201915b5050505050815260200160048201548152602001600582016040518060c00160405290816000820154815260200160018201805461195890614da4565b80601f016020809104026020016040519081016040528092919081815260200182805461198490614da4565b80156119d15780601f106119a6576101008083540402835291602001916119d1565b820191906000526020600020905b8154815290600101906020018083116119b457829003601f168201915b505050505081526020016002820180546119ea90614da4565b80601f0160208091040260200160405190810160405280929190818152602001828054611a1690614da4565b8015611a635780601f10611a3857610100808354040283529160200191611a63565b820191906000526020600020905b815481529060010190602001808311611a4657829003601f168201915b50505050508152602001600382018054611a7c90614da4565b80601f0160208091040260200160405190810160405280929190818152602001828054611aa890614da4565b8015611af55780601f10611aca57610100808354040283529160200191611af5565b820191906000526020600020905b815481529060010190602001808311611ad857829003601f168201915b50505050508152602001600482018054611b0e90614da4565b80601f0160208091040260200160405190810160405280929190818152602001828054611b3a90614da4565b8015611b875780601f10611b5c57610100808354040283529160200191611b87565b820191906000526020600020905b815481529060010190602001808311611b6a57829003601f168201915b505050505081526020016005820154815250508152602001600b82016040518061012001604052908160008201548152602001600182018054611bc990614da4565b80601f0160208091040260200160405190810160405280929190818152602001828054611bf590614da4565b8015611c425780601f10611c1757610100808354040283529160200191611c42565b820191906000526020600020905b815481529060010190602001808311611c2557829003601f168201915b50505050508152602001600282018054611c5b90614da4565b80601f0160208091040260200160405190810160405280929190818152602001828054611c8790614da4565b8015611cd45780601f10611ca957610100808354040283529160200191611cd4565b820191906000526020600020905b815481529060010190602001808311611cb757829003601f168201915b50505050508152602001600382018054611ced90614da4565b80601f0160208091040260200160405190810160405280929190818152602001828054611d1990614da4565b8015611d665780601f10611d3b57610100808354040283529160200191611d66565b820191906000526020600020905b815481529060010190602001808311611d4957829003601f168201915b50505050508152602001600482018054611d7f90614da4565b80601f0160208091040260200160405190810160405280929190818152602001828054611dab90614da4565b8015611df85780601f10611dcd57610100808354040283529160200191611df8565b820191906000526020600020905b815481529060010190602001808311611ddb57829003601f168201915b505050505081526020016005820154815260200160068201548152602001600782018054611e2590614da4565b80601f0160208091040260200160405190810160405280929190818152602001828054611e5190614da4565b8015611e9e5780601f10611e7357610100808354040283529160200191611e9e565b820191906000526020600020905b815481529060010190602001808311611e8157829003601f168201915b50505050508152602001600882018054611eb790614da4565b80601f0160208091040260200160405190810160405280929190818152602001828054611ee390614da4565b8015611f305780601f10611f0557610100808354040283529160200191611f30565b820191906000526020600020905b815481529060010190602001808311611f1357829003601f168201915b505050505081525050815250508152602001601782016040518060a001604052908160008201548152602001600182018054611f6b90614da4565b80601f0160208091040260200160405190810160405280929190818152602001828054611f9790614da4565b8015611fe45780601f10611fb957610100808354040283529160200191611fe4565b820191906000526020600020905b815481529060010190602001808311611fc757829003601f168201915b50505050508152602001600282015481526020016003820154815260200160048201805461201190614da4565b80601f016020809104026020016040519081016040528092919081815260200182805461203d90614da4565b801561208a5780601f1061205f5761010080835404028352916020019161208a565b820191906000526020600020905b81548152906001019060200180831161206d57829003601f168201915b5050505050815250508152505081526020019060010190611713565b50505050905092915050565b600081815481106120c257600080fd5b90600052602060002090600e02016000915090508060000154908060010154908060020180546120f190614da4565b80601f016020809104026020016040519081016040528092919081815260200182805461211d90614da4565b801561216a5780601f1061213f5761010080835404028352916020019161216a565b820191906000526020600020905b81548152906001019060200180831161214d57829003601f168201915b50505050509080600301805461217f90614da4565b80601f01602080910402602001604051908101604052809291908181526020018280546121ab90614da4565b80156121f85780601f106121cd576101008083540402835291602001916121f8565b820191906000526020600020905b8154815290600101906020018083116121db57829003601f168201915b505050505090806004015490806005016040518060800160405290816000820154815260200160018201805461222d90614da4565b80601f016020809104026020016040519081016040528092919081815260200182805461225990614da4565b80156122a65780601f1061227b576101008083540402835291602001916122a6565b820191906000526020600020905b81548152906001019060200180831161228957829003601f168201915b505050505081526020016002820180546122bf90614da4565b80601f01602080910402602001604051908101604052809291908181526020018280546122eb90614da4565b80156123385780601f1061230d57610100808354040283529160200191612338565b820191906000526020600020905b81548152906001019060200180831161231b57829003601f168201915b5050505050815260200160038201548152505090806009016040518060a00160405290816000820154815260200160018201805461237590614da4565b80601f01602080910402602001604051908101604052809291908181526020018280546123a190614da4565b80156123ee5780601f106123c3576101008083540402835291602001916123ee565b820191906000526020600020905b8154815290600101906020018083116123d157829003601f168201915b5050505050815260200160028201805461240790614da4565b80601f016020809104026020016040519081016040528092919081815260200182805461243390614da4565b80156124805780601f1061245557610100808354040283529160200191612480565b820191906000526020600020905b81548152906001019060200180831161246357829003601f168201915b5050505050815260200160038201805461249990614da4565b80601f01602080910402602001604051908101604052809291908181526020018280546124c590614da4565b80156125125780601f106124e757610100808354040283529160200191612512565b820191906000526020600020905b8154815290600101906020018083116124f557829003601f168201915b5050505050815260200160048201805461252b90614da4565b80601f016020809104026020016040519081016040528092919081815260200182805461255790614da4565b80156125a45780601f10612579576101008083540402835291602001916125a4565b820191906000526020600020905b81548152906001019060200180831161258757829003601f168201915b505050505081525050905087565b60606003805480602002602001604051908101604052809291908181526020016000905b82821015612f6957838290600052602060002090601c02016040518060a0016040529081600082015481526020016001820154815260200160028201805461261d90614da4565b80601f016020809104026020016040519081016040528092919081815260200182805461264990614da4565b80156126965780601f1061266b57610100808354040283529160200191612696565b820191906000526020600020905b81548152906001019060200180831161267957829003601f168201915b50505050508152602001600382016040518060e001604052908160008201548152602001600182015481526020016002820180546126d390614da4565b80601f01602080910402602001604051908101604052809291908181526020018280546126ff90614da4565b801561274c5780601f106127215761010080835404028352916020019161274c565b820191906000526020600020905b81548152906001019060200180831161272f57829003601f168201915b5050505050815260200160038201805461276590614da4565b80601f016020809104026020016040519081016040528092919081815260200182805461279190614da4565b80156127de5780601f106127b3576101008083540402835291602001916127de565b820191906000526020600020905b8154815290600101906020018083116127c157829003601f168201915b5050505050815260200160048201548152602001600582016040518060c00160405290816000820154815260200160018201805461281b90614da4565b80601f016020809104026020016040519081016040528092919081815260200182805461284790614da4565b80156128945780601f1061286957610100808354040283529160200191612894565b820191906000526020600020905b81548152906001019060200180831161287757829003601f168201915b505050505081526020016002820180546128ad90614da4565b80601f01602080910402602001604051908101604052809291908181526020018280546128d990614da4565b80156129265780601f106128fb57610100808354040283529160200191612926565b820191906000526020600020905b81548152906001019060200180831161290957829003601f168201915b5050505050815260200160038201805461293f90614da4565b80601f016020809104026020016040519081016040528092919081815260200182805461296b90614da4565b80156129b85780601f1061298d576101008083540402835291602001916129b8565b820191906000526020600020905b81548152906001019060200180831161299b57829003601f168201915b505050505081526020016004820180546129d190614da4565b80601f01602080910402602001604051908101604052809291908181526020018280546129fd90614da4565b8015612a4a5780601f10612a1f57610100808354040283529160200191612a4a565b820191906000526020600020905b815481529060010190602001808311612a2d57829003601f168201915b505050505081526020016005820154815250508152602001600b82016040518061012001604052908160008201548152602001600182018054612a8c90614da4565b80601f0160208091040260200160405190810160405280929190818152602001828054612ab890614da4565b8015612b055780601f10612ada57610100808354040283529160200191612b05565b820191906000526020600020905b815481529060010190602001808311612ae857829003601f168201915b50505050508152602001600282018054612b1e90614da4565b80601f0160208091040260200160405190810160405280929190818152602001828054612b4a90614da4565b8015612b975780601f10612b6c57610100808354040283529160200191612b97565b820191906000526020600020905b815481529060010190602001808311612b7a57829003601f168201915b50505050508152602001600382018054612bb090614da4565b80601f0160208091040260200160405190810160405280929190818152602001828054612bdc90614da4565b8015612c295780601f10612bfe57610100808354040283529160200191612c29565b820191906000526020600020905b815481529060010190602001808311612c0c57829003601f168201915b50505050508152602001600482018054612c4290614da4565b80601f0160208091040260200160405190810160405280929190818152602001828054612c6e90614da4565b8015612cbb5780601f10612c9057610100808354040283529160200191612cbb565b820191906000526020600020905b815481529060010190602001808311612c9e57829003601f168201915b505050505081526020016005820154815260200160068201548152602001600782018054612ce890614da4565b80601f0160208091040260200160405190810160405280929190818152602001828054612d1490614da4565b8015612d615780601f10612d3657610100808354040283529160200191612d61565b820191906000526020600020905b815481529060010190602001808311612d4457829003601f168201915b50505050508152602001600882018054612d7a90614da4565b80601f0160208091040260200160405190810160405280929190818152602001828054612da690614da4565b8015612df35780601f10612dc857610100808354040283529160200191612df3565b820191906000526020600020905b815481529060010190602001808311612dd657829003601f168201915b505050505081525050815250508152602001601782016040518060a001604052908160008201548152602001600182018054612e2e90614da4565b80601f0160208091040260200160405190810160405280929190818152602001828054612e5a90614da4565b8015612ea75780601f10612e7c57610100808354040283529160200191612ea7565b820191906000526020600020905b815481529060010190602001808311612e8a57829003601f168201915b505050505081526020016002820154815260200160038201548152602001600482018054612ed490614da4565b80601f0160208091040260200160405190810160405280929190818152602001828054612f0090614da4565b8015612f4d5780601f10612f2257610100808354040283529160200191612f4d565b820191906000526020600020905b815481529060010190602001808311612f3057829003601f168201915b50505050508152505081525050815260200190600101906125d6565b50505050905090565b60606000805480602002602001604051908101604052809291908181526020016000905b828210156134bc57838290600052602060002090600e02016040518060e00160405290816000820154815260200160018201548152602001600282018054612fdd90614da4565b80601f016020809104026020016040519081016040528092919081815260200182805461300990614da4565b80156130565780601f1061302b57610100808354040283529160200191613056565b820191906000526020600020905b81548152906001019060200180831161303957829003601f168201915b5050505050815260200160038201805461306f90614da4565b80601f016020809104026020016040519081016040528092919081815260200182805461309b90614da4565b80156130e85780601f106130bd576101008083540402835291602001916130e8565b820191906000526020600020905b8154815290600101906020018083116130cb57829003601f168201915b5050505050815260200160048201548152602001600582016040518060800160405290816000820154815260200160018201805461312590614da4565b80601f016020809104026020016040519081016040528092919081815260200182805461315190614da4565b801561319e5780601f106131735761010080835404028352916020019161319e565b820191906000526020600020905b81548152906001019060200180831161318157829003601f168201915b505050505081526020016002820180546131b790614da4565b80601f01602080910402602001604051908101604052809291908181526020018280546131e390614da4565b80156132305780601f1061320557610100808354040283529160200191613230565b820191906000526020600020905b81548152906001019060200180831161321357829003601f168201915b505050505081526020016003820154815250508152602001600982016040518060a00160405290816000820154815260200160018201805461327190614da4565b80601f016020809104026020016040519081016040528092919081815260200182805461329d90614da4565b80156132ea5780601f106132bf576101008083540402835291602001916132ea565b820191906000526020600020905b8154815290600101906020018083116132cd57829003601f168201915b5050505050815260200160028201805461330390614da4565b80601f016020809104026020016040519081016040528092919081815260200182805461332f90614da4565b801561337c5780601f106133515761010080835404028352916020019161337c565b820191906000526020600020905b81548152906001019060200180831161335f57829003601f168201915b5050505050815260200160038201805461339590614da4565b80601f01602080910402602001604051908101604052809291908181526020018280546133c190614da4565b801561340e5780601f106133e35761010080835404028352916020019161340e565b820191906000526020600020905b8154815290600101906020018083116133f157829003601f168201915b5050505050815260200160048201805461342790614da4565b80601f016020809104026020016040519081016040528092919081815260200182805461345390614da4565b80156134a05780601f10613475576101008083540402835291602001916134a0565b820191906000526020600020905b81548152906001019060200180831161348357829003601f168201915b5050505050815250508152505081526020019060010190612f96565b50505050905090565b6040518060e0016040528060008152602001600081526020016060815260200160608152602001600081526020016134fb613594565b81526020016135086135bc565b81525090565b82805461351a90614da4565b90600052602060002090601f01602090048101928261353c5760008555613583565b82601f1061355557805160ff1916838001178555613583565b82800160010185558215613583579182015b82811115613582578251825591602001919060010190613567565b5b50905061359091906135eb565b5090565b6040518060800160405280600081526020016060815260200160608152602001600081525090565b6040518060a0016040528060008152602001606081526020016060815260200160608152602001606081525090565b5b808211156136045760008160009055506001016135ec565b5090565b6000819050919050565b61361b81613608565b82525050565b60006020820190506136366000830184613612565b92915050565b6000604051905090565b600080fd5b600080fd5b61365981613608565b811461366457600080fd5b50565b60008135905061367681613650565b92915050565b60006020828403121561369257613691613646565b5b60006136a084828501613667565b91505092915050565b6136b281613608565b82525050565b600081519050919050565b600082825260208201905092915050565b60005b838110156136f25780820151818401526020810190506136d7565b83811115613701576000848401525b50505050565b6000601f19601f8301169050919050565b6000613723826136b8565b61372d81856136c3565b935061373d8185602086016136d4565b61374681613707565b840191505092915050565b600060808301600083015161376960008601826136a9565b50602083015184820360208601526137818282613718565b9150506040830151848203604086015261379b8282613718565b91505060608301516137b060608601826136a9565b508091505092915050565b600060a0830160008301516137d360008601826136a9565b50602083015184820360208601526137eb8282613718565b915050604083015184820360408601526138058282613718565b9150506060830151848203606086015261381f8282613718565b915050608083015184820360808601526138398282613718565b9150508091505092915050565b600060e08301600083015161385e60008601826136a9565b50602083015161387160208601826136a9565b50604083015184820360408601526138898282613718565b915050606083015184820360608601526138a38282613718565b91505060808301516138b860808601826136a9565b5060a083015184820360a08601526138d08282613751565b91505060c083015184820360c08601526138ea82826137bb565b9150508091505092915050565b600060208201905081810360008301526139118184613846565b905092915050565b600082825260208201905092915050565b6000613935826136b8565b61393f8185613919565b935061394f8185602086016136d4565b61395881613707565b840191505092915050565b600060c08301600083015161397b60008601826136a9565b50602083015184820360208601526139938282613718565b915050604083015184820360408601526139ad8282613718565b915050606083015184820360608601526139c78282613718565b915050608083015184820360808601526139e18282613718565b91505060a08301516139f660a08601826136a9565b508091505092915050565b600061012083016000830151613a1a60008601826136a9565b5060208301518482036020860152613a328282613718565b91505060408301518482036040860152613a4c8282613718565b91505060608301518482036060860152613a668282613718565b91505060808301518482036080860152613a808282613718565b91505060a0830151613a9560a08601826136a9565b5060c0830151613aa860c08601826136a9565b5060e083015184820360e0860152613ac08282613718565b915050610100830151848203610100860152613adc8282613718565b9150508091505092915050565b600060e083016000830151613b0160008601826136a9565b506020830151613b1460208601826136a9565b5060408301518482036040860152613b2c8282613718565b91505060608301518482036060860152613b468282613718565b9150506080830151613b5b60808601826136a9565b5060a083015184820360a0860152613b738282613963565b91505060c083015184820360c0860152613b8d8282613a01565b9150508091505092915050565b600060a083016000830151613bb260008601826136a9565b5060208301518482036020860152613bca8282613718565b9150506040830151613bdf60408601826136a9565b506060830151613bf260608601826136a9565b5060808301518482036080860152613c0a8282613718565b9150508091505092915050565b600060a082019050613c2c6000830188613612565b613c396020830187613612565b8181036040830152613c4b818661392a565b90508181036060830152613c5f8185613ae9565b90508181036080830152613c738184613b9a565b90509695505050505050565b60006020820190508181036000830152613c99818461392a565b905092915050565b600080fd5b7f4e487b7100000000000000000000000000000000000000000000000000000000600052604160045260246000fd5b613cde82613707565b810181811067ffffffffffffffff82111715613cfd57613cfc613ca6565b5b80604052505050565b6000613d1061363c565b9050613d1c8282613cd5565b919050565b600080fd5b600080fd5b600080fd5b600067ffffffffffffffff821115613d4b57613d4a613ca6565b5b613d5482613707565b9050602081019050919050565b82818337600083830152505050565b6000613d83613d7e84613d30565b613d06565b905082815260208101848484011115613d9f57613d9e613d2b565b5b613daa848285613d61565b509392505050565b600082601f830112613dc757613dc6613d26565b5b8135613dd7848260208601613d70565b91505092915050565b600060808284031215613df657613df5613ca1565b5b613e006080613d06565b90506000613e1084828501613667565b600083015250602082013567ffffffffffffffff811115613e3457613e33613d21565b5b613e4084828501613db2565b602083015250604082013567ffffffffffffffff811115613e6457613e63613d21565b5b613e7084828501613db2565b6040830152506060613e8484828501613667565b60608301525092915050565b600060a08284031215613ea657613ea5613ca1565b5b613eb060a0613d06565b90506000613ec084828501613667565b600083015250602082013567ffffffffffffffff811115613ee457613ee3613d21565b5b613ef084828501613db2565b602083015250604082013567ffffffffffffffff811115613f1457613f13613d21565b5b613f2084828501613db2565b604083015250606082013567ffffffffffffffff811115613f4457613f43613d21565b5b613f5084828501613db2565b606083015250608082013567ffffffffffffffff811115613f7457613f73613d21565b5b613f8084828501613db2565b60808301525092915050565b600060e08284031215613fa257613fa1613ca1565b5b613fac60e0613d06565b90506000613fbc84828501613667565b6000830152506020613fd084828501613667565b602083015250604082013567ffffffffffffffff811115613ff457613ff3613d21565b5b61400084828501613db2565b604083015250606082013567ffffffffffffffff81111561402457614023613d21565b5b61403084828501613db2565b606083015250608061404484828501613667565b60808301525060a082013567ffffffffffffffff81111561406857614067613d21565b5b61407484828501613de0565b60a08301525060c082013567ffffffffffffffff81111561409857614097613d21565b5b6140a484828501613e90565b60c08301525092915050565b6000602082840312156140c6576140c5613646565b5b600082013567ffffffffffffffff8111156140e4576140e361364b565b5b6140f084828501613f8c565b91505092915050565b600067ffffffffffffffff82111561411457614113613ca6565b5b602082029050602081019050919050565b600080fd5b600060c082840312156141405761413f613ca1565b5b61414a60c0613d06565b9050600061415a84828501613667565b600083015250602082013567ffffffffffffffff81111561417e5761417d613d21565b5b61418a84828501613db2565b602083015250604082013567ffffffffffffffff8111156141ae576141ad613d21565b5b6141ba84828501613db2565b604083015250606082013567ffffffffffffffff8111156141de576141dd613d21565b5b6141ea84828501613db2565b606083015250608082013567ffffffffffffffff81111561420e5761420d613d21565b5b61421a84828501613db2565b60808301525060a061422e84828501613667565b60a08301525092915050565b6000610120828403121561425157614250613ca1565b5b61425c610120613d06565b9050600061426c84828501613667565b600083015250602082013567ffffffffffffffff8111156142905761428f613d21565b5b61429c84828501613db2565b602083015250604082013567ffffffffffffffff8111156142c0576142bf613d21565b5b6142cc84828501613db2565b604083015250606082013567ffffffffffffffff8111156142f0576142ef613d21565b5b6142fc84828501613db2565b606083015250608082013567ffffffffffffffff8111156143205761431f613d21565b5b61432c84828501613db2565b60808301525060a061434084828501613667565b60a08301525060c061435484828501613667565b60c08301525060e082013567ffffffffffffffff81111561437857614377613d21565b5b61438484828501613db2565b60e08301525061010082013567ffffffffffffffff8111156143a9576143a8613d21565b5b6143b584828501613db2565b6101008301525092915050565b600060e082840312156143d8576143d7613ca1565b5b6143e260e0613d06565b905060006143f284828501613667565b600083015250602061440684828501613667565b602083015250604082013567ffffffffffffffff81111561442a57614429613d21565b5b61443684828501613db2565b604083015250606082013567ffffffffffffffff81111561445a57614459613d21565b5b61446684828501613db2565b606083015250608061447a84828501613667565b60808301525060a082013567ffffffffffffffff81111561449e5761449d613d21565b5b6144aa8482850161412a565b60a08301525060c082013567ffffffffffffffff8111156144ce576144cd613d21565b5b6144da8482850161423a565b60c08301525092915050565b600060a082840312156144fc576144fb613ca1565b5b61450660a0613d06565b9050600061451684828501613667565b600083015250602082013567ffffffffffffffff81111561453a57614539613d21565b5b61454684828501613db2565b602083015250604061455a84828501613667565b604083015250606061456e84828501613667565b606083015250608082013567ffffffffffffffff81111561459257614591613d21565b5b61459e84828501613db2565b60808301525092915050565b600060a082840312156145c0576145bf613ca1565b5b6145ca60a0613d06565b905060006145da84828501613667565b60008301525060206145ee84828501613667565b602083015250604082013567ffffffffffffffff81111561461257614611613d21565b5b61461e84828501613db2565b604083015250606082013567ffffffffffffffff81111561464257614641613d21565b5b61464e848285016143c2565b606083015250608082013567ffffffffffffffff81111561467257614671613d21565b5b61467e848285016144e6565b60808301525092915050565b600061469d614698846140f9565b613d06565b905080838252602082019050602084028301858111156146c0576146bf614125565b5b835b8181101561470757803567ffffffffffffffff8111156146e5576146e4613d26565b5b8086016146f289826145aa565b855260208501945050506020810190506146c2565b5050509392505050565b600082601f83011261472657614725613d26565b5b813561473684826020860161468a565b91505092915050565b6000806040838503121561475657614755613646565b5b600083013567ffffffffffffffff8111156147745761477361364b565b5b61478085828601614711565b925050602061479185828601613667565b9150509250929050565b600081519050919050565b600082825260208201905092915050565b6000819050602082019050919050565b600060e0830160008301516147df60008601826136a9565b5060208301516147f260208601826136a9565b506040830151848203604086015261480a8282613718565b915050606083015184820360608601526148248282613718565b915050608083015161483960808601826136a9565b5060a083015184820360a08601526148518282613963565b91505060c083015184820360c086015261486b8282613a01565b9150508091505092915050565b600060a08301600083015161489060008601826136a9565b50602083015184820360208601526148a88282613718565b91505060408301516148bd60408601826136a9565b5060608301516148d060608601826136a9565b50608083015184820360808601526148e88282613718565b9150508091505092915050565b600060a08301600083015161490d60008601826136a9565b50602083015161492060208601826136a9565b50604083015184820360408601526149388282613718565b9150506060830151848203606086015261495282826147c7565b9150506080830151848203608086015261496c8282614878565b9150508091505092915050565b600061498583836148f5565b905092915050565b6000602082019050919050565b60006149a58261479b565b6149af81856147a6565b9350836020820285016149c1856147b7565b8060005b858110156149fd57848403895281516149de8582614979565b94506149e98361498d565b925060208a019950506001810190506149c5565b50829750879550505050505092915050565b60006020820190508181036000830152614a29818461499a565b905092915050565b6000608083016000830151614a4960008601826136a9565b5060208301518482036020860152614a618282613718565b91505060408301518482036040860152614a7b8282613718565b9150506060830151614a9060608601826136a9565b508091505092915050565b600060a083016000830151614ab360008601826136a9565b5060208301518482036020860152614acb8282613718565b91505060408301518482036040860152614ae58282613718565b91505060608301518482036060860152614aff8282613718565b91505060808301518482036080860152614b198282613718565b9150508091505092915050565b600060e082019050614b3b600083018a613612565b614b486020830189613612565b8181036040830152614b5a818861392a565b90508181036060830152614b6e818761392a565b9050614b7d6080830186613612565b81810360a0830152614b8f8185614a31565b905081810360c0830152614ba38184614a9b565b905098975050505050505050565b600081519050919050565b600082825260208201905092915050565b6000819050602082019050919050565b600060e083016000830151614bf560008601826136a9565b506020830151614c0860208601826136a9565b5060408301518482036040860152614c208282613718565b91505060608301518482036060860152614c3a8282613718565b9150506080830151614c4f60808601826136a9565b5060a083015184820360a0860152614c678282613751565b91505060c083015184820360c0860152614c8182826137bb565b9150508091505092915050565b6000614c9a8383614bdd565b905092915050565b6000602082019050919050565b6000614cba82614bb1565b614cc48185614bbc565b935083602082028501614cd685614bcd565b8060005b85811015614d125784840389528151614cf38582614c8e565b9450614cfe83614ca2565b925060208a01995050600181019050614cda565b50829750879550505050505092915050565b60006020820190508181036000830152614d3e8184614caf565b905092915050565b7f4e487b7100000000000000000000000000000000000000000000000000000000600052603260045260246000fd5b7f4e487b7100000000000000000000000000000000000000000000000000000000600052602260045260246000fd5b60006002820490506001821680614dbc57607f821691505b60208210811415614dd057614dcf614d75565b5b50919050565b7f4e487b7100000000000000000000000000000000000000000000000000000000600052601160045260246000fd5b6000614e1082613608565b91507fffffffffffffffffffffffffffffffffffffffffffffffffffffffffffffffff821415614e4357614e42614dd6565b5b60018201905091905056fea2646970667358221220def14b8adab34e7f6a13fc0cc181e2478f114c25867c154b16b49703b8160b0f64736f6c634300080b0033",
  "immutableReferences": {},
  "source": "// SPDX-License-Identifier: MIT\r\npragma solidity >=0.4.22 <0.9.0;\r\nimport \"./Remplissage.sol\";\r\ncontract RemplissageCol is Remplissage{\r\n//*********************************************************************************/\r\n//second app \r\n//******************************************************************************/\r\n\r\nOperationTank[] public operationTank2;\r\n  function addOperationTank(OperationTank[] memory operationTank,uint count) \r\n   public returns (OperationTank[] memory tt0) {\r\n\r\n   for (uint256 i = 0; i < count ; i++) {\r\n   operationTank2.push(operationTank[i]);\r\n}\r\n    return (operationTank2);\r\n  }\r\n\r\n    //get all operations \r\n  \r\n  function getOperationTanks() public view returns (OperationTank[] memory result ) {\r\n    return operationTank2;\r\n  }\r\n}\r\n",
  "sourcePath": "C:\\Users\\ASUS\\Desktop\\pfe\\PFE_Project2022-Collecteur-\\PFE-FrontEnd\\contracts\\RemplissageCol.sol",
  "compiler": {
    "name": "solc",
    "version": "0.8.11+commit.d7f03943.Emscripten.clang"
  },
  "schemaVersion": "3.4.5",
  "updatedAt": "2022-04-21T02:16:43.094Z",
  "networkType": "ethereum",
  "devdoc": {
    "kind": "dev",
    "methods": {},
    "version": 1
  },
  "userdoc": {
    "kind": "user",
    "methods": {},
    "version": 1
  }
}