{
  "contractName": "Remplissage",
  "abi": [
    {
      "inputs": [],
      "stateMutability": "nonpayable",
      "type": "constructor"
    },
    {
      "inputs": [
        {
          "internalType": "uint256",
          "name": "",
          "type": "uint256"
        }
      ],
      "name": "ALLS",
      "outputs": [
        {
          "internalType": "string",
          "name": "",
          "type": "string"
        }
      ],
      "stateMutability": "view",
      "type": "function",
      "constant": true
    },
    {
      "inputs": [],
      "name": "nextID",
      "outputs": [
        {
          "internalType": "uint256",
          "name": "",
          "type": "uint256"
        }
      ],
      "stateMutability": "view",
      "type": "function",
      "constant": true
    },
    {
      "inputs": [
        {
          "internalType": "uint256",
          "name": "",
          "type": "uint256"
        }
      ],
      "name": "operationTank2",
      "outputs": [
        {
          "internalType": "uint256",
          "name": "idOperation",
          "type": "uint256"
        },
        {
          "internalType": "uint256",
          "name": "poidsLait",
          "type": "uint256"
        },
        {
          "internalType": "string",
          "name": "dateOperation",
          "type": "string"
        },
        {
          "internalType": "string",
          "name": "typeOp",
          "type": "string"
        },
        {
          "internalType": "uint256",
          "name": "code",
          "type": "uint256"
        },
        {
          "components": [
            {
              "internalType": "uint256",
              "name": "idAgriculteur",
              "type": "uint256"
            },
            {
              "internalType": "string",
              "name": "nom",
              "type": "string"
            },
            {
              "internalType": "string",
              "name": "prenom",
              "type": "string"
            },
            {
              "internalType": "string",
              "name": "email",
              "type": "string"
            },
            {
              "internalType": "string",
              "name": "adress",
              "type": "string"
            },
            {
              "internalType": "uint256",
              "name": "tel",
              "type": "uint256"
            }
          ],
          "internalType": "struct Remplissage.Agriculteur0",
          "name": "agriculteur",
          "type": "tuple"
        },
        {
          "components": [
            {
              "internalType": "uint256",
              "name": "idChef",
              "type": "uint256"
            },
            {
              "internalType": "string",
              "name": "nom",
              "type": "string"
            },
            {
              "internalType": "string",
              "name": "prenom",
              "type": "string"
            },
            {
              "internalType": "string",
              "name": "email",
              "type": "string"
            },
            {
              "internalType": "string",
              "name": "adress",
              "type": "string"
            },
            {
              "internalType": "uint256",
              "name": "tel",
              "type": "uint256"
            },
            {
              "internalType": "uint256",
              "name": "cin",
              "type": "uint256"
            },
            {
              "internalType": "string",
              "name": "username",
              "type": "string"
            },
            {
              "internalType": "string",
              "name": "password",
              "type": "string"
            }
          ],
          "internalType": "struct Remplissage.Chef",
          "name": "chef",
          "type": "tuple"
        },
        {
          "components": [
            {
              "internalType": "uint256",
              "name": "idTank",
              "type": "uint256"
            },
            {
              "internalType": "string",
              "name": "matricule",
              "type": "string"
            },
            {
              "internalType": "uint256",
              "name": "poidVide",
              "type": "uint256"
            },
            {
              "internalType": "uint256",
              "name": "poidActuel",
              "type": "uint256"
            },
            {
              "internalType": "string",
              "name": "etat",
              "type": "string"
            }
          ],
          "internalType": "struct Remplissage.Tank",
          "name": "tank",
          "type": "tuple"
        }
      ],
      "stateMutability": "view",
      "type": "function",
      "constant": true
    },
    {
      "inputs": [
        {
          "internalType": "uint256",
          "name": "",
          "type": "uint256"
        }
      ],
      "name": "operationTank3",
      "outputs": [
        {
          "internalType": "uint256",
          "name": "idOperation",
          "type": "uint256"
        },
        {
          "internalType": "uint256",
          "name": "poidsLait",
          "type": "uint256"
        },
        {
          "internalType": "string",
          "name": "dateOperation",
          "type": "string"
        },
        {
          "internalType": "string",
          "name": "typeOp",
          "type": "string"
        },
        {
          "internalType": "uint256",
          "name": "code",
          "type": "uint256"
        },
        {
          "components": [
            {
              "internalType": "uint256",
              "name": "idChef",
              "type": "uint256"
            },
            {
              "internalType": "string",
              "name": "nom",
              "type": "string"
            },
            {
              "internalType": "string",
              "name": "prenom",
              "type": "string"
            },
            {
              "internalType": "string",
              "name": "email",
              "type": "string"
            },
            {
              "internalType": "string",
              "name": "adress",
              "type": "string"
            },
            {
              "internalType": "uint256",
              "name": "tel",
              "type": "uint256"
            },
            {
              "internalType": "uint256",
              "name": "cin",
              "type": "uint256"
            },
            {
              "internalType": "string",
              "name": "username",
              "type": "string"
            },
            {
              "internalType": "string",
              "name": "password",
              "type": "string"
            }
          ],
          "internalType": "struct Remplissage.Chef",
          "name": "chef",
          "type": "tuple"
        },
        {
          "components": [
            {
              "internalType": "uint256",
              "name": "idUsine",
              "type": "uint256"
            },
            {
              "internalType": "string",
              "name": "nomUsine",
              "type": "string"
            },
            {
              "internalType": "string",
              "name": "adresse",
              "type": "string"
            }
          ],
          "internalType": "struct Remplissage.Usine",
          "name": "usine",
          "type": "tuple"
        },
        {
          "components": [
            {
              "internalType": "uint256",
              "name": "idTank",
              "type": "uint256"
            },
            {
              "internalType": "string",
              "name": "matricule",
              "type": "string"
            },
            {
              "internalType": "uint256",
              "name": "poidVide",
              "type": "uint256"
            },
            {
              "internalType": "uint256",
              "name": "poidActuel",
              "type": "uint256"
            },
            {
              "internalType": "string",
              "name": "etat",
              "type": "string"
            }
          ],
          "internalType": "struct Remplissage.Tank",
          "name": "tank",
          "type": "tuple"
        }
      ],
      "stateMutability": "view",
      "type": "function",
      "constant": true
    },
    {
      "inputs": [
        {
          "internalType": "uint256",
          "name": "",
          "type": "uint256"
        }
      ],
      "name": "operations2",
      "outputs": [
        {
          "internalType": "uint256",
          "name": "idOperation",
          "type": "uint256"
        },
        {
          "internalType": "uint256",
          "name": "poidsLait",
          "type": "uint256"
        },
        {
          "internalType": "string",
          "name": "dateOperation",
          "type": "string"
        },
        {
          "internalType": "string",
          "name": "typeOp",
          "type": "string"
        },
        {
          "internalType": "uint256",
          "name": "code",
          "type": "uint256"
        },
        {
          "components": [
            {
              "internalType": "uint256",
              "name": "idCollecteur",
              "type": "uint256"
            },
            {
              "internalType": "string",
              "name": "nomCollecteur",
              "type": "string"
            },
            {
              "internalType": "string",
              "name": "adresse",
              "type": "string"
            },
            {
              "internalType": "uint256",
              "name": "tel",
              "type": "uint256"
            }
          ],
          "internalType": "struct Remplissage.Collecteur",
          "name": "collecteur",
          "type": "tuple"
        },
        {
          "components": [
            {
              "internalType": "uint256",
              "name": "idAgriculteur",
              "type": "uint256"
            },
            {
              "internalType": "string",
              "name": "nom",
              "type": "string"
            },
            {
              "internalType": "string",
              "name": "prenom",
              "type": "string"
            },
            {
              "internalType": "string",
              "name": "username",
              "type": "string"
            },
            {
              "internalType": "string",
              "name": "password",
              "type": "string"
            }
          ],
          "internalType": "struct Remplissage.Agriculteur",
          "name": "agriculteur",
          "type": "tuple"
        }
      ],
      "stateMutability": "view",
      "type": "function",
      "constant": true
    },
    {
      "inputs": [
        {
          "components": [
            {
              "internalType": "uint256",
              "name": "idOperation",
              "type": "uint256"
            },
            {
              "internalType": "uint256",
              "name": "poidsLait",
              "type": "uint256"
            },
            {
              "internalType": "string",
              "name": "dateOperation",
              "type": "string"
            },
            {
              "internalType": "string",
              "name": "typeOp",
              "type": "string"
            },
            {
              "internalType": "uint256",
              "name": "code",
              "type": "uint256"
            },
            {
              "components": [
                {
                  "internalType": "uint256",
                  "name": "idCollecteur",
                  "type": "uint256"
                },
                {
                  "internalType": "string",
                  "name": "nomCollecteur",
                  "type": "string"
                },
                {
                  "internalType": "string",
                  "name": "adresse",
                  "type": "string"
                },
                {
                  "internalType": "uint256",
                  "name": "tel",
                  "type": "uint256"
                }
              ],
              "internalType": "struct Remplissage.Collecteur",
              "name": "collecteur",
              "type": "tuple"
            },
            {
              "components": [
                {
                  "internalType": "uint256",
                  "name": "idAgriculteur",
                  "type": "uint256"
                },
                {
                  "internalType": "string",
                  "name": "nom",
                  "type": "string"
                },
                {
                  "internalType": "string",
                  "name": "prenom",
                  "type": "string"
                },
                {
                  "internalType": "string",
                  "name": "username",
                  "type": "string"
                },
                {
                  "internalType": "string",
                  "name": "password",
                  "type": "string"
                }
              ],
              "internalType": "struct Remplissage.Agriculteur",
              "name": "agriculteur",
              "type": "tuple"
            }
          ],
          "internalType": "struct Remplissage.Operation",
          "name": "op",
          "type": "tuple"
        }
      ],
      "name": "addOperation2",
      "outputs": [
        {
          "components": [
            {
              "internalType": "uint256",
              "name": "idOperation",
              "type": "uint256"
            },
            {
              "internalType": "uint256",
              "name": "poidsLait",
              "type": "uint256"
            },
            {
              "internalType": "string",
              "name": "dateOperation",
              "type": "string"
            },
            {
              "internalType": "string",
              "name": "typeOp",
              "type": "string"
            },
            {
              "internalType": "uint256",
              "name": "code",
              "type": "uint256"
            },
            {
              "components": [
                {
                  "internalType": "uint256",
                  "name": "idCollecteur",
                  "type": "uint256"
                },
                {
                  "internalType": "string",
                  "name": "nomCollecteur",
                  "type": "string"
                },
                {
                  "internalType": "string",
                  "name": "adresse",
                  "type": "string"
                },
                {
                  "internalType": "uint256",
                  "name": "tel",
                  "type": "uint256"
                }
              ],
              "internalType": "struct Remplissage.Collecteur",
              "name": "collecteur",
              "type": "tuple"
            },
            {
              "components": [
                {
                  "internalType": "uint256",
                  "name": "idAgriculteur",
                  "type": "uint256"
                },
                {
                  "internalType": "string",
                  "name": "nom",
                  "type": "string"
                },
                {
                  "internalType": "string",
                  "name": "prenom",
                  "type": "string"
                },
                {
                  "internalType": "string",
                  "name": "username",
                  "type": "string"
                },
                {
                  "internalType": "string",
                  "name": "password",
                  "type": "string"
                }
              ],
              "internalType": "struct Remplissage.Agriculteur",
              "name": "agriculteur",
              "type": "tuple"
            }
          ],
          "internalType": "struct Remplissage.Operation",
          "name": "op0",
          "type": "tuple"
        }
      ],
      "stateMutability": "nonpayable",
      "type": "function"
    },
    {
      "inputs": [],
      "name": "getOperations",
      "outputs": [
        {
          "components": [
            {
              "internalType": "uint256",
              "name": "idOperation",
              "type": "uint256"
            },
            {
              "internalType": "uint256",
              "name": "poidsLait",
              "type": "uint256"
            },
            {
              "internalType": "string",
              "name": "dateOperation",
              "type": "string"
            },
            {
              "internalType": "string",
              "name": "typeOp",
              "type": "string"
            },
            {
              "internalType": "uint256",
              "name": "code",
              "type": "uint256"
            },
            {
              "components": [
                {
                  "internalType": "uint256",
                  "name": "idCollecteur",
                  "type": "uint256"
                },
                {
                  "internalType": "string",
                  "name": "nomCollecteur",
                  "type": "string"
                },
                {
                  "internalType": "string",
                  "name": "adresse",
                  "type": "string"
                },
                {
                  "internalType": "uint256",
                  "name": "tel",
                  "type": "uint256"
                }
              ],
              "internalType": "struct Remplissage.Collecteur",
              "name": "collecteur",
              "type": "tuple"
            },
            {
              "components": [
                {
                  "internalType": "uint256",
                  "name": "idAgriculteur",
                  "type": "uint256"
                },
                {
                  "internalType": "string",
                  "name": "nom",
                  "type": "string"
                },
                {
                  "internalType": "string",
                  "name": "prenom",
                  "type": "string"
                },
                {
                  "internalType": "string",
                  "name": "username",
                  "type": "string"
                },
                {
                  "internalType": "string",
                  "name": "password",
                  "type": "string"
                }
              ],
              "internalType": "struct Remplissage.Agriculteur",
              "name": "agriculteur",
              "type": "tuple"
            }
          ],
          "internalType": "struct Remplissage.Operation[]",
          "name": "result",
          "type": "tuple[]"
        }
      ],
      "stateMutability": "view",
      "type": "function",
      "constant": true
    },
    {
      "inputs": [
        {
          "internalType": "uint256",
          "name": "id",
          "type": "uint256"
        }
      ],
      "name": "getOperation",
      "outputs": [
        {
          "components": [
            {
              "internalType": "uint256",
              "name": "idOperation",
              "type": "uint256"
            },
            {
              "internalType": "uint256",
              "name": "poidsLait",
              "type": "uint256"
            },
            {
              "internalType": "string",
              "name": "dateOperation",
              "type": "string"
            },
            {
              "internalType": "string",
              "name": "typeOp",
              "type": "string"
            },
            {
              "internalType": "uint256",
              "name": "code",
              "type": "uint256"
            },
            {
              "components": [
                {
                  "internalType": "uint256",
                  "name": "idCollecteur",
                  "type": "uint256"
                },
                {
                  "internalType": "string",
                  "name": "nomCollecteur",
                  "type": "string"
                },
                {
                  "internalType": "string",
                  "name": "adresse",
                  "type": "string"
                },
                {
                  "internalType": "uint256",
                  "name": "tel",
                  "type": "uint256"
                }
              ],
              "internalType": "struct Remplissage.Collecteur",
              "name": "collecteur",
              "type": "tuple"
            },
            {
              "components": [
                {
                  "internalType": "uint256",
                  "name": "idAgriculteur",
                  "type": "uint256"
                },
                {
                  "internalType": "string",
                  "name": "nom",
                  "type": "string"
                },
                {
                  "internalType": "string",
                  "name": "prenom",
                  "type": "string"
                },
                {
                  "internalType": "string",
                  "name": "username",
                  "type": "string"
                },
                {
                  "internalType": "string",
                  "name": "password",
                  "type": "string"
                }
              ],
              "internalType": "struct Remplissage.Agriculteur",
              "name": "agriculteur",
              "type": "tuple"
            }
          ],
          "internalType": "struct Remplissage.Operation",
          "name": "operation",
          "type": "tuple"
        }
      ],
      "stateMutability": "view",
      "type": "function",
      "constant": true
    },
    {
      "inputs": [
        {
          "components": [
            {
              "internalType": "uint256",
              "name": "idOperation",
              "type": "uint256"
            },
            {
              "internalType": "uint256",
              "name": "poidsLait",
              "type": "uint256"
            },
            {
              "internalType": "string",
              "name": "dateOperation",
              "type": "string"
            },
            {
              "internalType": "string",
              "name": "typeOp",
              "type": "string"
            },
            {
              "internalType": "uint256",
              "name": "code",
              "type": "uint256"
            },
            {
              "components": [
                {
                  "internalType": "uint256",
                  "name": "idAgriculteur",
                  "type": "uint256"
                },
                {
                  "internalType": "string",
                  "name": "nom",
                  "type": "string"
                },
                {
                  "internalType": "string",
                  "name": "prenom",
                  "type": "string"
                },
                {
                  "internalType": "string",
                  "name": "email",
                  "type": "string"
                },
                {
                  "internalType": "string",
                  "name": "adress",
                  "type": "string"
                },
                {
                  "internalType": "uint256",
                  "name": "tel",
                  "type": "uint256"
                }
              ],
              "internalType": "struct Remplissage.Agriculteur0",
              "name": "agriculteur",
              "type": "tuple"
            },
            {
              "components": [
                {
                  "internalType": "uint256",
                  "name": "idChef",
                  "type": "uint256"
                },
                {
                  "internalType": "string",
                  "name": "nom",
                  "type": "string"
                },
                {
                  "internalType": "string",
                  "name": "prenom",
                  "type": "string"
                },
                {
                  "internalType": "string",
                  "name": "email",
                  "type": "string"
                },
                {
                  "internalType": "string",
                  "name": "adress",
                  "type": "string"
                },
                {
                  "internalType": "uint256",
                  "name": "tel",
                  "type": "uint256"
                },
                {
                  "internalType": "uint256",
                  "name": "cin",
                  "type": "uint256"
                },
                {
                  "internalType": "string",
                  "name": "username",
                  "type": "string"
                },
                {
                  "internalType": "string",
                  "name": "password",
                  "type": "string"
                }
              ],
              "internalType": "struct Remplissage.Chef",
              "name": "chef",
              "type": "tuple"
            },
            {
              "components": [
                {
                  "internalType": "uint256",
                  "name": "idTank",
                  "type": "uint256"
                },
                {
                  "internalType": "string",
                  "name": "matricule",
                  "type": "string"
                },
                {
                  "internalType": "uint256",
                  "name": "poidVide",
                  "type": "uint256"
                },
                {
                  "internalType": "uint256",
                  "name": "poidActuel",
                  "type": "uint256"
                },
                {
                  "internalType": "string",
                  "name": "etat",
                  "type": "string"
                }
              ],
              "internalType": "struct Remplissage.Tank",
              "name": "tank",
              "type": "tuple"
            }
          ],
          "internalType": "struct Remplissage.Operation0",
          "name": "operationTank",
          "type": "tuple"
        }
      ],
      "name": "addOperationTank",
      "outputs": [
        {
          "components": [
            {
              "internalType": "uint256",
              "name": "idOperation",
              "type": "uint256"
            },
            {
              "internalType": "uint256",
              "name": "poidsLait",
              "type": "uint256"
            },
            {
              "internalType": "string",
              "name": "dateOperation",
              "type": "string"
            },
            {
              "internalType": "string",
              "name": "typeOp",
              "type": "string"
            },
            {
              "internalType": "uint256",
              "name": "code",
              "type": "uint256"
            },
            {
              "components": [
                {
                  "internalType": "uint256",
                  "name": "idAgriculteur",
                  "type": "uint256"
                },
                {
                  "internalType": "string",
                  "name": "nom",
                  "type": "string"
                },
                {
                  "internalType": "string",
                  "name": "prenom",
                  "type": "string"
                },
                {
                  "internalType": "string",
                  "name": "email",
                  "type": "string"
                },
                {
                  "internalType": "string",
                  "name": "adress",
                  "type": "string"
                },
                {
                  "internalType": "uint256",
                  "name": "tel",
                  "type": "uint256"
                }
              ],
              "internalType": "struct Remplissage.Agriculteur0",
              "name": "agriculteur",
              "type": "tuple"
            },
            {
              "components": [
                {
                  "internalType": "uint256",
                  "name": "idChef",
                  "type": "uint256"
                },
                {
                  "internalType": "string",
                  "name": "nom",
                  "type": "string"
                },
                {
                  "internalType": "string",
                  "name": "prenom",
                  "type": "string"
                },
                {
                  "internalType": "string",
                  "name": "email",
                  "type": "string"
                },
                {
                  "internalType": "string",
                  "name": "adress",
                  "type": "string"
                },
                {
                  "internalType": "uint256",
                  "name": "tel",
                  "type": "uint256"
                },
                {
                  "internalType": "uint256",
                  "name": "cin",
                  "type": "uint256"
                },
                {
                  "internalType": "string",
                  "name": "username",
                  "type": "string"
                },
                {
                  "internalType": "string",
                  "name": "password",
                  "type": "string"
                }
              ],
              "internalType": "struct Remplissage.Chef",
              "name": "chef",
              "type": "tuple"
            },
            {
              "components": [
                {
                  "internalType": "uint256",
                  "name": "idTank",
                  "type": "uint256"
                },
                {
                  "internalType": "string",
                  "name": "matricule",
                  "type": "string"
                },
                {
                  "internalType": "uint256",
                  "name": "poidVide",
                  "type": "uint256"
                },
                {
                  "internalType": "uint256",
                  "name": "poidActuel",
                  "type": "uint256"
                },
                {
                  "internalType": "string",
                  "name": "etat",
                  "type": "string"
                }
              ],
              "internalType": "struct Remplissage.Tank",
              "name": "tank",
              "type": "tuple"
            }
          ],
          "internalType": "struct Remplissage.Operation0",
          "name": "tt0",
          "type": "tuple"
        }
      ],
      "stateMutability": "nonpayable",
      "type": "function"
    },
    {
      "inputs": [
        {
          "components": [
            {
              "internalType": "uint256",
              "name": "idOperation",
              "type": "uint256"
            },
            {
              "internalType": "uint256",
              "name": "poidsLait",
              "type": "uint256"
            },
            {
              "internalType": "string",
              "name": "dateOperation",
              "type": "string"
            },
            {
              "internalType": "string",
              "name": "typeOp",
              "type": "string"
            },
            {
              "internalType": "uint256",
              "name": "code",
              "type": "uint256"
            },
            {
              "components": [
                {
                  "internalType": "uint256",
                  "name": "idChef",
                  "type": "uint256"
                },
                {
                  "internalType": "string",
                  "name": "nom",
                  "type": "string"
                },
                {
                  "internalType": "string",
                  "name": "prenom",
                  "type": "string"
                },
                {
                  "internalType": "string",
                  "name": "email",
                  "type": "string"
                },
                {
                  "internalType": "string",
                  "name": "adress",
                  "type": "string"
                },
                {
                  "internalType": "uint256",
                  "name": "tel",
                  "type": "uint256"
                },
                {
                  "internalType": "uint256",
                  "name": "cin",
                  "type": "uint256"
                },
                {
                  "internalType": "string",
                  "name": "username",
                  "type": "string"
                },
                {
                  "internalType": "string",
                  "name": "password",
                  "type": "string"
                }
              ],
              "internalType": "struct Remplissage.Chef",
              "name": "chef",
              "type": "tuple"
            },
            {
              "components": [
                {
                  "internalType": "uint256",
                  "name": "idUsine",
                  "type": "uint256"
                },
                {
                  "internalType": "string",
                  "name": "nomUsine",
                  "type": "string"
                },
                {
                  "internalType": "string",
                  "name": "adresse",
                  "type": "string"
                }
              ],
              "internalType": "struct Remplissage.Usine",
              "name": "usine",
              "type": "tuple"
            },
            {
              "components": [
                {
                  "internalType": "uint256",
                  "name": "idTank",
                  "type": "uint256"
                },
                {
                  "internalType": "string",
                  "name": "matricule",
                  "type": "string"
                },
                {
                  "internalType": "uint256",
                  "name": "poidVide",
                  "type": "uint256"
                },
                {
                  "internalType": "uint256",
                  "name": "poidActuel",
                  "type": "uint256"
                },
                {
                  "internalType": "string",
                  "name": "etat",
                  "type": "string"
                }
              ],
              "internalType": "struct Remplissage.Tank",
              "name": "tank",
              "type": "tuple"
            }
          ],
          "internalType": "struct Remplissage.Operation01",
          "name": "operationTank",
          "type": "tuple"
        }
      ],
      "name": "addOperationTankRetrait",
      "outputs": [
        {
          "components": [
            {
              "internalType": "uint256",
              "name": "idOperation",
              "type": "uint256"
            },
            {
              "internalType": "uint256",
              "name": "poidsLait",
              "type": "uint256"
            },
            {
              "internalType": "string",
              "name": "dateOperation",
              "type": "string"
            },
            {
              "internalType": "string",
              "name": "typeOp",
              "type": "string"
            },
            {
              "internalType": "uint256",
              "name": "code",
              "type": "uint256"
            },
            {
              "components": [
                {
                  "internalType": "uint256",
                  "name": "idChef",
                  "type": "uint256"
                },
                {
                  "internalType": "string",
                  "name": "nom",
                  "type": "string"
                },
                {
                  "internalType": "string",
                  "name": "prenom",
                  "type": "string"
                },
                {
                  "internalType": "string",
                  "name": "email",
                  "type": "string"
                },
                {
                  "internalType": "string",
                  "name": "adress",
                  "type": "string"
                },
                {
                  "internalType": "uint256",
                  "name": "tel",
                  "type": "uint256"
                },
                {
                  "internalType": "uint256",
                  "name": "cin",
                  "type": "uint256"
                },
                {
                  "internalType": "string",
                  "name": "username",
                  "type": "string"
                },
                {
                  "internalType": "string",
                  "name": "password",
                  "type": "string"
                }
              ],
              "internalType": "struct Remplissage.Chef",
              "name": "chef",
              "type": "tuple"
            },
            {
              "components": [
                {
                  "internalType": "uint256",
                  "name": "idUsine",
                  "type": "uint256"
                },
                {
                  "internalType": "string",
                  "name": "nomUsine",
                  "type": "string"
                },
                {
                  "internalType": "string",
                  "name": "adresse",
                  "type": "string"
                }
              ],
              "internalType": "struct Remplissage.Usine",
              "name": "usine",
              "type": "tuple"
            },
            {
              "components": [
                {
                  "internalType": "uint256",
                  "name": "idTank",
                  "type": "uint256"
                },
                {
                  "internalType": "string",
                  "name": "matricule",
                  "type": "string"
                },
                {
                  "internalType": "uint256",
                  "name": "poidVide",
                  "type": "uint256"
                },
                {
                  "internalType": "uint256",
                  "name": "poidActuel",
                  "type": "uint256"
                },
                {
                  "internalType": "string",
                  "name": "etat",
                  "type": "string"
                }
              ],
              "internalType": "struct Remplissage.Tank",
              "name": "tank",
              "type": "tuple"
            }
          ],
          "internalType": "struct Remplissage.Operation01",
          "name": "tt0",
          "type": "tuple"
        }
      ],
      "stateMutability": "nonpayable",
      "type": "function"
    }
  ],
  "bytecode": "0x6080604052600160025534801561001557600080fd5b50614b06806100256000396000f3fe608060405234801561001057600080fd5b506004361061009e5760003560e01c80637e02505a116100665780637e02505a14610188578063996ba7bb146101b85780639ab8a724146101ee578063f51dfef714610225578063f948e50a146102555761009e565b80631e96917d146100a3578063202e3924146100c15780632fca5529146100f15780635383bbfd14610128578063627d612e14610158575b600080fd5b6100ab610273565b6040516100b89190612fef565b60405180910390f35b6100db60048036038101906100d6919061304a565b610279565b6040516100e891906132c5565b60405180910390f35b61010b6004803603810190610106919061304a565b6107fe565b60405161011f989796959493929190613534565b60405180910390f35b610142600480360381019061013d919061304a565b6110ad565b60405161014f91906135d5565b60405180910390f35b610172600480360381019061016d9190613a06565b611159565b60405161017f91906132c5565b60405180910390f35b6101a2600480360381019061019d9190613e8d565b6113b7565b6040516101af919061415e565b60405180910390f35b6101d260048036038101906101cd919061304a565b611744565b6040516101e59796959493929190614275565b60405180910390f35b6102086004803603810190610203919061304a565b611c44565b60405161021c989796959493929190614357565b60405180910390f35b61023f600480360381019061023a919061465e565b6123c5565b60405161024c9190614811565b60405180910390f35b61025d6127c0565b60405161026a91906149a6565b60405180910390f35b60025481565b610281612d13565b60005b6002548110156107f75782600082815481106102a3576102a26149c8565b5b90600052602060002090600e02016000015414156107e457600081815481106102cf576102ce6149c8565b5b90600052602060002090600e02016040518060e0016040529081600082015481526020016001820154815260200160028201805461030c90614a26565b80601f016020809104026020016040519081016040528092919081815260200182805461033890614a26565b80156103855780601f1061035a57610100808354040283529160200191610385565b820191906000526020600020905b81548152906001019060200180831161036857829003601f168201915b5050505050815260200160038201805461039e90614a26565b80601f01602080910402602001604051908101604052809291908181526020018280546103ca90614a26565b80156104175780601f106103ec57610100808354040283529160200191610417565b820191906000526020600020905b8154815290600101906020018083116103fa57829003601f168201915b5050505050815260200160048201548152602001600582016040518060800160405290816000820154815260200160018201805461045490614a26565b80601f016020809104026020016040519081016040528092919081815260200182805461048090614a26565b80156104cd5780601f106104a2576101008083540402835291602001916104cd565b820191906000526020600020905b8154815290600101906020018083116104b057829003601f168201915b505050505081526020016002820180546104e690614a26565b80601f016020809104026020016040519081016040528092919081815260200182805461051290614a26565b801561055f5780601f106105345761010080835404028352916020019161055f565b820191906000526020600020905b81548152906001019060200180831161054257829003601f168201915b505050505081526020016003820154815250508152602001600982016040518060a0016040529081600082015481526020016001820180546105a090614a26565b80601f01602080910402602001604051908101604052809291908181526020018280546105cc90614a26565b80156106195780601f106105ee57610100808354040283529160200191610619565b820191906000526020600020905b8154815290600101906020018083116105fc57829003601f168201915b5050505050815260200160028201805461063290614a26565b80601f016020809104026020016040519081016040528092919081815260200182805461065e90614a26565b80156106ab5780601f10610680576101008083540402835291602001916106ab565b820191906000526020600020905b81548152906001019060200180831161068e57829003601f168201915b505050505081526020016003820180546106c490614a26565b80601f01602080910402602001604051908101604052809291908181526020018280546106f090614a26565b801561073d5780601f106107125761010080835404028352916020019161073d565b820191906000526020600020905b81548152906001019060200180831161072057829003601f168201915b5050505050815260200160048201805461075690614a26565b80601f016020809104026020016040519081016040528092919081815260200182805461078290614a26565b80156107cf5780601f106107a4576101008083540402835291602001916107cf565b820191906000526020600020905b8154815290600101906020018083116107b257829003601f168201915b505050505081525050815250509150506107f9565b80806107ef90614a87565b915050610284565b505b919050565b6003818154811061080e57600080fd5b906000526020600020906019020160009150905080600001549080600101549080600201805461083d90614a26565b80601f016020809104026020016040519081016040528092919081815260200182805461086990614a26565b80156108b65780601f1061088b576101008083540402835291602001916108b6565b820191906000526020600020905b81548152906001019060200180831161089957829003601f168201915b5050505050908060030180546108cb90614a26565b80601f01602080910402602001604051908101604052809291908181526020018280546108f790614a26565b80156109445780601f1061091957610100808354040283529160200191610944565b820191906000526020600020905b81548152906001019060200180831161092757829003601f168201915b505050505090806004015490806005016040518060c00160405290816000820154815260200160018201805461097990614a26565b80601f01602080910402602001604051908101604052809291908181526020018280546109a590614a26565b80156109f25780601f106109c7576101008083540402835291602001916109f2565b820191906000526020600020905b8154815290600101906020018083116109d557829003601f168201915b50505050508152602001600282018054610a0b90614a26565b80601f0160208091040260200160405190810160405280929190818152602001828054610a3790614a26565b8015610a845780601f10610a5957610100808354040283529160200191610a84565b820191906000526020600020905b815481529060010190602001808311610a6757829003601f168201915b50505050508152602001600382018054610a9d90614a26565b80601f0160208091040260200160405190810160405280929190818152602001828054610ac990614a26565b8015610b165780601f10610aeb57610100808354040283529160200191610b16565b820191906000526020600020905b815481529060010190602001808311610af957829003601f168201915b50505050508152602001600482018054610b2f90614a26565b80601f0160208091040260200160405190810160405280929190818152602001828054610b5b90614a26565b8015610ba85780601f10610b7d57610100808354040283529160200191610ba8565b820191906000526020600020905b815481529060010190602001808311610b8b57829003601f168201915b505050505081526020016005820154815250509080600b016040518061012001604052908160008201548152602001600182018054610be690614a26565b80601f0160208091040260200160405190810160405280929190818152602001828054610c1290614a26565b8015610c5f5780601f10610c3457610100808354040283529160200191610c5f565b820191906000526020600020905b815481529060010190602001808311610c4257829003601f168201915b50505050508152602001600282018054610c7890614a26565b80601f0160208091040260200160405190810160405280929190818152602001828054610ca490614a26565b8015610cf15780601f10610cc657610100808354040283529160200191610cf1565b820191906000526020600020905b815481529060010190602001808311610cd457829003601f168201915b50505050508152602001600382018054610d0a90614a26565b80601f0160208091040260200160405190810160405280929190818152602001828054610d3690614a26565b8015610d835780601f10610d5857610100808354040283529160200191610d83565b820191906000526020600020905b815481529060010190602001808311610d6657829003601f168201915b50505050508152602001600482018054610d9c90614a26565b80601f0160208091040260200160405190810160405280929190818152602001828054610dc890614a26565b8015610e155780601f10610dea57610100808354040283529160200191610e15565b820191906000526020600020905b815481529060010190602001808311610df857829003601f168201915b505050505081526020016005820154815260200160068201548152602001600782018054610e4290614a26565b80601f0160208091040260200160405190810160405280929190818152602001828054610e6e90614a26565b8015610ebb5780601f10610e9057610100808354040283529160200191610ebb565b820191906000526020600020905b815481529060010190602001808311610e9e57829003601f168201915b50505050508152602001600882018054610ed490614a26565b80601f0160208091040260200160405190810160405280929190818152602001828054610f0090614a26565b8015610f4d5780601f10610f2257610100808354040283529160200191610f4d565b820191906000526020600020905b815481529060010190602001808311610f3057829003601f168201915b50505050508152505090806014016040518060a001604052908160008201548152602001600182018054610f8090614a26565b80601f0160208091040260200160405190810160405280929190818152602001828054610fac90614a26565b8015610ff95780601f10610fce57610100808354040283529160200191610ff9565b820191906000526020600020905b815481529060010190602001808311610fdc57829003601f168201915b50505050508152602001600282015481526020016003820154815260200160048201805461102690614a26565b80601f016020809104026020016040519081016040528092919081815260200182805461105290614a26565b801561109f5780601f106110745761010080835404028352916020019161109f565b820191906000526020600020905b81548152906001019060200180831161108257829003601f168201915b505050505081525050905088565b600181815481106110bd57600080fd5b9060005260206000200160009150905080546110d890614a26565b80601f016020809104026020016040519081016040528092919081815260200182805461110490614a26565b80156111515780601f1061112657610100808354040283529160200191611151565b820191906000526020600020905b81548152906001019060200180831161113457829003601f168201915b505050505081565b611161612d13565b60006040518060a001604052808460c001516000015181526020018460c001516020015181526020018460c001516040015181526020018460c001516060015181526020018460c00151608001518152509050600060405180608001604052808560a001516000015181526020018560a001516020015181526020018560a001516040015181526020018560a0015160600151815250905060006040518060e00160405280866000015181526020018660200151815260200186604001518152602001866060015181526020018660800151815260200183815260200184815250905060008190806001815401808255809150506001900390600052602060002090600e0201600090919091909150600082015181600001556020820151816001015560408201518160020190805190602001906112a0929190612d5c565b5060608201518160030190805190602001906112bd929190612d5c565b506080820151816004015560a0820151816005016000820151816000015560208201518160010190805190602001906112f7929190612d5c565b506040820151816002019080519060200190611314929190612d5c565b5060608201518160030155505060c082015181600901600082015181600001556020820151816001019080519060200190611350929190612d5c565b50604082015181600201908051906020019061136d929190612d5c565b50606082015181600301908051906020019061138a929190612d5c565b5060808201518160040190805190602001906113a7929190612d5c565b5050505050809350505050919050565b6113bf612de2565b60006040518060a001604052808460e001516000015181526020018460e001516020015181526020018460e001516040015181526020018460e001516060015181526020018460e0015160800151815250905060006040518061012001604052808560a001516000015181526020018560a001516020015181526020018560a001516040015181526020018560a001516060015181526020018560a001516080015181526020018560a0015160a0015181526020018560a0015160c0015181526020018560a0015160e0015181526020018560a0015161010001518152509050600060405180606001604052808660c001516000015181526020018660c001516020015181526020018660c0015160400151815250905060006040518061010001604052808760000151815260200187602001518152602001876040015181526020018760600151815260200187608001518152602001848152602001838152602001858152509050600481908060018154018082558091505060019003906000526020600020906016020160009091909190915060008201518160000155602082015181600101556040820151816002019080519060200190611584929190612d5c565b5060608201518160030190805190602001906115a1929190612d5c565b506080820151816004015560a0820151816005016000820151816000015560208201518160010190805190602001906115db929190612d5c565b5060408201518160020190805190602001906115f8929190612d5c565b506060820151816003019080519060200190611615929190612d5c565b506080820151816004019080519060200190611632929190612d5c565b5060a0820151816005015560c0820151816006015560e0820151816007019080519060200190611663929190612d5c565b50610100820151816008019080519060200190611681929190612d5c565b50505060c082015181600e016000820151816000015560208201518160010190805190602001906116b3929190612d5c565b5060408201518160020190805190602001906116d0929190612d5c565b50505060e082015181601101600082015181600001556020820151816001019080519060200190611702929190612d5c565b5060408201518160020155606082015181600301556080820151816004019080519060200190611733929190612d5c565b505050505080945050505050919050565b6000818154811061175457600080fd5b90600052602060002090600e020160009150905080600001549080600101549080600201805461178390614a26565b80601f01602080910402602001604051908101604052809291908181526020018280546117af90614a26565b80156117fc5780601f106117d1576101008083540402835291602001916117fc565b820191906000526020600020905b8154815290600101906020018083116117df57829003601f168201915b50505050509080600301805461181190614a26565b80601f016020809104026020016040519081016040528092919081815260200182805461183d90614a26565b801561188a5780601f1061185f5761010080835404028352916020019161188a565b820191906000526020600020905b81548152906001019060200180831161186d57829003601f168201915b50505050509080600401549080600501604051806080016040529081600082015481526020016001820180546118bf90614a26565b80601f01602080910402602001604051908101604052809291908181526020018280546118eb90614a26565b80156119385780601f1061190d57610100808354040283529160200191611938565b820191906000526020600020905b81548152906001019060200180831161191b57829003601f168201915b5050505050815260200160028201805461195190614a26565b80601f016020809104026020016040519081016040528092919081815260200182805461197d90614a26565b80156119ca5780601f1061199f576101008083540402835291602001916119ca565b820191906000526020600020905b8154815290600101906020018083116119ad57829003601f168201915b5050505050815260200160038201548152505090806009016040518060a001604052908160008201548152602001600182018054611a0790614a26565b80601f0160208091040260200160405190810160405280929190818152602001828054611a3390614a26565b8015611a805780601f10611a5557610100808354040283529160200191611a80565b820191906000526020600020905b815481529060010190602001808311611a6357829003601f168201915b50505050508152602001600282018054611a9990614a26565b80601f0160208091040260200160405190810160405280929190818152602001828054611ac590614a26565b8015611b125780601f10611ae757610100808354040283529160200191611b12565b820191906000526020600020905b815481529060010190602001808311611af557829003601f168201915b50505050508152602001600382018054611b2b90614a26565b80601f0160208091040260200160405190810160405280929190818152602001828054611b5790614a26565b8015611ba45780601f10611b7957610100808354040283529160200191611ba4565b820191906000526020600020905b815481529060010190602001808311611b8757829003601f168201915b50505050508152602001600482018054611bbd90614a26565b80601f0160208091040260200160405190810160405280929190818152602001828054611be990614a26565b8015611c365780601f10611c0b57610100808354040283529160200191611c36565b820191906000526020600020905b815481529060010190602001808311611c1957829003601f168201915b505050505081525050905087565b60048181548110611c5457600080fd5b9060005260206000209060160201600091509050806000015490806001015490806002018054611c8390614a26565b80601f0160208091040260200160405190810160405280929190818152602001828054611caf90614a26565b8015611cfc5780601f10611cd157610100808354040283529160200191611cfc565b820191906000526020600020905b815481529060010190602001808311611cdf57829003601f168201915b505050505090806003018054611d1190614a26565b80601f0160208091040260200160405190810160405280929190818152602001828054611d3d90614a26565b8015611d8a5780601f10611d5f57610100808354040283529160200191611d8a565b820191906000526020600020905b815481529060010190602001808311611d6d57829003601f168201915b505050505090806004015490806005016040518061012001604052908160008201548152602001600182018054611dc090614a26565b80601f0160208091040260200160405190810160405280929190818152602001828054611dec90614a26565b8015611e395780601f10611e0e57610100808354040283529160200191611e39565b820191906000526020600020905b815481529060010190602001808311611e1c57829003601f168201915b50505050508152602001600282018054611e5290614a26565b80601f0160208091040260200160405190810160405280929190818152602001828054611e7e90614a26565b8015611ecb5780601f10611ea057610100808354040283529160200191611ecb565b820191906000526020600020905b815481529060010190602001808311611eae57829003601f168201915b50505050508152602001600382018054611ee490614a26565b80601f0160208091040260200160405190810160405280929190818152602001828054611f1090614a26565b8015611f5d5780601f10611f3257610100808354040283529160200191611f5d565b820191906000526020600020905b815481529060010190602001808311611f4057829003601f168201915b50505050508152602001600482018054611f7690614a26565b80601f0160208091040260200160405190810160405280929190818152602001828054611fa290614a26565b8015611fef5780601f10611fc457610100808354040283529160200191611fef565b820191906000526020600020905b815481529060010190602001808311611fd257829003601f168201915b50505050508152602001600582015481526020016006820154815260200160078201805461201c90614a26565b80601f016020809104026020016040519081016040528092919081815260200182805461204890614a26565b80156120955780601f1061206a57610100808354040283529160200191612095565b820191906000526020600020905b81548152906001019060200180831161207857829003601f168201915b505050505081526020016008820180546120ae90614a26565b80601f01602080910402602001604051908101604052809291908181526020018280546120da90614a26565b80156121275780601f106120fc57610100808354040283529160200191612127565b820191906000526020600020905b81548152906001019060200180831161210a57829003601f168201915b5050505050815250509080600e016040518060600160405290816000820154815260200160018201805461215a90614a26565b80601f016020809104026020016040519081016040528092919081815260200182805461218690614a26565b80156121d35780601f106121a8576101008083540402835291602001916121d3565b820191906000526020600020905b8154815290600101906020018083116121b657829003601f168201915b505050505081526020016002820180546121ec90614a26565b80601f016020809104026020016040519081016040528092919081815260200182805461221890614a26565b80156122655780601f1061223a57610100808354040283529160200191612265565b820191906000526020600020905b81548152906001019060200180831161224857829003601f168201915b50505050508152505090806011016040518060a00160405290816000820154815260200160018201805461229890614a26565b80601f01602080910402602001604051908101604052809291908181526020018280546122c490614a26565b80156123115780601f106122e657610100808354040283529160200191612311565b820191906000526020600020905b8154815290600101906020018083116122f457829003601f168201915b50505050508152602001600282015481526020016003820154815260200160048201805461233e90614a26565b80601f016020809104026020016040519081016040528092919081815260200182805461236a90614a26565b80156123b75780601f1061238c576101008083540402835291602001916123b7565b820191906000526020600020905b81548152906001019060200180831161239a57829003601f168201915b505050505081525050905088565b6123cd612e39565b60006040518060a001604052808460e001516000015181526020018460e001516020015181526020018460e001516040015181526020018460e001516060015181526020018460e0015160800151815250905060006040518060c001604052808560a001516000015181526020018560a001516020015181526020018560a001516040015181526020018560a001516060015181526020018560a001516080015181526020018560a0015160a00151815250905060006040518061012001604052808660c001516000015181526020018660c001516020015181526020018660c001516040015181526020018660c001516060015181526020018660c001516080015181526020018660c0015160a0015181526020018660c0015160c0015181526020018660c0015160e0015181526020018660c0015161010001518152509050600060405180610100016040528087600001518152602001876020015181526020018760400151815260200187606001518152602001876080015181526020018481526020018381526020018581525090506003819080600181540180825580915050600190039060005260206000209060190201600090919091909150600082015181600001556020820151816001015560408201518160020190805190602001906125bc929190612d5c565b5060608201518160030190805190602001906125d9929190612d5c565b506080820151816004015560a082015181600501600082015181600001556020820151816001019080519060200190612613929190612d5c565b506040820151816002019080519060200190612630929190612d5c565b50606082015181600301908051906020019061264d929190612d5c565b50608082015181600401908051906020019061266a929190612d5c565b5060a08201518160050155505060c082015181600b016000820151816000015560208201518160010190805190602001906126a6929190612d5c565b5060408201518160020190805190602001906126c3929190612d5c565b5060608201518160030190805190602001906126e0929190612d5c565b5060808201518160040190805190602001906126fd929190612d5c565b5060a0820151816005015560c0820151816006015560e082015181600701908051906020019061272e929190612d5c565b5061010082015181600801908051906020019061274c929190612d5c565b50505060e08201518160140160008201518160000155602082015181600101908051906020019061277e929190612d5c565b50604082015181600201556060820151816003015560808201518160040190805190602001906127af929190612d5c565b505050505080945050505050919050565b60606000805480602002602001604051908101604052809291908181526020016000905b82821015612d0a57838290600052602060002090600e02016040518060e0016040529081600082015481526020016001820154815260200160028201805461282b90614a26565b80601f016020809104026020016040519081016040528092919081815260200182805461285790614a26565b80156128a45780601f10612879576101008083540402835291602001916128a4565b820191906000526020600020905b81548152906001019060200180831161288757829003601f168201915b505050505081526020016003820180546128bd90614a26565b80601f01602080910402602001604051908101604052809291908181526020018280546128e990614a26565b80156129365780601f1061290b57610100808354040283529160200191612936565b820191906000526020600020905b81548152906001019060200180831161291957829003601f168201915b5050505050815260200160048201548152602001600582016040518060800160405290816000820154815260200160018201805461297390614a26565b80601f016020809104026020016040519081016040528092919081815260200182805461299f90614a26565b80156129ec5780601f106129c1576101008083540402835291602001916129ec565b820191906000526020600020905b8154815290600101906020018083116129cf57829003601f168201915b50505050508152602001600282018054612a0590614a26565b80601f0160208091040260200160405190810160405280929190818152602001828054612a3190614a26565b8015612a7e5780601f10612a5357610100808354040283529160200191612a7e565b820191906000526020600020905b815481529060010190602001808311612a6157829003601f168201915b505050505081526020016003820154815250508152602001600982016040518060a001604052908160008201548152602001600182018054612abf90614a26565b80601f0160208091040260200160405190810160405280929190818152602001828054612aeb90614a26565b8015612b385780601f10612b0d57610100808354040283529160200191612b38565b820191906000526020600020905b815481529060010190602001808311612b1b57829003601f168201915b50505050508152602001600282018054612b5190614a26565b80601f0160208091040260200160405190810160405280929190818152602001828054612b7d90614a26565b8015612bca5780601f10612b9f57610100808354040283529160200191612bca565b820191906000526020600020905b815481529060010190602001808311612bad57829003601f168201915b50505050508152602001600382018054612be390614a26565b80601f0160208091040260200160405190810160405280929190818152602001828054612c0f90614a26565b8015612c5c5780601f10612c3157610100808354040283529160200191612c5c565b820191906000526020600020905b815481529060010190602001808311612c3f57829003601f168201915b50505050508152602001600482018054612c7590614a26565b80601f0160208091040260200160405190810160405280929190818152602001828054612ca190614a26565b8015612cee5780601f10612cc357610100808354040283529160200191612cee565b820191906000526020600020905b815481529060010190602001808311612cd157829003601f168201915b50505050508152505081525050815260200190600101906127e4565b50505050905090565b6040518060e001604052806000815260200160008152602001606081526020016060815260200160008152602001612d49612e90565b8152602001612d56612eb8565b81525090565b828054612d6890614a26565b90600052602060002090601f016020900481019282612d8a5760008555612dd1565b82601f10612da357805160ff1916838001178555612dd1565b82800160010185558215612dd1579182015b82811115612dd0578251825591602001919060010190612db5565b5b509050612dde9190612ee7565b5090565b6040518061010001604052806000815260200160008152602001606081526020016060815260200160008152602001612e19612f04565b8152602001612e26612f50565b8152602001612e33612f71565b81525090565b6040518061010001604052806000815260200160008152602001606081526020016060815260200160008152602001612e70612fa0565b8152602001612e7d612f04565b8152602001612e8a612f71565b81525090565b6040518060800160405280600081526020016060815260200160608152602001600081525090565b6040518060a0016040528060008152602001606081526020016060815260200160608152602001606081525090565b5b80821115612f00576000816000905550600101612ee8565b5090565b6040518061012001604052806000815260200160608152602001606081526020016060815260200160608152602001600081526020016000815260200160608152602001606081525090565b60405180606001604052806000815260200160608152602001606081525090565b6040518060a0016040528060008152602001606081526020016000815260200160008152602001606081525090565b6040518060c001604052806000815260200160608152602001606081526020016060815260200160608152602001600081525090565b6000819050919050565b612fe981612fd6565b82525050565b60006020820190506130046000830184612fe0565b92915050565b6000604051905090565b600080fd5b600080fd5b61302781612fd6565b811461303257600080fd5b50565b6000813590506130448161301e565b92915050565b6000602082840312156130605761305f613014565b5b600061306e84828501613035565b91505092915050565b61308081612fd6565b82525050565b600081519050919050565b600082825260208201905092915050565b60005b838110156130c05780820151818401526020810190506130a5565b838111156130cf576000848401525b50505050565b6000601f19601f8301169050919050565b60006130f182613086565b6130fb8185613091565b935061310b8185602086016130a2565b613114816130d5565b840191505092915050565b60006080830160008301516131376000860182613077565b506020830151848203602086015261314f82826130e6565b9150506040830151848203604086015261316982826130e6565b915050606083015161317e6060860182613077565b508091505092915050565b600060a0830160008301516131a16000860182613077565b50602083015184820360208601526131b982826130e6565b915050604083015184820360408601526131d382826130e6565b915050606083015184820360608601526131ed82826130e6565b9150506080830151848203608086015261320782826130e6565b9150508091505092915050565b600060e08301600083015161322c6000860182613077565b50602083015161323f6020860182613077565b506040830151848203604086015261325782826130e6565b9150506060830151848203606086015261327182826130e6565b91505060808301516132866080860182613077565b5060a083015184820360a086015261329e828261311f565b91505060c083015184820360c08601526132b88282613189565b9150508091505092915050565b600060208201905081810360008301526132df8184613214565b905092915050565b600082825260208201905092915050565b600061330382613086565b61330d81856132e7565b935061331d8185602086016130a2565b613326816130d5565b840191505092915050565b600060c0830160008301516133496000860182613077565b506020830151848203602086015261336182826130e6565b9150506040830151848203604086015261337b82826130e6565b9150506060830151848203606086015261339582826130e6565b915050608083015184820360808601526133af82826130e6565b91505060a08301516133c460a0860182613077565b508091505092915050565b6000610120830160008301516133e86000860182613077565b506020830151848203602086015261340082826130e6565b9150506040830151848203604086015261341a82826130e6565b9150506060830151848203606086015261343482826130e6565b9150506080830151848203608086015261344e82826130e6565b91505060a083015161346360a0860182613077565b5060c083015161347660c0860182613077565b5060e083015184820360e086015261348e82826130e6565b9150506101008301518482036101008601526134aa82826130e6565b9150508091505092915050565b600060a0830160008301516134cf6000860182613077565b50602083015184820360208601526134e782826130e6565b91505060408301516134fc6040860182613077565b50606083015161350f6060860182613077565b506080830151848203608086015261352782826130e6565b9150508091505092915050565b60006101008201905061354a600083018b612fe0565b613557602083018a612fe0565b818103604083015261356981896132f8565b9050818103606083015261357d81886132f8565b905061358c6080830187612fe0565b81810360a083015261359e8186613331565b905081810360c08301526135b281856133cf565b905081810360e08301526135c681846134b7565b90509998505050505050505050565b600060208201905081810360008301526135ef81846132f8565b905092915050565b600080fd5b7f4e487b7100000000000000000000000000000000000000000000000000000000600052604160045260246000fd5b613634826130d5565b810181811067ffffffffffffffff82111715613653576136526135fc565b5b80604052505050565b600061366661300a565b9050613672828261362b565b919050565b600080fd5b600080fd5b600080fd5b600067ffffffffffffffff8211156136a1576136a06135fc565b5b6136aa826130d5565b9050602081019050919050565b82818337600083830152505050565b60006136d96136d484613686565b61365c565b9050828152602081018484840111156136f5576136f4613681565b5b6137008482856136b7565b509392505050565b600082601f83011261371d5761371c61367c565b5b813561372d8482602086016136c6565b91505092915050565b60006080828403121561374c5761374b6135f7565b5b613756608061365c565b9050600061376684828501613035565b600083015250602082013567ffffffffffffffff81111561378a57613789613677565b5b61379684828501613708565b602083015250604082013567ffffffffffffffff8111156137ba576137b9613677565b5b6137c684828501613708565b60408301525060606137da84828501613035565b60608301525092915050565b600060a082840312156137fc576137fb6135f7565b5b61380660a061365c565b9050600061381684828501613035565b600083015250602082013567ffffffffffffffff81111561383a57613839613677565b5b61384684828501613708565b602083015250604082013567ffffffffffffffff81111561386a57613869613677565b5b61387684828501613708565b604083015250606082013567ffffffffffffffff81111561389a57613899613677565b5b6138a684828501613708565b606083015250608082013567ffffffffffffffff8111156138ca576138c9613677565b5b6138d684828501613708565b60808301525092915050565b600060e082840312156138f8576138f76135f7565b5b61390260e061365c565b9050600061391284828501613035565b600083015250602061392684828501613035565b602083015250604082013567ffffffffffffffff81111561394a57613949613677565b5b61395684828501613708565b604083015250606082013567ffffffffffffffff81111561397a57613979613677565b5b61398684828501613708565b606083015250608061399a84828501613035565b60808301525060a082013567ffffffffffffffff8111156139be576139bd613677565b5b6139ca84828501613736565b60a08301525060c082013567ffffffffffffffff8111156139ee576139ed613677565b5b6139fa848285016137e6565b60c08301525092915050565b600060208284031215613a1c57613a1b613014565b5b600082013567ffffffffffffffff811115613a3a57613a39613019565b5b613a46848285016138e2565b91505092915050565b60006101208284031215613a6657613a656135f7565b5b613a7161012061365c565b90506000613a8184828501613035565b600083015250602082013567ffffffffffffffff811115613aa557613aa4613677565b5b613ab184828501613708565b602083015250604082013567ffffffffffffffff811115613ad557613ad4613677565b5b613ae184828501613708565b604083015250606082013567ffffffffffffffff811115613b0557613b04613677565b5b613b1184828501613708565b606083015250608082013567ffffffffffffffff811115613b3557613b34613677565b5b613b4184828501613708565b60808301525060a0613b5584828501613035565b60a08301525060c0613b6984828501613035565b60c08301525060e082013567ffffffffffffffff811115613b8d57613b8c613677565b5b613b9984828501613708565b60e08301525061010082013567ffffffffffffffff811115613bbe57613bbd613677565b5b613bca84828501613708565b6101008301525092915050565b600060608284031215613bed57613bec6135f7565b5b613bf7606061365c565b90506000613c0784828501613035565b600083015250602082013567ffffffffffffffff811115613c2b57613c2a613677565b5b613c3784828501613708565b602083015250604082013567ffffffffffffffff811115613c5b57613c5a613677565b5b613c6784828501613708565b60408301525092915050565b600060a08284031215613c8957613c886135f7565b5b613c9360a061365c565b90506000613ca384828501613035565b600083015250602082013567ffffffffffffffff811115613cc757613cc6613677565b5b613cd384828501613708565b6020830152506040613ce784828501613035565b6040830152506060613cfb84828501613035565b606083015250608082013567ffffffffffffffff811115613d1f57613d1e613677565b5b613d2b84828501613708565b60808301525092915050565b60006101008284031215613d4e57613d4d6135f7565b5b613d5961010061365c565b90506000613d6984828501613035565b6000830152506020613d7d84828501613035565b602083015250604082013567ffffffffffffffff811115613da157613da0613677565b5b613dad84828501613708565b604083015250606082013567ffffffffffffffff811115613dd157613dd0613677565b5b613ddd84828501613708565b6060830152506080613df184828501613035565b60808301525060a082013567ffffffffffffffff811115613e1557613e14613677565b5b613e2184828501613a4f565b60a08301525060c082013567ffffffffffffffff811115613e4557613e44613677565b5b613e5184828501613bd7565b60c08301525060e082013567ffffffffffffffff811115613e7557613e74613677565b5b613e8184828501613c73565b60e08301525092915050565b600060208284031215613ea357613ea2613014565b5b600082013567ffffffffffffffff811115613ec157613ec0613019565b5b613ecd84828501613d37565b91505092915050565b600061012083016000830151613eef6000860182613077565b5060208301518482036020860152613f0782826130e6565b91505060408301518482036040860152613f2182826130e6565b91505060608301518482036060860152613f3b82826130e6565b91505060808301518482036080860152613f5582826130e6565b91505060a0830151613f6a60a0860182613077565b5060c0830151613f7d60c0860182613077565b5060e083015184820360e0860152613f9582826130e6565b915050610100830151848203610100860152613fb182826130e6565b9150508091505092915050565b6000606083016000830151613fd66000860182613077565b5060208301518482036020860152613fee82826130e6565b9150506040830151848203604086015261400882826130e6565b9150508091505092915050565b600060a08301600083015161402d6000860182613077565b506020830151848203602086015261404582826130e6565b915050604083015161405a6040860182613077565b50606083015161406d6060860182613077565b506080830151848203608086015261408582826130e6565b9150508091505092915050565b6000610100830160008301516140ab6000860182613077565b5060208301516140be6020860182613077565b50604083015184820360408601526140d682826130e6565b915050606083015184820360608601526140f082826130e6565b91505060808301516141056080860182613077565b5060a083015184820360a086015261411d8282613ed6565b91505060c083015184820360c08601526141378282613fbe565b91505060e083015184820360e08601526141518282614015565b9150508091505092915050565b600060208201905081810360008301526141788184614092565b905092915050565b60006080830160008301516141986000860182613077565b50602083015184820360208601526141b082826130e6565b915050604083015184820360408601526141ca82826130e6565b91505060608301516141df6060860182613077565b508091505092915050565b600060a0830160008301516142026000860182613077565b506020830151848203602086015261421a82826130e6565b9150506040830151848203604086015261423482826130e6565b9150506060830151848203606086015261424e82826130e6565b9150506080830151848203608086015261426882826130e6565b9150508091505092915050565b600060e08201905061428a600083018a612fe0565b6142976020830189612fe0565b81810360408301526142a981886132f8565b905081810360608301526142bd81876132f8565b90506142cc6080830186612fe0565b81810360a08301526142de8185614180565b905081810360c08301526142f281846141ea565b905098975050505050505050565b60006060830160008301516143186000860182613077565b506020830151848203602086015261433082826130e6565b9150506040830151848203604086015261434a82826130e6565b9150508091505092915050565b60006101008201905061436d600083018b612fe0565b61437a602083018a612fe0565b818103604083015261438c81896132f8565b905081810360608301526143a081886132f8565b90506143af6080830187612fe0565b81810360a08301526143c181866133cf565b905081810360c08301526143d58185614300565b905081810360e08301526143e981846134b7565b90509998505050505050505050565b600060c0828403121561440e5761440d6135f7565b5b61441860c061365c565b9050600061442884828501613035565b600083015250602082013567ffffffffffffffff81111561444c5761444b613677565b5b61445884828501613708565b602083015250604082013567ffffffffffffffff81111561447c5761447b613677565b5b61448884828501613708565b604083015250606082013567ffffffffffffffff8111156144ac576144ab613677565b5b6144b884828501613708565b606083015250608082013567ffffffffffffffff8111156144dc576144db613677565b5b6144e884828501613708565b60808301525060a06144fc84828501613035565b60a08301525092915050565b6000610100828403121561451f5761451e6135f7565b5b61452a61010061365c565b9050600061453a84828501613035565b600083015250602061454e84828501613035565b602083015250604082013567ffffffffffffffff81111561457257614571613677565b5b61457e84828501613708565b604083015250606082013567ffffffffffffffff8111156145a2576145a1613677565b5b6145ae84828501613708565b60608301525060806145c284828501613035565b60808301525060a082013567ffffffffffffffff8111156145e6576145e5613677565b5b6145f2848285016143f8565b60a08301525060c082013567ffffffffffffffff81111561461657614615613677565b5b61462284828501613a4f565b60c08301525060e082013567ffffffffffffffff81111561464657614645613677565b5b61465284828501613c73565b60e08301525092915050565b60006020828403121561467457614673613014565b5b600082013567ffffffffffffffff81111561469257614691613019565b5b61469e84828501614508565b91505092915050565b600060c0830160008301516146bf6000860182613077565b50602083015184820360208601526146d782826130e6565b915050604083015184820360408601526146f182826130e6565b9150506060830151848203606086015261470b82826130e6565b9150506080830151848203608086015261472582826130e6565b91505060a083015161473a60a0860182613077565b508091505092915050565b60006101008301600083015161475e6000860182613077565b5060208301516147716020860182613077565b506040830151848203604086015261478982826130e6565b915050606083015184820360608601526147a382826130e6565b91505060808301516147b86080860182613077565b5060a083015184820360a08601526147d082826146a7565b91505060c083015184820360c08601526147ea8282613ed6565b91505060e083015184820360e08601526148048282614015565b9150508091505092915050565b6000602082019050818103600083015261482b8184614745565b905092915050565b600081519050919050565b600082825260208201905092915050565b6000819050602082019050919050565b600060e0830160008301516148776000860182613077565b50602083015161488a6020860182613077565b50604083015184820360408601526148a282826130e6565b915050606083015184820360608601526148bc82826130e6565b91505060808301516148d16080860182613077565b5060a083015184820360a08601526148e9828261311f565b91505060c083015184820360c08601526149038282613189565b9150508091505092915050565b600061491c838361485f565b905092915050565b6000602082019050919050565b600061493c82614833565b614946818561483e565b9350836020820285016149588561484f565b8060005b8581101561499457848403895281516149758582614910565b945061498083614924565b925060208a0199505060018101905061495c565b50829750879550505050505092915050565b600060208201905081810360008301526149c08184614931565b905092915050565b7f4e487b7100000000000000000000000000000000000000000000000000000000600052603260045260246000fd5b7f4e487b7100000000000000000000000000000000000000000000000000000000600052602260045260246000fd5b60006002820490506001821680614a3e57607f821691505b60208210811415614a5257614a516149f7565b5b50919050565b7f4e487b7100000000000000000000000000000000000000000000000000000000600052601160045260246000fd5b6000614a9282612fd6565b91507fffffffffffffffffffffffffffffffffffffffffffffffffffffffffffffffff821415614ac557614ac4614a58565b5b60018201905091905056fea2646970667358221220670ad21588e3b657b42bb934f27ceff5eac8b344790821de100d091f370ae0af64736f6c634300080b0033",
  "immutableReferences": {},
  "source": "// SPDX-License-Identifier: MIT\r\npragma solidity >=0.4.22 <0.9.0;\r\ncontract Remplissage{\r\n\r\n struct Tank{\r\n  uint idTank;\r\n  string matricule;\r\n  uint poidVide;\r\n  uint poidActuel;\r\n  string etat ;\r\n   }\r\n\r\n   struct Agriculteur{\r\n  uint idAgriculteur;\r\n  string nom;\r\n  string prenom;\r\n  string username;\r\n  string password; \r\n   }\r\n\r\n\r\n\r\n\r\nstruct Operation{\r\n  uint idOperation;\r\n  uint  poidsLait;\r\n  string  dateOperation ;\r\n  string typeOp ;\r\n  uint  code;\r\n  //string sender;\r\n // uint tank ;\r\n  Collecteur collecteur; \r\n  Agriculteur agriculteur;\r\n \r\n   }\r\n\r\n\r\n\r\nstruct Collecteur{\r\n  uint idCollecteur;\r\n  string  nomCollecteur ;\r\n  string adresse ;\r\n  uint  tel;\r\n   }\r\n\r\n\r\n   constructor() {\r\n  }\r\nOperation[] public operations2;\r\n\r\nstring[] public ALLS;\r\nuint256 public nextID = 1;\r\n//create 2\r\n  function addOperation2(Operation memory op)\r\n   public returns (Operation memory op0) {\r\n\r\n    Agriculteur memory newAgriculteur = Agriculteur(op.agriculteur.idAgriculteur\r\n     ,op.agriculteur.nom,op.agriculteur.prenom\r\n     ,op.agriculteur.username,op.agriculteur.password);\r\n\r\n\r\n     Collecteur memory newCollecteur = Collecteur(op.collecteur.idCollecteur, \r\n     op.collecteur.nomCollecteur\r\n     ,op.collecteur.adresse,op.collecteur.tel);\r\n\r\n    Operation memory newOperation = Operation(op.idOperation,op.poidsLait, \r\n    op.dateOperation,op.typeOp,op.code,newCollecteur,newAgriculteur);\r\n    operations2.push(newOperation);\r\n    return (newOperation);\r\n  }\r\n  //get all operations \r\n  \r\n  function getOperations() public view returns (Operation[] memory result ) {\r\n    return operations2;\r\n  }\r\n\r\n//get one operation\r\n\r\n function getOperation(uint id) public view returns(Operation memory operation) {\r\n    for(uint i = 0; i<nextID;i++) {\r\n      if(operations2[i].idOperation==id) {\r\n        return operations2[i];\r\n      }\r\n    }\r\n  }\r\n\r\n\r\n//*********************************************************************************/\r\n//second app \r\n//******************************************************************************/\r\n\r\n\r\n\r\nstruct Operation0{\r\n  uint idOperation;\r\n  uint  poidsLait;\r\n  string  dateOperation ;\r\n  string typeOp ;\r\n  uint  code;\r\n  //string sender;\r\n // uint tank ;\r\n  Agriculteur0 agriculteur;\r\n  Chef chef;\r\n//Usine usine;\r\nTank tank ;\r\n   }\r\n\r\n  struct Agriculteur0{\r\n  uint idAgriculteur;\r\n  string nom;\r\n  string prenom;\r\n  string email;\r\n  string adress;  \r\n  uint tel;  \r\n   }\r\n\r\n\r\n   \r\n  struct Chef{\r\n  uint idChef;\r\n  string nom;\r\n  string prenom;\r\n  string email;\r\n  string adress;  \r\n  uint tel;  \r\n  uint cin; \r\n // uint tank ;\r\n   string username;\r\n  string password; \r\n   }\r\n\r\n      struct OperationTank{\r\n uint idOpTank;\r\n  uint qteInsereTank;  \r\n  string Date;\r\n  Operation0 operation;\r\n  Tank tank ;\r\n   }\r\nOperation0[] public operationTank2;\r\n\r\n  function addOperationTank(Operation0 memory operationTank) \r\n   public returns (Operation0 memory tt0) {\r\n\r\n      Tank memory newTank = Tank(operationTank.tank.idTank,operationTank.tank.matricule,operationTank.tank.poidVide,\r\n      operationTank.tank.poidActuel,operationTank.tank.etat);\r\n\r\n     \r\n\r\n     Agriculteur0 memory newAgriculteur = Agriculteur0(operationTank.agriculteur.idAgriculteur\r\n     ,operationTank.agriculteur.nom,operationTank.agriculteur.prenom\r\n     ,operationTank.agriculteur.email,operationTank.agriculteur.adress,operationTank.agriculteur.tel);\r\n\r\n    Chef memory newChef = Chef(operationTank.chef.idChef\r\n     ,operationTank.chef.nom,operationTank.chef.prenom\r\n     ,operationTank.chef.email,operationTank.chef.adress,operationTank.chef.tel,\r\n     operationTank.chef.cin,operationTank.chef.username,operationTank.chef.password);\r\n     \r\n/*\r\nUsine memory newUsine = Usine(operationTank.usine.idUsine,operationTank.usine.nomUsine,\r\n     operationTank.usine.adresse);*/\r\n    Operation0 memory newOperation = Operation0(operationTank.idOperation,operationTank.poidsLait, \r\n    operationTank.dateOperation,operationTank.typeOp,operationTank.code,newAgriculteur,newChef,newTank);\r\n//,newAgriculteur,newChef,newUsine,newTank\r\n     \r\n/*\r\n    OperationTank memory newOperationTank = OperationTank(operationTank.idOpTank,operationTank.qteInsereTank,operationTank.Date,newOperation,newTank);\r\n*/\r\n\r\n    operationTank2.push(newOperation);\r\n\r\n\r\n\r\n    return (newOperation);\r\n  }\r\n\r\n//*********************************************************************************/\r\n//third app \r\n//******************************************************************************/\r\n   struct Usine{\r\n   uint idUsine;\r\n    string nomUsine;\r\n   string adresse;  \r\n   }\r\n\r\nstruct Operation01{\r\n  uint idOperation;\r\n  uint  poidsLait;\r\n  string  dateOperation ;\r\n  string typeOp ;\r\n  uint  code;\r\n  //string sender;\r\n // uint tank ;\r\n // Agriculteur0 agriculteur;\r\n  Chef chef;\r\nUsine usine;\r\nTank tank ;\r\n   }\r\n\r\n   Operation01[] public operationTank3;\r\n\r\n  function addOperationTankRetrait(Operation01 memory operationTank) \r\n   public returns (Operation01 memory tt0) {\r\n\r\n      Tank memory newTank = Tank(operationTank.tank.idTank,operationTank.tank.matricule,operationTank.tank.poidVide,\r\n      operationTank.tank.poidActuel,operationTank.tank.etat);\r\n\r\n     \r\n/*\r\n     Agriculteur0 memory newAgriculteur = Agriculteur0(operationTank.agriculteur.idAgriculteur\r\n     ,operationTank.agriculteur.nom,operationTank.agriculteur.prenom\r\n     ,operationTank.agriculteur.email,operationTank.agriculteur.adress,operationTank.agriculteur.tel);\r\n*/\r\n    Chef memory newChef = Chef(operationTank.chef.idChef\r\n     ,operationTank.chef.nom,operationTank.chef.prenom\r\n     ,operationTank.chef.email,operationTank.chef.adress,operationTank.chef.tel,\r\n     operationTank.chef.cin,operationTank.chef.username,operationTank.chef.password);\r\n     \r\n\r\nUsine memory newUsine = Usine(operationTank.usine.idUsine,operationTank.usine.nomUsine,\r\n     operationTank.usine.adresse);\r\n    Operation01 memory newOperation = Operation01(operationTank.idOperation,operationTank.poidsLait, \r\n    operationTank.dateOperation,operationTank.typeOp,operationTank.code,newChef,newUsine,newTank);\r\n//,newAgriculteur,newChef,newUsine,newTank\r\n     \r\n/*\r\n    OperationTank memory newOperationTank = OperationTank(operationTank.idOpTank,operationTank.qteInsereTank,operationTank.Date,newOperation,newTank);\r\n*/\r\n\r\n    operationTank3.push(newOperation);\r\n\r\n\r\n\r\n    return (newOperation);\r\n  }\r\n\r\n\r\n\r\n\r\n\r\n\r\n\r\n\r\n\r\n\r\n\r\n\r\n\r\n\r\n\r\n\r\n\r\n\r\n\r\n}",
  "sourcePath": "C:\\Users\\ASUS\\Desktop\\pfe\\PFE_Project2022-Collecteur-\\PFE-FrontEnd\\contracts\\Remplissage.sol",
  "compiler": {
    "name": "solc",
    "version": "0.8.11+commit.d7f03943.Emscripten.clang"
  },
  "schemaVersion": "3.4.5",
  "updatedAt": "2022-04-19T14:24:18.494Z",
  "networkType": "ethereum",
  "devdoc": {
    "kind": "dev",
    "methods": {},
    "version": 1
  },
  "userdoc": {
    "kind": "user",
    "methods": {},
    "version": 1
  }
}