{
  "contractName": "RetraitCol",
  "abi": [
    {
      "inputs": [
        {
          "internalType": "uint256",
          "name": "",
          "type": "uint256"
        }
      ],
      "name": "nbreOP",
      "outputs": [
        {
          "internalType": "uint256",
          "name": "",
          "type": "uint256"
        }
      ],
      "stateMutability": "view",
      "type": "function",
      "constant": true
    },
    {
      "inputs": [
        {
          "internalType": "uint256",
          "name": "",
          "type": "uint256"
        }
      ],
      "name": "operationTankR",
      "outputs": [
        {
          "internalType": "uint256",
          "name": "idOpTank",
          "type": "uint256"
        },
        {
          "internalType": "int256",
          "name": "qteInsereTank",
          "type": "int256"
        },
        {
          "internalType": "string",
          "name": "date",
          "type": "string"
        },
        {
          "components": [
            {
              "internalType": "uint256",
              "name": "idOperation",
              "type": "uint256"
            },
            {
              "internalType": "uint256",
              "name": "poidsLait",
              "type": "uint256"
            },
            {
              "internalType": "string",
              "name": "dateOperation",
              "type": "string"
            },
            {
              "internalType": "string",
              "name": "typeOp",
              "type": "string"
            },
            {
              "internalType": "uint256",
              "name": "code",
              "type": "uint256"
            },
            {
              "internalType": "uint256[]",
              "name": "codeRemplissage",
              "type": "uint256[]"
            },
            {
              "components": [
                {
                  "internalType": "uint256",
                  "name": "idChef",
                  "type": "uint256"
                },
                {
                  "internalType": "string",
                  "name": "nom",
                  "type": "string"
                },
                {
                  "internalType": "string",
                  "name": "prenom",
                  "type": "string"
                },
                {
                  "internalType": "string",
                  "name": "email",
                  "type": "string"
                },
                {
                  "internalType": "string",
                  "name": "adress",
                  "type": "string"
                },
                {
                  "internalType": "uint256",
                  "name": "tel",
                  "type": "uint256"
                },
                {
                  "internalType": "uint256",
                  "name": "cin",
                  "type": "uint256"
                },
                {
                  "internalType": "string",
                  "name": "username",
                  "type": "string"
                },
                {
                  "internalType": "string",
                  "name": "password",
                  "type": "string"
                }
              ],
              "internalType": "struct Remplissage.Chef",
              "name": "chef",
              "type": "tuple"
            },
            {
              "components": [
                {
                  "internalType": "uint256",
                  "name": "idUsine",
                  "type": "uint256"
                },
                {
                  "internalType": "string",
                  "name": "nomUsine",
                  "type": "string"
                },
                {
                  "internalType": "string",
                  "name": "adresse",
                  "type": "string"
                }
              ],
              "internalType": "struct Remplissage.Usine",
              "name": "usine",
              "type": "tuple"
            }
          ],
          "internalType": "struct Remplissage.Operation01",
          "name": "operation",
          "type": "tuple"
        },
        {
          "components": [
            {
              "internalType": "uint256",
              "name": "idTank",
              "type": "uint256"
            },
            {
              "internalType": "string",
              "name": "matricule",
              "type": "string"
            },
            {
              "internalType": "uint256",
              "name": "poidVide",
              "type": "uint256"
            },
            {
              "internalType": "uint256",
              "name": "poidActuel",
              "type": "uint256"
            },
            {
              "internalType": "string",
              "name": "etat",
              "type": "string"
            },
            {
              "internalType": "uint256[]",
              "name": "codeTank",
              "type": "uint256[]"
            }
          ],
          "internalType": "struct Remplissage.Tank",
          "name": "tank",
          "type": "tuple"
        }
      ],
      "stateMutability": "view",
      "type": "function",
      "constant": true
    },
    {
      "inputs": [
        {
          "internalType": "uint256",
          "name": "",
          "type": "uint256"
        }
      ],
      "name": "operationagrs",
      "outputs": [
        {
          "internalType": "uint256",
          "name": "idOperation",
          "type": "uint256"
        },
        {
          "internalType": "uint256",
          "name": "code",
          "type": "uint256"
        },
        {
          "internalType": "string",
          "name": "dateOperation",
          "type": "string"
        },
        {
          "internalType": "string",
          "name": "typeOp",
          "type": "string"
        },
        {
          "internalType": "uint256",
          "name": "poidsLait",
          "type": "uint256"
        },
        {
          "components": [
            {
              "internalType": "uint256",
              "name": "idAgriculteur",
              "type": "uint256"
            },
            {
              "internalType": "string",
              "name": "nom",
              "type": "string"
            },
            {
              "internalType": "string",
              "name": "prenom",
              "type": "string"
            },
            {
              "internalType": "string",
              "name": "username",
              "type": "string"
            },
            {
              "internalType": "string",
              "name": "password",
              "type": "string"
            },
            {
              "internalType": "string",
              "name": "adress",
              "type": "string"
            }
          ],
          "internalType": "struct Remplissage.Agriculteur",
          "name": "agriculteur",
          "type": "tuple"
        },
        {
          "components": [
            {
              "internalType": "uint256",
              "name": "idCollecteur",
              "type": "uint256"
            },
            {
              "internalType": "string",
              "name": "nomCollecteur",
              "type": "string"
            },
            {
              "internalType": "string",
              "name": "matricule",
              "type": "string"
            },
            {
              "internalType": "string",
              "name": "adresse",
              "type": "string"
            },
            {
              "internalType": "uint256",
              "name": "tel",
              "type": "uint256"
            }
          ],
          "internalType": "struct Remplissage.Collecteur",
          "name": "collecteur",
          "type": "tuple"
        }
      ],
      "stateMutability": "view",
      "type": "function",
      "constant": true
    },
    {
      "inputs": [
        {
          "components": [
            {
              "internalType": "uint256",
              "name": "idOpTank",
              "type": "uint256"
            },
            {
              "internalType": "int256",
              "name": "qteInsereTank",
              "type": "int256"
            },
            {
              "internalType": "string",
              "name": "date",
              "type": "string"
            },
            {
              "components": [
                {
                  "internalType": "uint256",
                  "name": "idOperation",
                  "type": "uint256"
                },
                {
                  "internalType": "uint256",
                  "name": "poidsLait",
                  "type": "uint256"
                },
                {
                  "internalType": "string",
                  "name": "dateOperation",
                  "type": "string"
                },
                {
                  "internalType": "string",
                  "name": "typeOp",
                  "type": "string"
                },
                {
                  "internalType": "uint256",
                  "name": "code",
                  "type": "uint256"
                },
                {
                  "internalType": "uint256[]",
                  "name": "codeRemplissage",
                  "type": "uint256[]"
                },
                {
                  "components": [
                    {
                      "internalType": "uint256",
                      "name": "idChef",
                      "type": "uint256"
                    },
                    {
                      "internalType": "string",
                      "name": "nom",
                      "type": "string"
                    },
                    {
                      "internalType": "string",
                      "name": "prenom",
                      "type": "string"
                    },
                    {
                      "internalType": "string",
                      "name": "email",
                      "type": "string"
                    },
                    {
                      "internalType": "string",
                      "name": "adress",
                      "type": "string"
                    },
                    {
                      "internalType": "uint256",
                      "name": "tel",
                      "type": "uint256"
                    },
                    {
                      "internalType": "uint256",
                      "name": "cin",
                      "type": "uint256"
                    },
                    {
                      "internalType": "string",
                      "name": "username",
                      "type": "string"
                    },
                    {
                      "internalType": "string",
                      "name": "password",
                      "type": "string"
                    }
                  ],
                  "internalType": "struct Remplissage.Chef",
                  "name": "chef",
                  "type": "tuple"
                },
                {
                  "components": [
                    {
                      "internalType": "uint256",
                      "name": "idUsine",
                      "type": "uint256"
                    },
                    {
                      "internalType": "string",
                      "name": "nomUsine",
                      "type": "string"
                    },
                    {
                      "internalType": "string",
                      "name": "adresse",
                      "type": "string"
                    }
                  ],
                  "internalType": "struct Remplissage.Usine",
                  "name": "usine",
                  "type": "tuple"
                }
              ],
              "internalType": "struct Remplissage.Operation01",
              "name": "operation",
              "type": "tuple"
            },
            {
              "components": [
                {
                  "internalType": "uint256",
                  "name": "idTank",
                  "type": "uint256"
                },
                {
                  "internalType": "string",
                  "name": "matricule",
                  "type": "string"
                },
                {
                  "internalType": "uint256",
                  "name": "poidVide",
                  "type": "uint256"
                },
                {
                  "internalType": "uint256",
                  "name": "poidActuel",
                  "type": "uint256"
                },
                {
                  "internalType": "string",
                  "name": "etat",
                  "type": "string"
                },
                {
                  "internalType": "uint256[]",
                  "name": "codeTank",
                  "type": "uint256[]"
                }
              ],
              "internalType": "struct Remplissage.Tank",
              "name": "tank",
              "type": "tuple"
            }
          ],
          "internalType": "struct Remplissage.OperationTank0[]",
          "name": "operationTank",
          "type": "tuple[]"
        },
        {
          "internalType": "uint256",
          "name": "count",
          "type": "uint256"
        }
      ],
      "name": "RetraitOperationTank",
      "outputs": [
        {
          "components": [
            {
              "internalType": "uint256",
              "name": "idOpTank",
              "type": "uint256"
            },
            {
              "internalType": "int256",
              "name": "qteInsereTank",
              "type": "int256"
            },
            {
              "internalType": "string",
              "name": "date",
              "type": "string"
            },
            {
              "components": [
                {
                  "internalType": "uint256",
                  "name": "idOperation",
                  "type": "uint256"
                },
                {
                  "internalType": "uint256",
                  "name": "poidsLait",
                  "type": "uint256"
                },
                {
                  "internalType": "string",
                  "name": "dateOperation",
                  "type": "string"
                },
                {
                  "internalType": "string",
                  "name": "typeOp",
                  "type": "string"
                },
                {
                  "internalType": "uint256",
                  "name": "code",
                  "type": "uint256"
                },
                {
                  "internalType": "uint256[]",
                  "name": "codeRemplissage",
                  "type": "uint256[]"
                },
                {
                  "components": [
                    {
                      "internalType": "uint256",
                      "name": "idChef",
                      "type": "uint256"
                    },
                    {
                      "internalType": "string",
                      "name": "nom",
                      "type": "string"
                    },
                    {
                      "internalType": "string",
                      "name": "prenom",
                      "type": "string"
                    },
                    {
                      "internalType": "string",
                      "name": "email",
                      "type": "string"
                    },
                    {
                      "internalType": "string",
                      "name": "adress",
                      "type": "string"
                    },
                    {
                      "internalType": "uint256",
                      "name": "tel",
                      "type": "uint256"
                    },
                    {
                      "internalType": "uint256",
                      "name": "cin",
                      "type": "uint256"
                    },
                    {
                      "internalType": "string",
                      "name": "username",
                      "type": "string"
                    },
                    {
                      "internalType": "string",
                      "name": "password",
                      "type": "string"
                    }
                  ],
                  "internalType": "struct Remplissage.Chef",
                  "name": "chef",
                  "type": "tuple"
                },
                {
                  "components": [
                    {
                      "internalType": "uint256",
                      "name": "idUsine",
                      "type": "uint256"
                    },
                    {
                      "internalType": "string",
                      "name": "nomUsine",
                      "type": "string"
                    },
                    {
                      "internalType": "string",
                      "name": "adresse",
                      "type": "string"
                    }
                  ],
                  "internalType": "struct Remplissage.Usine",
                  "name": "usine",
                  "type": "tuple"
                }
              ],
              "internalType": "struct Remplissage.Operation01",
              "name": "operation",
              "type": "tuple"
            },
            {
              "components": [
                {
                  "internalType": "uint256",
                  "name": "idTank",
                  "type": "uint256"
                },
                {
                  "internalType": "string",
                  "name": "matricule",
                  "type": "string"
                },
                {
                  "internalType": "uint256",
                  "name": "poidVide",
                  "type": "uint256"
                },
                {
                  "internalType": "uint256",
                  "name": "poidActuel",
                  "type": "uint256"
                },
                {
                  "internalType": "string",
                  "name": "etat",
                  "type": "string"
                },
                {
                  "internalType": "uint256[]",
                  "name": "codeTank",
                  "type": "uint256[]"
                }
              ],
              "internalType": "struct Remplissage.Tank",
              "name": "tank",
              "type": "tuple"
            }
          ],
          "internalType": "struct Remplissage.OperationTank0[]",
          "name": "tt0",
          "type": "tuple[]"
        }
      ],
      "stateMutability": "nonpayable",
      "type": "function"
    },
    {
      "inputs": [],
      "name": "getOperationNumbers",
      "outputs": [
        {
          "internalType": "uint256[]",
          "name": "result",
          "type": "uint256[]"
        }
      ],
      "stateMutability": "view",
      "type": "function",
      "constant": true
    },
    {
      "inputs": [],
      "name": "getOperationTanks",
      "outputs": [
        {
          "components": [
            {
              "internalType": "uint256",
              "name": "idOpTank",
              "type": "uint256"
            },
            {
              "internalType": "int256",
              "name": "qteInsereTank",
              "type": "int256"
            },
            {
              "internalType": "string",
              "name": "date",
              "type": "string"
            },
            {
              "components": [
                {
                  "internalType": "uint256",
                  "name": "idOperation",
                  "type": "uint256"
                },
                {
                  "internalType": "uint256",
                  "name": "poidsLait",
                  "type": "uint256"
                },
                {
                  "internalType": "string",
                  "name": "dateOperation",
                  "type": "string"
                },
                {
                  "internalType": "string",
                  "name": "typeOp",
                  "type": "string"
                },
                {
                  "internalType": "uint256",
                  "name": "code",
                  "type": "uint256"
                },
                {
                  "internalType": "uint256[]",
                  "name": "codeRemplissage",
                  "type": "uint256[]"
                },
                {
                  "components": [
                    {
                      "internalType": "uint256",
                      "name": "idChef",
                      "type": "uint256"
                    },
                    {
                      "internalType": "string",
                      "name": "nom",
                      "type": "string"
                    },
                    {
                      "internalType": "string",
                      "name": "prenom",
                      "type": "string"
                    },
                    {
                      "internalType": "string",
                      "name": "email",
                      "type": "string"
                    },
                    {
                      "internalType": "string",
                      "name": "adress",
                      "type": "string"
                    },
                    {
                      "internalType": "uint256",
                      "name": "tel",
                      "type": "uint256"
                    },
                    {
                      "internalType": "uint256",
                      "name": "cin",
                      "type": "uint256"
                    },
                    {
                      "internalType": "string",
                      "name": "username",
                      "type": "string"
                    },
                    {
                      "internalType": "string",
                      "name": "password",
                      "type": "string"
                    }
                  ],
                  "internalType": "struct Remplissage.Chef",
                  "name": "chef",
                  "type": "tuple"
                },
                {
                  "components": [
                    {
                      "internalType": "uint256",
                      "name": "idUsine",
                      "type": "uint256"
                    },
                    {
                      "internalType": "string",
                      "name": "nomUsine",
                      "type": "string"
                    },
                    {
                      "internalType": "string",
                      "name": "adresse",
                      "type": "string"
                    }
                  ],
                  "internalType": "struct Remplissage.Usine",
                  "name": "usine",
                  "type": "tuple"
                }
              ],
              "internalType": "struct Remplissage.Operation01",
              "name": "operation",
              "type": "tuple"
            },
            {
              "components": [
                {
                  "internalType": "uint256",
                  "name": "idTank",
                  "type": "uint256"
                },
                {
                  "internalType": "string",
                  "name": "matricule",
                  "type": "string"
                },
                {
                  "internalType": "uint256",
                  "name": "poidVide",
                  "type": "uint256"
                },
                {
                  "internalType": "uint256",
                  "name": "poidActuel",
                  "type": "uint256"
                },
                {
                  "internalType": "string",
                  "name": "etat",
                  "type": "string"
                },
                {
                  "internalType": "uint256[]",
                  "name": "codeTank",
                  "type": "uint256[]"
                }
              ],
              "internalType": "struct Remplissage.Tank",
              "name": "tank",
              "type": "tuple"
            }
          ],
          "internalType": "struct Remplissage.OperationTank0[]",
          "name": "result",
          "type": "tuple[]"
        }
      ],
      "stateMutability": "view",
      "type": "function",
      "constant": true
    },
    {
      "inputs": [
        {
          "internalType": "uint256",
          "name": "code",
          "type": "uint256"
        },
        {
          "components": [
            {
              "internalType": "uint256",
              "name": "idOperation",
              "type": "uint256"
            },
            {
              "internalType": "uint256",
              "name": "code",
              "type": "uint256"
            },
            {
              "internalType": "string",
              "name": "dateOperation",
              "type": "string"
            },
            {
              "internalType": "string",
              "name": "typeOp",
              "type": "string"
            },
            {
              "internalType": "uint256",
              "name": "poidsLait",
              "type": "uint256"
            },
            {
              "components": [
                {
                  "internalType": "uint256",
                  "name": "idAgriculteur",
                  "type": "uint256"
                },
                {
                  "internalType": "string",
                  "name": "nom",
                  "type": "string"
                },
                {
                  "internalType": "string",
                  "name": "prenom",
                  "type": "string"
                },
                {
                  "internalType": "string",
                  "name": "username",
                  "type": "string"
                },
                {
                  "internalType": "string",
                  "name": "password",
                  "type": "string"
                },
                {
                  "internalType": "string",
                  "name": "adress",
                  "type": "string"
                }
              ],
              "internalType": "struct Remplissage.Agriculteur",
              "name": "agriculteur",
              "type": "tuple"
            },
            {
              "components": [
                {
                  "internalType": "uint256",
                  "name": "idCollecteur",
                  "type": "uint256"
                },
                {
                  "internalType": "string",
                  "name": "nomCollecteur",
                  "type": "string"
                },
                {
                  "internalType": "string",
                  "name": "matricule",
                  "type": "string"
                },
                {
                  "internalType": "string",
                  "name": "adresse",
                  "type": "string"
                },
                {
                  "internalType": "uint256",
                  "name": "tel",
                  "type": "uint256"
                }
              ],
              "internalType": "struct Remplissage.Collecteur",
              "name": "collecteur",
              "type": "tuple"
            }
          ],
          "internalType": "struct Remplissage.Operation[]",
          "name": "operation2",
          "type": "tuple[]"
        }
      ],
      "name": "getOperationbycode",
      "outputs": [
        {
          "components": [
            {
              "internalType": "uint256",
              "name": "idOperation",
              "type": "uint256"
            },
            {
              "internalType": "uint256",
              "name": "code",
              "type": "uint256"
            },
            {
              "internalType": "string",
              "name": "dateOperation",
              "type": "string"
            },
            {
              "internalType": "string",
              "name": "typeOp",
              "type": "string"
            },
            {
              "internalType": "uint256",
              "name": "poidsLait",
              "type": "uint256"
            },
            {
              "components": [
                {
                  "internalType": "uint256",
                  "name": "idAgriculteur",
                  "type": "uint256"
                },
                {
                  "internalType": "string",
                  "name": "nom",
                  "type": "string"
                },
                {
                  "internalType": "string",
                  "name": "prenom",
                  "type": "string"
                },
                {
                  "internalType": "string",
                  "name": "username",
                  "type": "string"
                },
                {
                  "internalType": "string",
                  "name": "password",
                  "type": "string"
                },
                {
                  "internalType": "string",
                  "name": "adress",
                  "type": "string"
                }
              ],
              "internalType": "struct Remplissage.Agriculteur",
              "name": "agriculteur",
              "type": "tuple"
            },
            {
              "components": [
                {
                  "internalType": "uint256",
                  "name": "idCollecteur",
                  "type": "uint256"
                },
                {
                  "internalType": "string",
                  "name": "nomCollecteur",
                  "type": "string"
                },
                {
                  "internalType": "string",
                  "name": "matricule",
                  "type": "string"
                },
                {
                  "internalType": "string",
                  "name": "adresse",
                  "type": "string"
                },
                {
                  "internalType": "uint256",
                  "name": "tel",
                  "type": "uint256"
                }
              ],
              "internalType": "struct Remplissage.Collecteur",
              "name": "collecteur",
              "type": "tuple"
            }
          ],
          "internalType": "struct Remplissage.Operation[]",
          "name": "operationtwo",
          "type": "tuple[]"
        }
      ],
      "stateMutability": "nonpayable",
      "type": "function"
    },
    {
      "inputs": [
        {
          "internalType": "uint256",
          "name": "code",
          "type": "uint256"
        }
      ],
      "name": "getOperationFromAgrsbycode",
      "outputs": [
        {
          "components": [
            {
              "internalType": "uint256",
              "name": "idOpTank",
              "type": "uint256"
            },
            {
              "internalType": "int256",
              "name": "qteInsereTank",
              "type": "int256"
            },
            {
              "internalType": "string",
              "name": "date",
              "type": "string"
            },
            {
              "components": [
                {
                  "internalType": "uint256",
                  "name": "idOperation",
                  "type": "uint256"
                },
                {
                  "internalType": "uint256",
                  "name": "poidsLait",
                  "type": "uint256"
                },
                {
                  "internalType": "string",
                  "name": "dateOperation",
                  "type": "string"
                },
                {
                  "internalType": "string",
                  "name": "typeOp",
                  "type": "string"
                },
                {
                  "internalType": "uint256",
                  "name": "code",
                  "type": "uint256"
                },
                {
                  "internalType": "uint256[]",
                  "name": "codeRemplissage",
                  "type": "uint256[]"
                },
                {
                  "components": [
                    {
                      "internalType": "uint256",
                      "name": "idChef",
                      "type": "uint256"
                    },
                    {
                      "internalType": "string",
                      "name": "nom",
                      "type": "string"
                    },
                    {
                      "internalType": "string",
                      "name": "prenom",
                      "type": "string"
                    },
                    {
                      "internalType": "string",
                      "name": "email",
                      "type": "string"
                    },
                    {
                      "internalType": "string",
                      "name": "adress",
                      "type": "string"
                    },
                    {
                      "internalType": "uint256",
                      "name": "tel",
                      "type": "uint256"
                    },
                    {
                      "internalType": "uint256",
                      "name": "cin",
                      "type": "uint256"
                    },
                    {
                      "internalType": "string",
                      "name": "username",
                      "type": "string"
                    },
                    {
                      "internalType": "string",
                      "name": "password",
                      "type": "string"
                    }
                  ],
                  "internalType": "struct Remplissage.Chef",
                  "name": "chef",
                  "type": "tuple"
                },
                {
                  "components": [
                    {
                      "internalType": "uint256",
                      "name": "idUsine",
                      "type": "uint256"
                    },
                    {
                      "internalType": "string",
                      "name": "nomUsine",
                      "type": "string"
                    },
                    {
                      "internalType": "string",
                      "name": "adresse",
                      "type": "string"
                    }
                  ],
                  "internalType": "struct Remplissage.Usine",
                  "name": "usine",
                  "type": "tuple"
                }
              ],
              "internalType": "struct Remplissage.Operation01",
              "name": "operation",
              "type": "tuple"
            },
            {
              "components": [
                {
                  "internalType": "uint256",
                  "name": "idTank",
                  "type": "uint256"
                },
                {
                  "internalType": "string",
                  "name": "matricule",
                  "type": "string"
                },
                {
                  "internalType": "uint256",
                  "name": "poidVide",
                  "type": "uint256"
                },
                {
                  "internalType": "uint256",
                  "name": "poidActuel",
                  "type": "uint256"
                },
                {
                  "internalType": "string",
                  "name": "etat",
                  "type": "string"
                },
                {
                  "internalType": "uint256[]",
                  "name": "codeTank",
                  "type": "uint256[]"
                }
              ],
              "internalType": "struct Remplissage.Tank",
              "name": "tank",
              "type": "tuple"
            }
          ],
          "internalType": "struct Remplissage.OperationTank0",
          "name": "operation",
          "type": "tuple"
        }
      ],
      "stateMutability": "view",
      "type": "function",
      "constant": true
    }
  ],
  "bytecode": "0x608060405234801561001057600080fd5b5061584880620000216000396000f3fe608060405234801561001057600080fd5b50600436106100885760003560e01c8063a96fe5f01161005b578063a96fe5f014610141578063c9c28e0f14610175578063e304431714610193578063ee4f3dc8146101c357610088565b8063166388291461008d5780633092a44d146100bd5780633b5a24be146100ed5780638724a4301461010b575b600080fd5b6100a760048036038101906100a29190613c41565b6101f3565b6040516100b49190614104565b60405180910390f35b6100d760048036038101906100d29190613c41565b610b6e565b6040516100e49190614135565b60405180910390f35b6100f5610b92565b60405161010291906141bf565b60405180910390f35b61012560048036038101906101209190613c41565b610bea565b6040516101389796959493929190614354565b60405180910390f35b61015b60048036038101906101569190613c41565b61120e565b60405161016c959493929190614551565b60405180910390f35b61017d611b06565b60405161018a91906146ff565b60405180910390f35b6101ad60048036038101906101a89190614f83565b612449565b6040516101ba91906146ff565b60405180910390f35b6101dd60048036038101906101d891906153f0565b613078565b6040516101ea91906156e8565b60405180910390f35b6101fb6139d8565b60005b600180549050811015610b675782600182815481106102205761021f61570a565b5b90600052602060002090601b0201600301600401541415610b54576001818154811061024f5761024e61570a565b5b90600052602060002090601b02016040518060a0016040529081600082015481526020016001820154815260200160028201805461028c90615768565b80601f01602080910402602001604051908101604052809291908181526020018280546102b890615768565b80156103055780601f106102da57610100808354040283529160200191610305565b820191906000526020600020905b8154815290600101906020018083116102e857829003601f168201915b505050505081526020016003820160405180610100016040529081600082015481526020016001820154815260200160028201805461034390615768565b80601f016020809104026020016040519081016040528092919081815260200182805461036f90615768565b80156103bc5780601f10610391576101008083540402835291602001916103bc565b820191906000526020600020905b81548152906001019060200180831161039f57829003601f168201915b505050505081526020016003820180546103d590615768565b80601f016020809104026020016040519081016040528092919081815260200182805461040190615768565b801561044e5780601f106104235761010080835404028352916020019161044e565b820191906000526020600020905b81548152906001019060200180831161043157829003601f168201915b5050505050815260200160048201548152602001600582018054806020026020016040519081016040528092919081815260200182805480156104b057602002820191906000526020600020905b81548152602001906001019080831161049c575b505050505081526020016006820160405180610120016040529081600082015481526020016001820180546104e490615768565b80601f016020809104026020016040519081016040528092919081815260200182805461051090615768565b801561055d5780601f106105325761010080835404028352916020019161055d565b820191906000526020600020905b81548152906001019060200180831161054057829003601f168201915b5050505050815260200160028201805461057690615768565b80601f01602080910402602001604051908101604052809291908181526020018280546105a290615768565b80156105ef5780601f106105c4576101008083540402835291602001916105ef565b820191906000526020600020905b8154815290600101906020018083116105d257829003601f168201915b5050505050815260200160038201805461060890615768565b80601f016020809104026020016040519081016040528092919081815260200182805461063490615768565b80156106815780601f1061065657610100808354040283529160200191610681565b820191906000526020600020905b81548152906001019060200180831161066457829003601f168201915b5050505050815260200160048201805461069a90615768565b80601f01602080910402602001604051908101604052809291908181526020018280546106c690615768565b80156107135780601f106106e857610100808354040283529160200191610713565b820191906000526020600020905b8154815290600101906020018083116106f657829003601f168201915b50505050508152602001600582015481526020016006820154815260200160078201805461074090615768565b80601f016020809104026020016040519081016040528092919081815260200182805461076c90615768565b80156107b95780601f1061078e576101008083540402835291602001916107b9565b820191906000526020600020905b81548152906001019060200180831161079c57829003601f168201915b505050505081526020016008820180546107d290615768565b80601f01602080910402602001604051908101604052809291908181526020018280546107fe90615768565b801561084b5780601f106108205761010080835404028352916020019161084b565b820191906000526020600020905b81548152906001019060200180831161082e57829003601f168201915b5050505050815250508152602001600f82016040518060600160405290816000820154815260200160018201805461088290615768565b80601f01602080910402602001604051908101604052809291908181526020018280546108ae90615768565b80156108fb5780601f106108d0576101008083540402835291602001916108fb565b820191906000526020600020905b8154815290600101906020018083116108de57829003601f168201915b5050505050815260200160028201805461091490615768565b80601f016020809104026020016040519081016040528092919081815260200182805461094090615768565b801561098d5780601f106109625761010080835404028352916020019161098d565b820191906000526020600020905b81548152906001019060200180831161097057829003601f168201915b505050505081525050815250508152602001601582016040518060c0016040529081600082015481526020016001820180546109c890615768565b80601f01602080910402602001604051908101604052809291908181526020018280546109f490615768565b8015610a415780601f10610a1657610100808354040283529160200191610a41565b820191906000526020600020905b815481529060010190602001808311610a2457829003601f168201915b505050505081526020016002820154815260200160038201548152602001600482018054610a6e90615768565b80601f0160208091040260200160405190810160405280929190818152602001828054610a9a90615768565b8015610ae75780601f10610abc57610100808354040283529160200191610ae7565b820191906000526020600020905b815481529060010190602001808311610aca57829003601f168201915b5050505050815260200160058201805480602002602001604051908101604052809291908181526020018280548015610b3f57602002820191906000526020600020905b815481526020019060010190808311610b2b575b50505050508152505081525050915050610b69565b8080610b5f906157c9565b9150506101fe565b505b919050565b60028181548110610b7e57600080fd5b906000526020600020016000915090505481565b60606002805480602002602001604051908101604052809291908181526020018280548015610be057602002820191906000526020600020905b815481526020019060010190808311610bcc575b5050505050905090565b60008181548110610bfa57600080fd5b9060005260206000209060100201600091509050806000015490806001015490806002018054610c2990615768565b80601f0160208091040260200160405190810160405280929190818152602001828054610c5590615768565b8015610ca25780601f10610c7757610100808354040283529160200191610ca2565b820191906000526020600020905b815481529060010190602001808311610c8557829003601f168201915b505050505090806003018054610cb790615768565b80601f0160208091040260200160405190810160405280929190818152602001828054610ce390615768565b8015610d305780601f10610d0557610100808354040283529160200191610d30565b820191906000526020600020905b815481529060010190602001808311610d1357829003601f168201915b505050505090806004015490806005016040518060c001604052908160008201548152602001600182018054610d6590615768565b80601f0160208091040260200160405190810160405280929190818152602001828054610d9190615768565b8015610dde5780601f10610db357610100808354040283529160200191610dde565b820191906000526020600020905b815481529060010190602001808311610dc157829003601f168201915b50505050508152602001600282018054610df790615768565b80601f0160208091040260200160405190810160405280929190818152602001828054610e2390615768565b8015610e705780601f10610e4557610100808354040283529160200191610e70565b820191906000526020600020905b815481529060010190602001808311610e5357829003601f168201915b50505050508152602001600382018054610e8990615768565b80601f0160208091040260200160405190810160405280929190818152602001828054610eb590615768565b8015610f025780601f10610ed757610100808354040283529160200191610f02565b820191906000526020600020905b815481529060010190602001808311610ee557829003601f168201915b50505050508152602001600482018054610f1b90615768565b80601f0160208091040260200160405190810160405280929190818152602001828054610f4790615768565b8015610f945780601f10610f6957610100808354040283529160200191610f94565b820191906000526020600020905b815481529060010190602001808311610f7757829003601f168201915b50505050508152602001600582018054610fad90615768565b80601f0160208091040260200160405190810160405280929190818152602001828054610fd990615768565b80156110265780601f10610ffb57610100808354040283529160200191611026565b820191906000526020600020905b81548152906001019060200180831161100957829003601f168201915b5050505050815250509080600b016040518060a00160405290816000820154815260200160018201805461105990615768565b80601f016020809104026020016040519081016040528092919081815260200182805461108590615768565b80156110d25780601f106110a7576101008083540402835291602001916110d2565b820191906000526020600020905b8154815290600101906020018083116110b557829003601f168201915b505050505081526020016002820180546110eb90615768565b80601f016020809104026020016040519081016040528092919081815260200182805461111790615768565b80156111645780601f1061113957610100808354040283529160200191611164565b820191906000526020600020905b81548152906001019060200180831161114757829003601f168201915b5050505050815260200160038201805461117d90615768565b80601f01602080910402602001604051908101604052809291908181526020018280546111a990615768565b80156111f65780601f106111cb576101008083540402835291602001916111f6565b820191906000526020600020905b8154815290600101906020018083116111d957829003601f168201915b50505050508152602001600482015481525050905087565b6001818154811061121e57600080fd5b90600052602060002090601b020160009150905080600001549080600101549080600201805461124d90615768565b80601f016020809104026020016040519081016040528092919081815260200182805461127990615768565b80156112c65780601f1061129b576101008083540402835291602001916112c6565b820191906000526020600020905b8154815290600101906020018083116112a957829003601f168201915b5050505050908060030160405180610100016040529081600082015481526020016001820154815260200160028201805461130090615768565b80601f016020809104026020016040519081016040528092919081815260200182805461132c90615768565b80156113795780601f1061134e57610100808354040283529160200191611379565b820191906000526020600020905b81548152906001019060200180831161135c57829003601f168201915b5050505050815260200160038201805461139290615768565b80601f01602080910402602001604051908101604052809291908181526020018280546113be90615768565b801561140b5780601f106113e05761010080835404028352916020019161140b565b820191906000526020600020905b8154815290600101906020018083116113ee57829003601f168201915b50505050508152602001600482015481526020016005820180548060200260200160405190810160405280929190818152602001828054801561146d57602002820191906000526020600020905b815481526020019060010190808311611459575b505050505081526020016006820160405180610120016040529081600082015481526020016001820180546114a190615768565b80601f01602080910402602001604051908101604052809291908181526020018280546114cd90615768565b801561151a5780601f106114ef5761010080835404028352916020019161151a565b820191906000526020600020905b8154815290600101906020018083116114fd57829003601f168201915b5050505050815260200160028201805461153390615768565b80601f016020809104026020016040519081016040528092919081815260200182805461155f90615768565b80156115ac5780601f10611581576101008083540402835291602001916115ac565b820191906000526020600020905b81548152906001019060200180831161158f57829003601f168201915b505050505081526020016003820180546115c590615768565b80601f01602080910402602001604051908101604052809291908181526020018280546115f190615768565b801561163e5780601f106116135761010080835404028352916020019161163e565b820191906000526020600020905b81548152906001019060200180831161162157829003601f168201915b5050505050815260200160048201805461165790615768565b80601f016020809104026020016040519081016040528092919081815260200182805461168390615768565b80156116d05780601f106116a5576101008083540402835291602001916116d0565b820191906000526020600020905b8154815290600101906020018083116116b357829003601f168201915b5050505050815260200160058201548152602001600682015481526020016007820180546116fd90615768565b80601f016020809104026020016040519081016040528092919081815260200182805461172990615768565b80156117765780601f1061174b57610100808354040283529160200191611776565b820191906000526020600020905b81548152906001019060200180831161175957829003601f168201915b5050505050815260200160088201805461178f90615768565b80601f01602080910402602001604051908101604052809291908181526020018280546117bb90615768565b80156118085780601f106117dd57610100808354040283529160200191611808565b820191906000526020600020905b8154815290600101906020018083116117eb57829003601f168201915b5050505050815250508152602001600f82016040518060600160405290816000820154815260200160018201805461183f90615768565b80601f016020809104026020016040519081016040528092919081815260200182805461186b90615768565b80156118b85780601f1061188d576101008083540402835291602001916118b8565b820191906000526020600020905b81548152906001019060200180831161189b57829003601f168201915b505050505081526020016002820180546118d190615768565b80601f01602080910402602001604051908101604052809291908181526020018280546118fd90615768565b801561194a5780601f1061191f5761010080835404028352916020019161194a565b820191906000526020600020905b81548152906001019060200180831161192d57829003601f168201915b5050505050815250508152505090806015016040518060c00160405290816000820154815260200160018201805461198190615768565b80601f01602080910402602001604051908101604052809291908181526020018280546119ad90615768565b80156119fa5780601f106119cf576101008083540402835291602001916119fa565b820191906000526020600020905b8154815290600101906020018083116119dd57829003601f168201915b505050505081526020016002820154815260200160038201548152602001600482018054611a2790615768565b80601f0160208091040260200160405190810160405280929190818152602001828054611a5390615768565b8015611aa05780601f10611a7557610100808354040283529160200191611aa0565b820191906000526020600020905b815481529060010190602001808311611a8357829003601f168201915b5050505050815260200160058201805480602002602001604051908101604052809291908181526020018280548015611af857602002820191906000526020600020905b815481526020019060010190808311611ae4575b505050505081525050905085565b60606001805480602002602001604051908101604052809291908181526020016000905b8282101561244057838290600052602060002090601b02016040518060a00160405290816000820154815260200160018201548152602001600282018054611b7190615768565b80601f0160208091040260200160405190810160405280929190818152602001828054611b9d90615768565b8015611bea5780601f10611bbf57610100808354040283529160200191611bea565b820191906000526020600020905b815481529060010190602001808311611bcd57829003601f168201915b5050505050815260200160038201604051806101000160405290816000820154815260200160018201548152602001600282018054611c2890615768565b80601f0160208091040260200160405190810160405280929190818152602001828054611c5490615768565b8015611ca15780601f10611c7657610100808354040283529160200191611ca1565b820191906000526020600020905b815481529060010190602001808311611c8457829003601f168201915b50505050508152602001600382018054611cba90615768565b80601f0160208091040260200160405190810160405280929190818152602001828054611ce690615768565b8015611d335780601f10611d0857610100808354040283529160200191611d33565b820191906000526020600020905b815481529060010190602001808311611d1657829003601f168201915b505050505081526020016004820154815260200160058201805480602002602001604051908101604052809291908181526020018280548015611d9557602002820191906000526020600020905b815481526020019060010190808311611d81575b50505050508152602001600682016040518061012001604052908160008201548152602001600182018054611dc990615768565b80601f0160208091040260200160405190810160405280929190818152602001828054611df590615768565b8015611e425780601f10611e1757610100808354040283529160200191611e42565b820191906000526020600020905b815481529060010190602001808311611e2557829003601f168201915b50505050508152602001600282018054611e5b90615768565b80601f0160208091040260200160405190810160405280929190818152602001828054611e8790615768565b8015611ed45780601f10611ea957610100808354040283529160200191611ed4565b820191906000526020600020905b815481529060010190602001808311611eb757829003601f168201915b50505050508152602001600382018054611eed90615768565b80601f0160208091040260200160405190810160405280929190818152602001828054611f1990615768565b8015611f665780601f10611f3b57610100808354040283529160200191611f66565b820191906000526020600020905b815481529060010190602001808311611f4957829003601f168201915b50505050508152602001600482018054611f7f90615768565b80601f0160208091040260200160405190810160405280929190818152602001828054611fab90615768565b8015611ff85780601f10611fcd57610100808354040283529160200191611ff8565b820191906000526020600020905b815481529060010190602001808311611fdb57829003601f168201915b50505050508152602001600582015481526020016006820154815260200160078201805461202590615768565b80601f016020809104026020016040519081016040528092919081815260200182805461205190615768565b801561209e5780601f106120735761010080835404028352916020019161209e565b820191906000526020600020905b81548152906001019060200180831161208157829003601f168201915b505050505081526020016008820180546120b790615768565b80601f01602080910402602001604051908101604052809291908181526020018280546120e390615768565b80156121305780601f1061210557610100808354040283529160200191612130565b820191906000526020600020905b81548152906001019060200180831161211357829003601f168201915b5050505050815250508152602001600f82016040518060600160405290816000820154815260200160018201805461216790615768565b80601f016020809104026020016040519081016040528092919081815260200182805461219390615768565b80156121e05780601f106121b5576101008083540402835291602001916121e0565b820191906000526020600020905b8154815290600101906020018083116121c357829003601f168201915b505050505081526020016002820180546121f990615768565b80601f016020809104026020016040519081016040528092919081815260200182805461222590615768565b80156122725780601f1061224757610100808354040283529160200191612272565b820191906000526020600020905b81548152906001019060200180831161225557829003601f168201915b505050505081525050815250508152602001601582016040518060c0016040529081600082015481526020016001820180546122ad90615768565b80601f01602080910402602001604051908101604052809291908181526020018280546122d990615768565b80156123265780601f106122fb57610100808354040283529160200191612326565b820191906000526020600020905b81548152906001019060200180831161230957829003601f168201915b50505050508152602001600282015481526020016003820154815260200160048201805461235390615768565b80601f016020809104026020016040519081016040528092919081815260200182805461237f90615768565b80156123cc5780601f106123a1576101008083540402835291602001916123cc565b820191906000526020600020905b8154815290600101906020018083116123af57829003601f168201915b505050505081526020016005820180548060200260200160405190810160405280929190818152602001828054801561242457602002820191906000526020600020905b815481526020019060010190808311612410575b5050505050815250508152505081526020019060010190611b2a565b50505050905090565b606060026000908060018154018082558091505060019003906000526020600020016000909190919091505560005b828110156127335760018482815181106124955761249461570a565b5b602002602001015190806001815401808255809150506001900390600052602060002090601b0201600090919091909150600082015181600001556020820151816001015560408201518160020190805190602001906124f6929190613a13565b5060608201518160030160008201518160000155602082015181600101556040820151816002019080519060200190612530929190613a13565b50606082015181600301908051906020019061254d929190613a13565b506080820151816004015560a0820151816005019080519060200190612574929190613a99565b5060c0820151816006016000820151816000015560208201518160010190805190602001906125a4929190613a13565b5060408201518160020190805190602001906125c1929190613a13565b5060608201518160030190805190602001906125de929190613a13565b5060808201518160040190805190602001906125fb929190613a13565b5060a0820151816005015560c0820151816006015560e082015181600701908051906020019061262c929190613a13565b5061010082015181600801908051906020019061264a929190613a13565b50505060e082015181600f0160008201518160000155602082015181600101908051906020019061267c929190613a13565b506040820151816002019080519060200190612699929190613a13565b50505050506080820151816015016000820151816000015560208201518160010190805190602001906126cd929190613a13565b50604082015181600201556060820151816003015560808201518160040190805190602001906126fe929190613a13565b5060a082015181600501908051906020019061271b929190613a99565b5050505050808061272b906157c9565b915050612478565b506001805480602002602001604051908101604052809291908181526020016000905b8282101561306c57838290600052602060002090601b02016040518060a0016040529081600082015481526020016001820154815260200160028201805461279d90615768565b80601f01602080910402602001604051908101604052809291908181526020018280546127c990615768565b80156128165780601f106127eb57610100808354040283529160200191612816565b820191906000526020600020905b8154815290600101906020018083116127f957829003601f168201915b505050505081526020016003820160405180610100016040529081600082015481526020016001820154815260200160028201805461285490615768565b80601f016020809104026020016040519081016040528092919081815260200182805461288090615768565b80156128cd5780601f106128a2576101008083540402835291602001916128cd565b820191906000526020600020905b8154815290600101906020018083116128b057829003601f168201915b505050505081526020016003820180546128e690615768565b80601f016020809104026020016040519081016040528092919081815260200182805461291290615768565b801561295f5780601f106129345761010080835404028352916020019161295f565b820191906000526020600020905b81548152906001019060200180831161294257829003601f168201915b5050505050815260200160048201548152602001600582018054806020026020016040519081016040528092919081815260200182805480156129c157602002820191906000526020600020905b8154815260200190600101908083116129ad575b505050505081526020016006820160405180610120016040529081600082015481526020016001820180546129f590615768565b80601f0160208091040260200160405190810160405280929190818152602001828054612a2190615768565b8015612a6e5780601f10612a4357610100808354040283529160200191612a6e565b820191906000526020600020905b815481529060010190602001808311612a5157829003601f168201915b50505050508152602001600282018054612a8790615768565b80601f0160208091040260200160405190810160405280929190818152602001828054612ab390615768565b8015612b005780601f10612ad557610100808354040283529160200191612b00565b820191906000526020600020905b815481529060010190602001808311612ae357829003601f168201915b50505050508152602001600382018054612b1990615768565b80601f0160208091040260200160405190810160405280929190818152602001828054612b4590615768565b8015612b925780601f10612b6757610100808354040283529160200191612b92565b820191906000526020600020905b815481529060010190602001808311612b7557829003601f168201915b50505050508152602001600482018054612bab90615768565b80601f0160208091040260200160405190810160405280929190818152602001828054612bd790615768565b8015612c245780601f10612bf957610100808354040283529160200191612c24565b820191906000526020600020905b815481529060010190602001808311612c0757829003601f168201915b505050505081526020016005820154815260200160068201548152602001600782018054612c5190615768565b80601f0160208091040260200160405190810160405280929190818152602001828054612c7d90615768565b8015612cca5780601f10612c9f57610100808354040283529160200191612cca565b820191906000526020600020905b815481529060010190602001808311612cad57829003601f168201915b50505050508152602001600882018054612ce390615768565b80601f0160208091040260200160405190810160405280929190818152602001828054612d0f90615768565b8015612d5c5780601f10612d3157610100808354040283529160200191612d5c565b820191906000526020600020905b815481529060010190602001808311612d3f57829003601f168201915b5050505050815250508152602001600f820160405180606001604052908160008201548152602001600182018054612d9390615768565b80601f0160208091040260200160405190810160405280929190818152602001828054612dbf90615768565b8015612e0c5780601f10612de157610100808354040283529160200191612e0c565b820191906000526020600020905b815481529060010190602001808311612def57829003601f168201915b50505050508152602001600282018054612e2590615768565b80601f0160208091040260200160405190810160405280929190818152602001828054612e5190615768565b8015612e9e5780601f10612e7357610100808354040283529160200191612e9e565b820191906000526020600020905b815481529060010190602001808311612e8157829003601f168201915b505050505081525050815250508152602001601582016040518060c001604052908160008201548152602001600182018054612ed990615768565b80601f0160208091040260200160405190810160405280929190818152602001828054612f0590615768565b8015612f525780601f10612f2757610100808354040283529160200191612f52565b820191906000526020600020905b815481529060010190602001808311612f3557829003601f168201915b505050505081526020016002820154815260200160038201548152602001600482018054612f7f90615768565b80601f0160208091040260200160405190810160405280929190818152602001828054612fab90615768565b8015612ff85780601f10612fcd57610100808354040283529160200191612ff8565b820191906000526020600020905b815481529060010190602001808311612fdb57829003601f168201915b505050505081526020016005820180548060200260200160405190810160405280929190818152602001828054801561305057602002820191906000526020600020905b81548152602001906001019080831161303c575b5050505050815250508152505081526020019060010190612756565b50505050905092915050565b606060005b60018054905081101561335f57836001828154811061309f5761309e61570a565b5b90600052602060002090601b020160030160040154141561334c5760005b600182815481106130d1576130d061570a565b5b90600052602060002090601b02016015016005018054905081101561334a5760005b845181101561333657600183815481106131105761310f61570a565b5b90600052602060002090601b020160150160050182815481106131365761313561570a565b5b90600052602060002001548582815181106131545761315361570a565b5b602002602001015160200151141561332357600085828151811061317b5761317a61570a565b5b60200260200101519080600181540180825580915050600190039060005260206000209060100201600090919091909150600082015181600001556020820151816001015560408201518160020190805190602001906131dc929190613a13565b5060608201518160030190805190602001906131f9929190613a13565b506080820151816004015560a082015181600501600082015181600001556020820151816001019080519060200190613233929190613a13565b506040820151816002019080519060200190613250929190613a13565b50606082015181600301908051906020019061326d929190613a13565b50608082015181600401908051906020019061328a929190613a13565b5060a08201518160050190805190602001906132a7929190613a13565b50505060c082015181600b016000820151816000015560208201518160010190805190602001906132d9929190613a13565b5060408201518160020190805190602001906132f6929190613a13565b506060820151816003019080519060200190613313929190613a13565b5060808201518160040155505050505b808061332e906157c9565b9150506130f3565b508080613342906157c9565b9150506130bd565b505b8080613357906157c9565b91505061307d565b506000805480602002602001604051908101604052809291908181526020016000905b828210156139cc57838290600052602060002090601002016040518060e001604052908160008201548152602001600182015481526020016002820180546133c990615768565b80601f01602080910402602001604051908101604052809291908181526020018280546133f590615768565b80156134425780601f1061341757610100808354040283529160200191613442565b820191906000526020600020905b81548152906001019060200180831161342557829003601f168201915b5050505050815260200160038201805461345b90615768565b80601f016020809104026020016040519081016040528092919081815260200182805461348790615768565b80156134d45780601f106134a9576101008083540402835291602001916134d4565b820191906000526020600020905b8154815290600101906020018083116134b757829003601f168201915b5050505050815260200160048201548152602001600582016040518060c00160405290816000820154815260200160018201805461351190615768565b80601f016020809104026020016040519081016040528092919081815260200182805461353d90615768565b801561358a5780601f1061355f5761010080835404028352916020019161358a565b820191906000526020600020905b81548152906001019060200180831161356d57829003601f168201915b505050505081526020016002820180546135a390615768565b80601f01602080910402602001604051908101604052809291908181526020018280546135cf90615768565b801561361c5780601f106135f15761010080835404028352916020019161361c565b820191906000526020600020905b8154815290600101906020018083116135ff57829003601f168201915b5050505050815260200160038201805461363590615768565b80601f016020809104026020016040519081016040528092919081815260200182805461366190615768565b80156136ae5780601f10613683576101008083540402835291602001916136ae565b820191906000526020600020905b81548152906001019060200180831161369157829003601f168201915b505050505081526020016004820180546136c790615768565b80601f01602080910402602001604051908101604052809291908181526020018280546136f390615768565b80156137405780601f1061371557610100808354040283529160200191613740565b820191906000526020600020905b81548152906001019060200180831161372357829003601f168201915b5050505050815260200160058201805461375990615768565b80601f016020809104026020016040519081016040528092919081815260200182805461378590615768565b80156137d25780601f106137a7576101008083540402835291602001916137d2565b820191906000526020600020905b8154815290600101906020018083116137b557829003601f168201915b5050505050815250508152602001600b82016040518060a00160405290816000820154815260200160018201805461380990615768565b80601f016020809104026020016040519081016040528092919081815260200182805461383590615768565b80156138825780601f1061385757610100808354040283529160200191613882565b820191906000526020600020905b81548152906001019060200180831161386557829003601f168201915b5050505050815260200160028201805461389b90615768565b80601f01602080910402602001604051908101604052809291908181526020018280546138c790615768565b80156139145780601f106138e957610100808354040283529160200191613914565b820191906000526020600020905b8154815290600101906020018083116138f757829003601f168201915b5050505050815260200160038201805461392d90615768565b80601f016020809104026020016040519081016040528092919081815260200182805461395990615768565b80156139a65780601f1061397b576101008083540402835291602001916139a6565b820191906000526020600020905b81548152906001019060200180831161398957829003601f168201915b505050505081526020016004820154815250508152505081526020019060010190613382565b50505050905092915050565b6040518060a00160405280600081526020016000815260200160608152602001613a00613ae6565b8152602001613a0d613b37565b81525090565b828054613a1f90615768565b90600052602060002090601f016020900481019282613a415760008555613a88565b82601f10613a5a57805160ff1916838001178555613a88565b82800160010185558215613a88579182015b82811115613a87578251825591602001919060010190613a6c565b5b509050613a959190613b6d565b5090565b828054828255906000526020600020908101928215613ad5579160200282015b82811115613ad4578251825591602001919060010190613ab9565b5b509050613ae29190613b6d565b5090565b604051806101000160405280600081526020016000815260200160608152602001606081526020016000815260200160608152602001613b24613b8a565b8152602001613b31613bd6565b81525090565b6040518060c001604052806000815260200160608152602001600081526020016000815260200160608152602001606081525090565b5b80821115613b86576000816000905550600101613b6e565b5090565b6040518061012001604052806000815260200160608152602001606081526020016060815260200160608152602001600081526020016000815260200160608152602001606081525090565b60405180606001604052806000815260200160608152602001606081525090565b6000604051905090565b600080fd5b600080fd5b6000819050919050565b613c1e81613c0b565b8114613c2957600080fd5b50565b600081359050613c3b81613c15565b92915050565b600060208284031215613c5757613c56613c01565b5b6000613c6584828501613c2c565b91505092915050565b613c7781613c0b565b82525050565b6000819050919050565b613c9081613c7d565b82525050565b600081519050919050565b600082825260208201905092915050565b60005b83811015613cd0578082015181840152602081019050613cb5565b83811115613cdf576000848401525b50505050565b6000601f19601f8301169050919050565b6000613d0182613c96565b613d0b8185613ca1565b9350613d1b818560208601613cb2565b613d2481613ce5565b840191505092915050565b600081519050919050565b600082825260208201905092915050565b6000819050602082019050919050565b6000613d678383613c6e565b60208301905092915050565b6000602082019050919050565b6000613d8b82613d2f565b613d958185613d3a565b9350613da083613d4b565b8060005b83811015613dd1578151613db88882613d5b565b9750613dc383613d73565b925050600181019050613da4565b5085935050505092915050565b600061012083016000830151613df76000860182613c6e565b5060208301518482036020860152613e0f8282613cf6565b91505060408301518482036040860152613e298282613cf6565b91505060608301518482036060860152613e438282613cf6565b91505060808301518482036080860152613e5d8282613cf6565b91505060a0830151613e7260a0860182613c6e565b5060c0830151613e8560c0860182613c6e565b5060e083015184820360e0860152613e9d8282613cf6565b915050610100830151848203610100860152613eb98282613cf6565b9150508091505092915050565b6000606083016000830151613ede6000860182613c6e565b5060208301518482036020860152613ef68282613cf6565b91505060408301518482036040860152613f108282613cf6565b9150508091505092915050565b600061010083016000830151613f366000860182613c6e565b506020830151613f496020860182613c6e565b5060408301518482036040860152613f618282613cf6565b91505060608301518482036060860152613f7b8282613cf6565b9150506080830151613f906080860182613c6e565b5060a083015184820360a0860152613fa88282613d80565b91505060c083015184820360c0860152613fc28282613dde565b91505060e083015184820360e0860152613fdc8282613ec6565b9150508091505092915050565b600060c0830160008301516140016000860182613c6e565b50602083015184820360208601526140198282613cf6565b915050604083015161402e6040860182613c6e565b5060608301516140416060860182613c6e565b50608083015184820360808601526140598282613cf6565b91505060a083015184820360a08601526140738282613d80565b9150508091505092915050565b600060a0830160008301516140986000860182613c6e565b5060208301516140ab6020860182613c87565b50604083015184820360408601526140c38282613cf6565b915050606083015184820360608601526140dd8282613f1d565b915050608083015184820360808601526140f78282613fe9565b9150508091505092915050565b6000602082019050818103600083015261411e8184614080565b905092915050565b61412f81613c0b565b82525050565b600060208201905061414a6000830184614126565b92915050565b600082825260208201905092915050565b600061416c82613d2f565b6141768185614150565b935061418183613d4b565b8060005b838110156141b25781516141998882613d5b565b97506141a483613d73565b925050600181019050614185565b5085935050505092915050565b600060208201905081810360008301526141d98184614161565b905092915050565b600082825260208201905092915050565b60006141fd82613c96565b61420781856141e1565b9350614217818560208601613cb2565b61422081613ce5565b840191505092915050565b600060c0830160008301516142436000860182613c6e565b506020830151848203602086015261425b8282613cf6565b915050604083015184820360408601526142758282613cf6565b9150506060830151848203606086015261428f8282613cf6565b915050608083015184820360808601526142a98282613cf6565b91505060a083015184820360a08601526142c38282613cf6565b9150508091505092915050565b600060a0830160008301516142e86000860182613c6e565b50602083015184820360208601526143008282613cf6565b9150506040830151848203604086015261431a8282613cf6565b915050606083015184820360608601526143348282613cf6565b91505060808301516143496080860182613c6e565b508091505092915050565b600060e082019050614369600083018a614126565b6143766020830189614126565b818103604083015261438881886141f2565b9050818103606083015261439c81876141f2565b90506143ab6080830186614126565b81810360a08301526143bd818561422b565b905081810360c08301526143d181846142d0565b905098975050505050505050565b6143e881613c7d565b82525050565b6000610100830160008301516144076000860182613c6e565b50602083015161441a6020860182613c6e565b50604083015184820360408601526144328282613cf6565b9150506060830151848203606086015261444c8282613cf6565b91505060808301516144616080860182613c6e565b5060a083015184820360a08601526144798282613d80565b91505060c083015184820360c08601526144938282613dde565b91505060e083015184820360e08601526144ad8282613ec6565b9150508091505092915050565b600060c0830160008301516144d26000860182613c6e565b50602083015184820360208601526144ea8282613cf6565b91505060408301516144ff6040860182613c6e565b5060608301516145126060860182613c6e565b506080830151848203608086015261452a8282613cf6565b91505060a083015184820360a08601526145448282613d80565b9150508091505092915050565b600060a0820190506145666000830188614126565b61457360208301876143df565b818103604083015261458581866141f2565b9050818103606083015261459981856143ee565b905081810360808301526145ad81846144ba565b90509695505050505050565b600081519050919050565b600082825260208201905092915050565b6000819050602082019050919050565b600060a0830160008301516145fd6000860182613c6e565b5060208301516146106020860182613c87565b50604083015184820360408601526146288282613cf6565b915050606083015184820360608601526146428282613f1d565b9150506080830151848203608086015261465c8282613fe9565b9150508091505092915050565b600061467583836145e5565b905092915050565b6000602082019050919050565b6000614695826145b9565b61469f81856145c4565b9350836020820285016146b1856145d5565b8060005b858110156146ed57848403895281516146ce8582614669565b94506146d98361467d565b925060208a019950506001810190506146b5565b50829750879550505050505092915050565b60006020820190508181036000830152614719818461468a565b905092915050565b600080fd5b7f4e487b7100000000000000000000000000000000000000000000000000000000600052604160045260246000fd5b61475e82613ce5565b810181811067ffffffffffffffff8211171561477d5761477c614726565b5b80604052505050565b6000614790613bf7565b905061479c8282614755565b919050565b600067ffffffffffffffff8211156147bc576147bb614726565b5b602082029050602081019050919050565b600080fd5b600080fd5b600080fd5b6147e581613c7d565b81146147f057600080fd5b50565b600081359050614802816147dc565b92915050565b600080fd5b600067ffffffffffffffff82111561482857614827614726565b5b61483182613ce5565b9050602081019050919050565b82818337600083830152505050565b600061486061485b8461480d565b614786565b90508281526020810184848401111561487c5761487b614808565b5b61488784828561483e565b509392505050565b600082601f8301126148a4576148a3614721565b5b81356148b484826020860161484d565b91505092915050565b600067ffffffffffffffff8211156148d8576148d7614726565b5b602082029050602081019050919050565b60006148fc6148f7846148bd565b614786565b9050808382526020820190506020840283018581111561491f5761491e6147cd565b5b835b8181101561494857806149348882613c2c565b845260208401935050602081019050614921565b5050509392505050565b600082601f83011261496757614966614721565b5b81356149778482602086016148e9565b91505092915050565b60006101208284031215614997576149966147d2565b5b6149a2610120614786565b905060006149b284828501613c2c565b600083015250602082013567ffffffffffffffff8111156149d6576149d56147d7565b5b6149e28482850161488f565b602083015250604082013567ffffffffffffffff811115614a0657614a056147d7565b5b614a128482850161488f565b604083015250606082013567ffffffffffffffff811115614a3657614a356147d7565b5b614a428482850161488f565b606083015250608082013567ffffffffffffffff811115614a6657614a656147d7565b5b614a728482850161488f565b60808301525060a0614a8684828501613c2c565b60a08301525060c0614a9a84828501613c2c565b60c08301525060e082013567ffffffffffffffff811115614abe57614abd6147d7565b5b614aca8482850161488f565b60e08301525061010082013567ffffffffffffffff811115614aef57614aee6147d7565b5b614afb8482850161488f565b6101008301525092915050565b600060608284031215614b1e57614b1d6147d2565b5b614b286060614786565b90506000614b3884828501613c2c565b600083015250602082013567ffffffffffffffff811115614b5c57614b5b6147d7565b5b614b688482850161488f565b602083015250604082013567ffffffffffffffff811115614b8c57614b8b6147d7565b5b614b988482850161488f565b60408301525092915050565b60006101008284031215614bbb57614bba6147d2565b5b614bc6610100614786565b90506000614bd684828501613c2c565b6000830152506020614bea84828501613c2c565b602083015250604082013567ffffffffffffffff811115614c0e57614c0d6147d7565b5b614c1a8482850161488f565b604083015250606082013567ffffffffffffffff811115614c3e57614c3d6147d7565b5b614c4a8482850161488f565b6060830152506080614c5e84828501613c2c565b60808301525060a082013567ffffffffffffffff811115614c8257614c816147d7565b5b614c8e84828501614952565b60a08301525060c082013567ffffffffffffffff811115614cb257614cb16147d7565b5b614cbe84828501614980565b60c08301525060e082013567ffffffffffffffff811115614ce257614ce16147d7565b5b614cee84828501614b08565b60e08301525092915050565b600060c08284031215614d1057614d0f6147d2565b5b614d1a60c0614786565b90506000614d2a84828501613c2c565b600083015250602082013567ffffffffffffffff811115614d4e57614d4d6147d7565b5b614d5a8482850161488f565b6020830152506040614d6e84828501613c2c565b6040830152506060614d8284828501613c2c565b606083015250608082013567ffffffffffffffff811115614da657614da56147d7565b5b614db28482850161488f565b60808301525060a082013567ffffffffffffffff811115614dd657614dd56147d7565b5b614de284828501614952565b60a08301525092915050565b600060a08284031215614e0457614e036147d2565b5b614e0e60a0614786565b90506000614e1e84828501613c2c565b6000830152506020614e32848285016147f3565b602083015250604082013567ffffffffffffffff811115614e5657614e556147d7565b5b614e628482850161488f565b604083015250606082013567ffffffffffffffff811115614e8657614e856147d7565b5b614e9284828501614ba4565b606083015250608082013567ffffffffffffffff811115614eb657614eb56147d7565b5b614ec284828501614cfa565b60808301525092915050565b6000614ee1614edc846147a1565b614786565b90508083825260208201905060208402830185811115614f0457614f036147cd565b5b835b81811015614f4b57803567ffffffffffffffff811115614f2957614f28614721565b5b808601614f368982614dee565b85526020850194505050602081019050614f06565b5050509392505050565b600082601f830112614f6a57614f69614721565b5b8135614f7a848260208601614ece565b91505092915050565b60008060408385031215614f9a57614f99613c01565b5b600083013567ffffffffffffffff811115614fb857614fb7613c06565b5b614fc485828601614f55565b9250506020614fd585828601613c2c565b9150509250929050565b600067ffffffffffffffff821115614ffa57614ff9614726565b5b602082029050602081019050919050565b600060c08284031215615021576150206147d2565b5b61502b60c0614786565b9050600061503b84828501613c2c565b600083015250602082013567ffffffffffffffff81111561505f5761505e6147d7565b5b61506b8482850161488f565b602083015250604082013567ffffffffffffffff81111561508f5761508e6147d7565b5b61509b8482850161488f565b604083015250606082013567ffffffffffffffff8111156150bf576150be6147d7565b5b6150cb8482850161488f565b606083015250608082013567ffffffffffffffff8111156150ef576150ee6147d7565b5b6150fb8482850161488f565b60808301525060a082013567ffffffffffffffff81111561511f5761511e6147d7565b5b61512b8482850161488f565b60a08301525092915050565b600060a0828403121561514d5761514c6147d2565b5b61515760a0614786565b9050600061516784828501613c2c565b600083015250602082013567ffffffffffffffff81111561518b5761518a6147d7565b5b6151978482850161488f565b602083015250604082013567ffffffffffffffff8111156151bb576151ba6147d7565b5b6151c78482850161488f565b604083015250606082013567ffffffffffffffff8111156151eb576151ea6147d7565b5b6151f78482850161488f565b606083015250608061520b84828501613c2c565b60808301525092915050565b600060e0828403121561522d5761522c6147d2565b5b61523760e0614786565b9050600061524784828501613c2c565b600083015250602061525b84828501613c2c565b602083015250604082013567ffffffffffffffff81111561527f5761527e6147d7565b5b61528b8482850161488f565b604083015250606082013567ffffffffffffffff8111156152af576152ae6147d7565b5b6152bb8482850161488f565b60608301525060806152cf84828501613c2c565b60808301525060a082013567ffffffffffffffff8111156152f3576152f26147d7565b5b6152ff8482850161500b565b60a08301525060c082013567ffffffffffffffff811115615323576153226147d7565b5b61532f84828501615137565b60c08301525092915050565b600061534e61534984614fdf565b614786565b90508083825260208201905060208402830185811115615371576153706147cd565b5b835b818110156153b857803567ffffffffffffffff81111561539657615395614721565b5b8086016153a38982615217565b85526020850194505050602081019050615373565b5050509392505050565b600082601f8301126153d7576153d6614721565b5b81356153e784826020860161533b565b91505092915050565b6000806040838503121561540757615406613c01565b5b600061541585828601613c2c565b925050602083013567ffffffffffffffff81111561543657615435613c06565b5b615442858286016153c2565b9150509250929050565b600081519050919050565b600082825260208201905092915050565b6000819050602082019050919050565b600060c0830160008301516154906000860182613c6e565b50602083015184820360208601526154a88282613cf6565b915050604083015184820360408601526154c28282613cf6565b915050606083015184820360608601526154dc8282613cf6565b915050608083015184820360808601526154f68282613cf6565b91505060a083015184820360a08601526155108282613cf6565b9150508091505092915050565b600060a0830160008301516155356000860182613c6e565b506020830151848203602086015261554d8282613cf6565b915050604083015184820360408601526155678282613cf6565b915050606083015184820360608601526155818282613cf6565b91505060808301516155966080860182613c6e565b508091505092915050565b600060e0830160008301516155b96000860182613c6e565b5060208301516155cc6020860182613c6e565b50604083015184820360408601526155e48282613cf6565b915050606083015184820360608601526155fe8282613cf6565b91505060808301516156136080860182613c6e565b5060a083015184820360a086015261562b8282615478565b91505060c083015184820360c0860152615645828261551d565b9150508091505092915050565b600061565e83836155a1565b905092915050565b6000602082019050919050565b600061567e8261544c565b6156888185615457565b93508360208202850161569a85615468565b8060005b858110156156d657848403895281516156b78582615652565b94506156c283615666565b925060208a0199505060018101905061569e565b50829750879550505050505092915050565b600060208201905081810360008301526157028184615673565b905092915050565b7f4e487b7100000000000000000000000000000000000000000000000000000000600052603260045260246000fd5b7f4e487b7100000000000000000000000000000000000000000000000000000000600052602260045260246000fd5b6000600282049050600182168061578057607f821691505b6020821081141561579457615793615739565b5b50919050565b7f4e487b7100000000000000000000000000000000000000000000000000000000600052601160045260246000fd5b60006157d482613c0b565b91507fffffffffffffffffffffffffffffffffffffffffffffffffffffffffffffffff8214156158075761580661579a565b5b60018201905091905056fea26469706673582212203bf48e4e7753ed253253e76b90cdc8389fc3012990c51685d7545ce4aaeb5d1b64736f6c634300080b0033",
  "immutableReferences": {},
  "source": "// SPDX-License-Identifier: MIT\r\npragma solidity >=0.4.22 <0.9.0;\r\nimport \"./Remplissage.sol\";\r\n\r\ncontract RetraitCol is Remplissage {\r\n    //*********************************************************************************/\r\n    //second app\r\n    //******************************************************************************/\r\n    Operation[] public operationagrs;\r\n    OperationTank0[] public operationTankR;\r\n    uint[] public nbreOP ;\r\n    \r\n    function RetraitOperationTank(\r\n        OperationTank0[] memory operationTank,\r\n        uint256 count\r\n    ) public returns (OperationTank0[] memory tt0) {\r\n        nbreOP.push(0);\r\n        for (uint256 i = 0; i < count; i++) {\r\n            operationTankR.push(operationTank[i]);\r\n        }\r\n        return (operationTankR);\r\n    }\r\n    //get nombre operatuin\r\n    function getOperationNumbers()\r\n        public\r\n        view\r\n        returns (uint[] memory result)\r\n    {\r\n        return nbreOP;\r\n    }\r\n    //get all operations\r\n\r\n    function getOperationTanks()\r\n        public\r\n        view\r\n        returns (OperationTank0[] memory result)\r\n    {\r\n        return operationTankR;\r\n    }\r\n\r\n    function getOperationbycode(uint256 code, Operation[] memory operation2)\r\n        public\r\n        returns (Operation[] memory operationtwo)\r\n    {\r\n        for (uint256 i = 0; i < operationTankR.length; i++) {\r\n            if (operationTankR[i].operation.code == code) {\r\n                for (uint256 j = 0;j < operationTankR[i].tank.codeTank.length;j++)\r\n                   {\r\n                    for (uint256 f = 0; f < operation2.length; f++) {\r\n                        if (\r\n                            operation2[f].code ==\r\n                            operationTankR[i].tank.codeTank[j]\r\n                        ) {\r\n                            operationagrs.push(operation2[f]);\r\n                        }\r\n                    }\r\n                }\r\n            }\r\n        }\r\n        return operationagrs;\r\n    }\r\n\r\n    function getOperationFromAgrsbycode(uint256 code)\r\n        public\r\n        view\r\n        returns (OperationTank0 memory operation)\r\n    {\r\n        for (uint256 i = 0; i < operationTankR.length; i++) {\r\n            if (operationTankR[i].operation.code == code) {\r\n                return operationTankR[i];\r\n            }\r\n        }\r\n    }\r\n}\r\n",
  "sourcePath": "C:\\Users\\Nour\\Desktop\\PFE_Project2022\\PFE-FrontEnd\\contracts\\RetraitCol.sol",
  "compiler": {
    "name": "solc",
    "version": "0.8.11+commit.d7f03943.Emscripten.clang"
  },
  "schemaVersion": "3.4.6",
  "updatedAt": "2022-06-01T16:12:40.924Z",
  "networkType": "ethereum",
  "devdoc": {
    "kind": "dev",
    "methods": {},
    "version": 1
  },
  "userdoc": {
    "kind": "user",
    "methods": {},
    "version": 1
  }
}