{
  "contractName": "RetraitCol",
  "abi": [
    {
      "inputs": [
        {
          "internalType": "uint256",
          "name": "",
          "type": "uint256"
        }
      ],
      "name": "ALLS",
      "outputs": [
        {
          "internalType": "string",
          "name": "",
          "type": "string"
        }
      ],
      "stateMutability": "view",
      "type": "function",
      "constant": true
    },
    {
      "inputs": [
        {
          "components": [
            {
              "internalType": "uint256",
              "name": "idOperation",
              "type": "uint256"
            },
            {
              "internalType": "uint256",
              "name": "poidsLait",
              "type": "uint256"
            },
            {
              "internalType": "string",
              "name": "dateOperation",
              "type": "string"
            },
            {
              "internalType": "string",
              "name": "typeOp",
              "type": "string"
            },
            {
              "internalType": "uint256",
              "name": "code",
              "type": "uint256"
            },
            {
              "components": [
                {
                  "internalType": "uint256",
                  "name": "idCollecteur",
                  "type": "uint256"
                },
                {
                  "internalType": "string",
                  "name": "nomCollecteur",
                  "type": "string"
                },
                {
                  "internalType": "string",
                  "name": "adresse",
                  "type": "string"
                },
                {
                  "internalType": "uint256",
                  "name": "tel",
                  "type": "uint256"
                }
              ],
              "internalType": "struct Remplissage.Collecteur",
              "name": "collecteur",
              "type": "tuple"
            },
            {
              "components": [
                {
                  "internalType": "uint256",
                  "name": "idAgriculteur",
                  "type": "uint256"
                },
                {
                  "internalType": "string",
                  "name": "nom",
                  "type": "string"
                },
                {
                  "internalType": "string",
                  "name": "prenom",
                  "type": "string"
                },
                {
                  "internalType": "string",
                  "name": "username",
                  "type": "string"
                },
                {
                  "internalType": "string",
                  "name": "password",
                  "type": "string"
                }
              ],
              "internalType": "struct Remplissage.Agriculteur",
              "name": "agriculteur",
              "type": "tuple"
            }
          ],
          "internalType": "struct Remplissage.Operation",
          "name": "op",
          "type": "tuple"
        }
      ],
      "name": "addOperation2",
      "outputs": [
        {
          "components": [
            {
              "internalType": "uint256",
              "name": "idOperation",
              "type": "uint256"
            },
            {
              "internalType": "uint256",
              "name": "poidsLait",
              "type": "uint256"
            },
            {
              "internalType": "string",
              "name": "dateOperation",
              "type": "string"
            },
            {
              "internalType": "string",
              "name": "typeOp",
              "type": "string"
            },
            {
              "internalType": "uint256",
              "name": "code",
              "type": "uint256"
            },
            {
              "components": [
                {
                  "internalType": "uint256",
                  "name": "idCollecteur",
                  "type": "uint256"
                },
                {
                  "internalType": "string",
                  "name": "nomCollecteur",
                  "type": "string"
                },
                {
                  "internalType": "string",
                  "name": "adresse",
                  "type": "string"
                },
                {
                  "internalType": "uint256",
                  "name": "tel",
                  "type": "uint256"
                }
              ],
              "internalType": "struct Remplissage.Collecteur",
              "name": "collecteur",
              "type": "tuple"
            },
            {
              "components": [
                {
                  "internalType": "uint256",
                  "name": "idAgriculteur",
                  "type": "uint256"
                },
                {
                  "internalType": "string",
                  "name": "nom",
                  "type": "string"
                },
                {
                  "internalType": "string",
                  "name": "prenom",
                  "type": "string"
                },
                {
                  "internalType": "string",
                  "name": "username",
                  "type": "string"
                },
                {
                  "internalType": "string",
                  "name": "password",
                  "type": "string"
                }
              ],
              "internalType": "struct Remplissage.Agriculteur",
              "name": "agriculteur",
              "type": "tuple"
            }
          ],
          "internalType": "struct Remplissage.Operation",
          "name": "op0",
          "type": "tuple"
        }
      ],
      "stateMutability": "nonpayable",
      "type": "function"
    },
    {
      "inputs": [
        {
          "internalType": "uint256",
          "name": "id",
          "type": "uint256"
        }
      ],
      "name": "getOperation",
      "outputs": [
        {
          "components": [
            {
              "internalType": "uint256",
              "name": "idOperation",
              "type": "uint256"
            },
            {
              "internalType": "uint256",
              "name": "poidsLait",
              "type": "uint256"
            },
            {
              "internalType": "string",
              "name": "dateOperation",
              "type": "string"
            },
            {
              "internalType": "string",
              "name": "typeOp",
              "type": "string"
            },
            {
              "internalType": "uint256",
              "name": "code",
              "type": "uint256"
            },
            {
              "components": [
                {
                  "internalType": "uint256",
                  "name": "idCollecteur",
                  "type": "uint256"
                },
                {
                  "internalType": "string",
                  "name": "nomCollecteur",
                  "type": "string"
                },
                {
                  "internalType": "string",
                  "name": "adresse",
                  "type": "string"
                },
                {
                  "internalType": "uint256",
                  "name": "tel",
                  "type": "uint256"
                }
              ],
              "internalType": "struct Remplissage.Collecteur",
              "name": "collecteur",
              "type": "tuple"
            },
            {
              "components": [
                {
                  "internalType": "uint256",
                  "name": "idAgriculteur",
                  "type": "uint256"
                },
                {
                  "internalType": "string",
                  "name": "nom",
                  "type": "string"
                },
                {
                  "internalType": "string",
                  "name": "prenom",
                  "type": "string"
                },
                {
                  "internalType": "string",
                  "name": "username",
                  "type": "string"
                },
                {
                  "internalType": "string",
                  "name": "password",
                  "type": "string"
                }
              ],
              "internalType": "struct Remplissage.Agriculteur",
              "name": "agriculteur",
              "type": "tuple"
            }
          ],
          "internalType": "struct Remplissage.Operation",
          "name": "operation",
          "type": "tuple"
        }
      ],
      "stateMutability": "view",
      "type": "function",
      "constant": true
    },
    {
      "inputs": [],
      "name": "getOperations",
      "outputs": [
        {
          "components": [
            {
              "internalType": "uint256",
              "name": "idOperation",
              "type": "uint256"
            },
            {
              "internalType": "uint256",
              "name": "poidsLait",
              "type": "uint256"
            },
            {
              "internalType": "string",
              "name": "dateOperation",
              "type": "string"
            },
            {
              "internalType": "string",
              "name": "typeOp",
              "type": "string"
            },
            {
              "internalType": "uint256",
              "name": "code",
              "type": "uint256"
            },
            {
              "components": [
                {
                  "internalType": "uint256",
                  "name": "idCollecteur",
                  "type": "uint256"
                },
                {
                  "internalType": "string",
                  "name": "nomCollecteur",
                  "type": "string"
                },
                {
                  "internalType": "string",
                  "name": "adresse",
                  "type": "string"
                },
                {
                  "internalType": "uint256",
                  "name": "tel",
                  "type": "uint256"
                }
              ],
              "internalType": "struct Remplissage.Collecteur",
              "name": "collecteur",
              "type": "tuple"
            },
            {
              "components": [
                {
                  "internalType": "uint256",
                  "name": "idAgriculteur",
                  "type": "uint256"
                },
                {
                  "internalType": "string",
                  "name": "nom",
                  "type": "string"
                },
                {
                  "internalType": "string",
                  "name": "prenom",
                  "type": "string"
                },
                {
                  "internalType": "string",
                  "name": "username",
                  "type": "string"
                },
                {
                  "internalType": "string",
                  "name": "password",
                  "type": "string"
                }
              ],
              "internalType": "struct Remplissage.Agriculteur",
              "name": "agriculteur",
              "type": "tuple"
            }
          ],
          "internalType": "struct Remplissage.Operation[]",
          "name": "result",
          "type": "tuple[]"
        }
      ],
      "stateMutability": "view",
      "type": "function",
      "constant": true
    },
    {
      "inputs": [],
      "name": "nextID",
      "outputs": [
        {
          "internalType": "uint256",
          "name": "",
          "type": "uint256"
        }
      ],
      "stateMutability": "view",
      "type": "function",
      "constant": true
    },
    {
      "inputs": [
        {
          "internalType": "uint256",
          "name": "",
          "type": "uint256"
        }
      ],
      "name": "operationTankR",
      "outputs": [
        {
          "internalType": "uint256",
          "name": "idOpTank",
          "type": "uint256"
        },
        {
          "internalType": "uint256",
          "name": "qteInsereTank",
          "type": "uint256"
        },
        {
          "internalType": "string",
          "name": "date",
          "type": "string"
        },
        {
          "components": [
            {
              "internalType": "uint256",
              "name": "idOperation",
              "type": "uint256"
            },
            {
              "internalType": "uint256",
              "name": "poidsLait",
              "type": "uint256"
            },
            {
              "internalType": "string",
              "name": "dateOperation",
              "type": "string"
            },
            {
              "internalType": "string",
              "name": "typeOp",
              "type": "string"
            },
            {
              "internalType": "uint256",
              "name": "code",
              "type": "uint256"
            },
            {
              "components": [
                {
                  "internalType": "uint256",
                  "name": "idChef",
                  "type": "uint256"
                },
                {
                  "internalType": "string",
                  "name": "nom",
                  "type": "string"
                },
                {
                  "internalType": "string",
                  "name": "prenom",
                  "type": "string"
                },
                {
                  "internalType": "string",
                  "name": "email",
                  "type": "string"
                },
                {
                  "internalType": "string",
                  "name": "adress",
                  "type": "string"
                },
                {
                  "internalType": "uint256",
                  "name": "tel",
                  "type": "uint256"
                },
                {
                  "internalType": "uint256",
                  "name": "cin",
                  "type": "uint256"
                },
                {
                  "internalType": "string",
                  "name": "username",
                  "type": "string"
                },
                {
                  "internalType": "string",
                  "name": "password",
                  "type": "string"
                }
              ],
              "internalType": "struct Remplissage.Chef",
              "name": "chef",
              "type": "tuple"
            },
            {
              "components": [
                {
                  "internalType": "uint256",
                  "name": "idUsine",
                  "type": "uint256"
                },
                {
                  "internalType": "string",
                  "name": "nomUsine",
                  "type": "string"
                },
                {
                  "internalType": "string",
                  "name": "adresse",
                  "type": "string"
                }
              ],
              "internalType": "struct Remplissage.Usine",
              "name": "usine",
              "type": "tuple"
            }
          ],
          "internalType": "struct Remplissage.Operation01",
          "name": "operation",
          "type": "tuple"
        },
        {
          "components": [
            {
              "internalType": "uint256",
              "name": "idTank",
              "type": "uint256"
            },
            {
              "internalType": "string",
              "name": "matricule",
              "type": "string"
            },
            {
              "internalType": "uint256",
              "name": "poidVide",
              "type": "uint256"
            },
            {
              "internalType": "uint256",
              "name": "poidActuel",
              "type": "uint256"
            },
            {
              "internalType": "string",
              "name": "etat",
              "type": "string"
            }
          ],
          "internalType": "struct Remplissage.Tank",
          "name": "tank",
          "type": "tuple"
        }
      ],
      "stateMutability": "view",
      "type": "function",
      "constant": true
    },
    {
      "inputs": [
        {
          "internalType": "uint256",
          "name": "",
          "type": "uint256"
        }
      ],
      "name": "operations2",
      "outputs": [
        {
          "internalType": "uint256",
          "name": "idOperation",
          "type": "uint256"
        },
        {
          "internalType": "uint256",
          "name": "poidsLait",
          "type": "uint256"
        },
        {
          "internalType": "string",
          "name": "dateOperation",
          "type": "string"
        },
        {
          "internalType": "string",
          "name": "typeOp",
          "type": "string"
        },
        {
          "internalType": "uint256",
          "name": "code",
          "type": "uint256"
        },
        {
          "components": [
            {
              "internalType": "uint256",
              "name": "idCollecteur",
              "type": "uint256"
            },
            {
              "internalType": "string",
              "name": "nomCollecteur",
              "type": "string"
            },
            {
              "internalType": "string",
              "name": "adresse",
              "type": "string"
            },
            {
              "internalType": "uint256",
              "name": "tel",
              "type": "uint256"
            }
          ],
          "internalType": "struct Remplissage.Collecteur",
          "name": "collecteur",
          "type": "tuple"
        },
        {
          "components": [
            {
              "internalType": "uint256",
              "name": "idAgriculteur",
              "type": "uint256"
            },
            {
              "internalType": "string",
              "name": "nom",
              "type": "string"
            },
            {
              "internalType": "string",
              "name": "prenom",
              "type": "string"
            },
            {
              "internalType": "string",
              "name": "username",
              "type": "string"
            },
            {
              "internalType": "string",
              "name": "password",
              "type": "string"
            }
          ],
          "internalType": "struct Remplissage.Agriculteur",
          "name": "agriculteur",
          "type": "tuple"
        }
      ],
      "stateMutability": "view",
      "type": "function",
      "constant": true
    },
    {
      "inputs": [
        {
          "components": [
            {
              "internalType": "uint256",
              "name": "idOpTank",
              "type": "uint256"
            },
            {
              "internalType": "uint256",
              "name": "qteInsereTank",
              "type": "uint256"
            },
            {
              "internalType": "string",
              "name": "date",
              "type": "string"
            },
            {
              "components": [
                {
                  "internalType": "uint256",
                  "name": "idOperation",
                  "type": "uint256"
                },
                {
                  "internalType": "uint256",
                  "name": "poidsLait",
                  "type": "uint256"
                },
                {
                  "internalType": "string",
                  "name": "dateOperation",
                  "type": "string"
                },
                {
                  "internalType": "string",
                  "name": "typeOp",
                  "type": "string"
                },
                {
                  "internalType": "uint256",
                  "name": "code",
                  "type": "uint256"
                },
                {
                  "components": [
                    {
                      "internalType": "uint256",
                      "name": "idChef",
                      "type": "uint256"
                    },
                    {
                      "internalType": "string",
                      "name": "nom",
                      "type": "string"
                    },
                    {
                      "internalType": "string",
                      "name": "prenom",
                      "type": "string"
                    },
                    {
                      "internalType": "string",
                      "name": "email",
                      "type": "string"
                    },
                    {
                      "internalType": "string",
                      "name": "adress",
                      "type": "string"
                    },
                    {
                      "internalType": "uint256",
                      "name": "tel",
                      "type": "uint256"
                    },
                    {
                      "internalType": "uint256",
                      "name": "cin",
                      "type": "uint256"
                    },
                    {
                      "internalType": "string",
                      "name": "username",
                      "type": "string"
                    },
                    {
                      "internalType": "string",
                      "name": "password",
                      "type": "string"
                    }
                  ],
                  "internalType": "struct Remplissage.Chef",
                  "name": "chef",
                  "type": "tuple"
                },
                {
                  "components": [
                    {
                      "internalType": "uint256",
                      "name": "idUsine",
                      "type": "uint256"
                    },
                    {
                      "internalType": "string",
                      "name": "nomUsine",
                      "type": "string"
                    },
                    {
                      "internalType": "string",
                      "name": "adresse",
                      "type": "string"
                    }
                  ],
                  "internalType": "struct Remplissage.Usine",
                  "name": "usine",
                  "type": "tuple"
                }
              ],
              "internalType": "struct Remplissage.Operation01",
              "name": "operation",
              "type": "tuple"
            },
            {
              "components": [
                {
                  "internalType": "uint256",
                  "name": "idTank",
                  "type": "uint256"
                },
                {
                  "internalType": "string",
                  "name": "matricule",
                  "type": "string"
                },
                {
                  "internalType": "uint256",
                  "name": "poidVide",
                  "type": "uint256"
                },
                {
                  "internalType": "uint256",
                  "name": "poidActuel",
                  "type": "uint256"
                },
                {
                  "internalType": "string",
                  "name": "etat",
                  "type": "string"
                }
              ],
              "internalType": "struct Remplissage.Tank",
              "name": "tank",
              "type": "tuple"
            }
          ],
          "internalType": "struct Remplissage.OperationTank0[]",
          "name": "operationTank",
          "type": "tuple[]"
        },
        {
          "internalType": "uint256",
          "name": "count",
          "type": "uint256"
        }
      ],
      "name": "RetraitOperationTank",
      "outputs": [
        {
          "components": [
            {
              "internalType": "uint256",
              "name": "idOpTank",
              "type": "uint256"
            },
            {
              "internalType": "uint256",
              "name": "qteInsereTank",
              "type": "uint256"
            },
            {
              "internalType": "string",
              "name": "date",
              "type": "string"
            },
            {
              "components": [
                {
                  "internalType": "uint256",
                  "name": "idOperation",
                  "type": "uint256"
                },
                {
                  "internalType": "uint256",
                  "name": "poidsLait",
                  "type": "uint256"
                },
                {
                  "internalType": "string",
                  "name": "dateOperation",
                  "type": "string"
                },
                {
                  "internalType": "string",
                  "name": "typeOp",
                  "type": "string"
                },
                {
                  "internalType": "uint256",
                  "name": "code",
                  "type": "uint256"
                },
                {
                  "components": [
                    {
                      "internalType": "uint256",
                      "name": "idChef",
                      "type": "uint256"
                    },
                    {
                      "internalType": "string",
                      "name": "nom",
                      "type": "string"
                    },
                    {
                      "internalType": "string",
                      "name": "prenom",
                      "type": "string"
                    },
                    {
                      "internalType": "string",
                      "name": "email",
                      "type": "string"
                    },
                    {
                      "internalType": "string",
                      "name": "adress",
                      "type": "string"
                    },
                    {
                      "internalType": "uint256",
                      "name": "tel",
                      "type": "uint256"
                    },
                    {
                      "internalType": "uint256",
                      "name": "cin",
                      "type": "uint256"
                    },
                    {
                      "internalType": "string",
                      "name": "username",
                      "type": "string"
                    },
                    {
                      "internalType": "string",
                      "name": "password",
                      "type": "string"
                    }
                  ],
                  "internalType": "struct Remplissage.Chef",
                  "name": "chef",
                  "type": "tuple"
                },
                {
                  "components": [
                    {
                      "internalType": "uint256",
                      "name": "idUsine",
                      "type": "uint256"
                    },
                    {
                      "internalType": "string",
                      "name": "nomUsine",
                      "type": "string"
                    },
                    {
                      "internalType": "string",
                      "name": "adresse",
                      "type": "string"
                    }
                  ],
                  "internalType": "struct Remplissage.Usine",
                  "name": "usine",
                  "type": "tuple"
                }
              ],
              "internalType": "struct Remplissage.Operation01",
              "name": "operation",
              "type": "tuple"
            },
            {
              "components": [
                {
                  "internalType": "uint256",
                  "name": "idTank",
                  "type": "uint256"
                },
                {
                  "internalType": "string",
                  "name": "matricule",
                  "type": "string"
                },
                {
                  "internalType": "uint256",
                  "name": "poidVide",
                  "type": "uint256"
                },
                {
                  "internalType": "uint256",
                  "name": "poidActuel",
                  "type": "uint256"
                },
                {
                  "internalType": "string",
                  "name": "etat",
                  "type": "string"
                }
              ],
              "internalType": "struct Remplissage.Tank",
              "name": "tank",
              "type": "tuple"
            }
          ],
          "internalType": "struct Remplissage.OperationTank0[]",
          "name": "tt0",
          "type": "tuple[]"
        }
      ],
      "stateMutability": "nonpayable",
      "type": "function"
    },
    {
      "inputs": [],
      "name": "getOperationTanks",
      "outputs": [
        {
          "components": [
            {
              "internalType": "uint256",
              "name": "idOpTank",
              "type": "uint256"
            },
            {
              "internalType": "uint256",
              "name": "qteInsereTank",
              "type": "uint256"
            },
            {
              "internalType": "string",
              "name": "date",
              "type": "string"
            },
            {
              "components": [
                {
                  "internalType": "uint256",
                  "name": "idOperation",
                  "type": "uint256"
                },
                {
                  "internalType": "uint256",
                  "name": "poidsLait",
                  "type": "uint256"
                },
                {
                  "internalType": "string",
                  "name": "dateOperation",
                  "type": "string"
                },
                {
                  "internalType": "string",
                  "name": "typeOp",
                  "type": "string"
                },
                {
                  "internalType": "uint256",
                  "name": "code",
                  "type": "uint256"
                },
                {
                  "components": [
                    {
                      "internalType": "uint256",
                      "name": "idChef",
                      "type": "uint256"
                    },
                    {
                      "internalType": "string",
                      "name": "nom",
                      "type": "string"
                    },
                    {
                      "internalType": "string",
                      "name": "prenom",
                      "type": "string"
                    },
                    {
                      "internalType": "string",
                      "name": "email",
                      "type": "string"
                    },
                    {
                      "internalType": "string",
                      "name": "adress",
                      "type": "string"
                    },
                    {
                      "internalType": "uint256",
                      "name": "tel",
                      "type": "uint256"
                    },
                    {
                      "internalType": "uint256",
                      "name": "cin",
                      "type": "uint256"
                    },
                    {
                      "internalType": "string",
                      "name": "username",
                      "type": "string"
                    },
                    {
                      "internalType": "string",
                      "name": "password",
                      "type": "string"
                    }
                  ],
                  "internalType": "struct Remplissage.Chef",
                  "name": "chef",
                  "type": "tuple"
                },
                {
                  "components": [
                    {
                      "internalType": "uint256",
                      "name": "idUsine",
                      "type": "uint256"
                    },
                    {
                      "internalType": "string",
                      "name": "nomUsine",
                      "type": "string"
                    },
                    {
                      "internalType": "string",
                      "name": "adresse",
                      "type": "string"
                    }
                  ],
                  "internalType": "struct Remplissage.Usine",
                  "name": "usine",
                  "type": "tuple"
                }
              ],
              "internalType": "struct Remplissage.Operation01",
              "name": "operation",
              "type": "tuple"
            },
            {
              "components": [
                {
                  "internalType": "uint256",
                  "name": "idTank",
                  "type": "uint256"
                },
                {
                  "internalType": "string",
                  "name": "matricule",
                  "type": "string"
                },
                {
                  "internalType": "uint256",
                  "name": "poidVide",
                  "type": "uint256"
                },
                {
                  "internalType": "uint256",
                  "name": "poidActuel",
                  "type": "uint256"
                },
                {
                  "internalType": "string",
                  "name": "etat",
                  "type": "string"
                }
              ],
              "internalType": "struct Remplissage.Tank",
              "name": "tank",
              "type": "tuple"
            }
          ],
          "internalType": "struct Remplissage.OperationTank0[]",
          "name": "result",
          "type": "tuple[]"
        }
      ],
      "stateMutability": "view",
      "type": "function",
      "constant": true
    }
  ],
  "bytecode": "0x6080604052600160025534801561001557600080fd5b506149fb806100256000396000f3fe608060405234801561001057600080fd5b50600436106100935760003560e01c8063996ba7bb11610066578063996ba7bb14610146578063a96fe5f01461017c578063c9c28e0f146101b0578063f0993305146101ce578063f948e50a146101fe57610093565b80631e96917d14610098578063202e3924146100b65780635383bbfd146100e6578063627d612e14610116575b600080fd5b6100a061021c565b6040516100ad9190613253565b60405180910390f35b6100d060048036038101906100cb91906132ae565b610222565b6040516100dd9190613529565b60405180910390f35b61010060048036038101906100fb91906132ae565b6107a7565b60405161010d9190613595565b60405180910390f35b610130600480360381019061012b91906139c6565b610853565b60405161013d9190613529565b60405180910390f35b610160600480360381019061015b91906132ae565b610ab1565b6040516101739796959493929190613b04565b60405180910390f35b610196600480360381019061019191906132ae565b610fb1565b6040516101a7959493929190613dfc565b60405180910390f35b6101b86117f8565b6040516101c591906140d8565b60405180910390f35b6101e860048036038101906101e391906146cc565b61208a565b6040516101f591906140d8565b60405180910390f35b610206612ba4565b604051610213919061489b565b60405180910390f35b60025481565b61022a6130f7565b60005b6002548110156107a057826000828154811061024c5761024b6148bd565b5b90600052602060002090600e020160000154141561078d5760008181548110610278576102776148bd565b5b90600052602060002090600e02016040518060e001604052908160008201548152602001600182015481526020016002820180546102b59061491b565b80601f01602080910402602001604051908101604052809291908181526020018280546102e19061491b565b801561032e5780601f106103035761010080835404028352916020019161032e565b820191906000526020600020905b81548152906001019060200180831161031157829003601f168201915b505050505081526020016003820180546103479061491b565b80601f01602080910402602001604051908101604052809291908181526020018280546103739061491b565b80156103c05780601f10610395576101008083540402835291602001916103c0565b820191906000526020600020905b8154815290600101906020018083116103a357829003601f168201915b505050505081526020016004820154815260200160058201604051806080016040529081600082015481526020016001820180546103fd9061491b565b80601f01602080910402602001604051908101604052809291908181526020018280546104299061491b565b80156104765780601f1061044b57610100808354040283529160200191610476565b820191906000526020600020905b81548152906001019060200180831161045957829003601f168201915b5050505050815260200160028201805461048f9061491b565b80601f01602080910402602001604051908101604052809291908181526020018280546104bb9061491b565b80156105085780601f106104dd57610100808354040283529160200191610508565b820191906000526020600020905b8154815290600101906020018083116104eb57829003601f168201915b505050505081526020016003820154815250508152602001600982016040518060a0016040529081600082015481526020016001820180546105499061491b565b80601f01602080910402602001604051908101604052809291908181526020018280546105759061491b565b80156105c25780601f10610597576101008083540402835291602001916105c2565b820191906000526020600020905b8154815290600101906020018083116105a557829003601f168201915b505050505081526020016002820180546105db9061491b565b80601f01602080910402602001604051908101604052809291908181526020018280546106079061491b565b80156106545780601f1061062957610100808354040283529160200191610654565b820191906000526020600020905b81548152906001019060200180831161063757829003601f168201915b5050505050815260200160038201805461066d9061491b565b80601f01602080910402602001604051908101604052809291908181526020018280546106999061491b565b80156106e65780601f106106bb576101008083540402835291602001916106e6565b820191906000526020600020905b8154815290600101906020018083116106c957829003601f168201915b505050505081526020016004820180546106ff9061491b565b80601f016020809104026020016040519081016040528092919081815260200182805461072b9061491b565b80156107785780601f1061074d57610100808354040283529160200191610778565b820191906000526020600020905b81548152906001019060200180831161075b57829003601f168201915b505050505081525050815250509150506107a2565b80806107989061497c565b91505061022d565b505b919050565b600181815481106107b757600080fd5b9060005260206000200160009150905080546107d29061491b565b80601f01602080910402602001604051908101604052809291908181526020018280546107fe9061491b565b801561084b5780601f106108205761010080835404028352916020019161084b565b820191906000526020600020905b81548152906001019060200180831161082e57829003601f168201915b505050505081565b61085b6130f7565b60006040518060a001604052808460c001516000015181526020018460c001516020015181526020018460c001516040015181526020018460c001516060015181526020018460c00151608001518152509050600060405180608001604052808560a001516000015181526020018560a001516020015181526020018560a001516040015181526020018560a0015160600151815250905060006040518060e00160405280866000015181526020018660200151815260200186604001518152602001866060015181526020018660800151815260200183815260200184815250905060008190806001815401808255809150506001900390600052602060002090600e02016000909190919091506000820151816000015560208201518160010155604082015181600201908051906020019061099a929190613140565b5060608201518160030190805190602001906109b7929190613140565b506080820151816004015560a0820151816005016000820151816000015560208201518160010190805190602001906109f1929190613140565b506040820151816002019080519060200190610a0e929190613140565b5060608201518160030155505060c082015181600901600082015181600001556020820151816001019080519060200190610a4a929190613140565b506040820151816002019080519060200190610a67929190613140565b506060820151816003019080519060200190610a84929190613140565b506080820151816004019080519060200190610aa1929190613140565b5050505050809350505050919050565b60008181548110610ac157600080fd5b90600052602060002090600e0201600091509050806000015490806001015490806002018054610af09061491b565b80601f0160208091040260200160405190810160405280929190818152602001828054610b1c9061491b565b8015610b695780601f10610b3e57610100808354040283529160200191610b69565b820191906000526020600020905b815481529060010190602001808311610b4c57829003601f168201915b505050505090806003018054610b7e9061491b565b80601f0160208091040260200160405190810160405280929190818152602001828054610baa9061491b565b8015610bf75780601f10610bcc57610100808354040283529160200191610bf7565b820191906000526020600020905b815481529060010190602001808311610bda57829003601f168201915b5050505050908060040154908060050160405180608001604052908160008201548152602001600182018054610c2c9061491b565b80601f0160208091040260200160405190810160405280929190818152602001828054610c589061491b565b8015610ca55780601f10610c7a57610100808354040283529160200191610ca5565b820191906000526020600020905b815481529060010190602001808311610c8857829003601f168201915b50505050508152602001600282018054610cbe9061491b565b80601f0160208091040260200160405190810160405280929190818152602001828054610cea9061491b565b8015610d375780601f10610d0c57610100808354040283529160200191610d37565b820191906000526020600020905b815481529060010190602001808311610d1a57829003601f168201915b5050505050815260200160038201548152505090806009016040518060a001604052908160008201548152602001600182018054610d749061491b565b80601f0160208091040260200160405190810160405280929190818152602001828054610da09061491b565b8015610ded5780601f10610dc257610100808354040283529160200191610ded565b820191906000526020600020905b815481529060010190602001808311610dd057829003601f168201915b50505050508152602001600282018054610e069061491b565b80601f0160208091040260200160405190810160405280929190818152602001828054610e329061491b565b8015610e7f5780601f10610e5457610100808354040283529160200191610e7f565b820191906000526020600020905b815481529060010190602001808311610e6257829003601f168201915b50505050508152602001600382018054610e989061491b565b80601f0160208091040260200160405190810160405280929190818152602001828054610ec49061491b565b8015610f115780601f10610ee657610100808354040283529160200191610f11565b820191906000526020600020905b815481529060010190602001808311610ef457829003601f168201915b50505050508152602001600482018054610f2a9061491b565b80601f0160208091040260200160405190810160405280929190818152602001828054610f569061491b565b8015610fa35780601f10610f7857610100808354040283529160200191610fa3565b820191906000526020600020905b815481529060010190602001808311610f8657829003601f168201915b505050505081525050905087565b60038181548110610fc157600080fd5b9060005260206000209060190201600091509050806000015490806001015490806002018054610ff09061491b565b80601f016020809104026020016040519081016040528092919081815260200182805461101c9061491b565b80156110695780601f1061103e57610100808354040283529160200191611069565b820191906000526020600020905b81548152906001019060200180831161104c57829003601f168201915b505050505090806003016040518060e001604052908160008201548152602001600182015481526020016002820180546110a29061491b565b80601f01602080910402602001604051908101604052809291908181526020018280546110ce9061491b565b801561111b5780601f106110f05761010080835404028352916020019161111b565b820191906000526020600020905b8154815290600101906020018083116110fe57829003601f168201915b505050505081526020016003820180546111349061491b565b80601f01602080910402602001604051908101604052809291908181526020018280546111609061491b565b80156111ad5780601f10611182576101008083540402835291602001916111ad565b820191906000526020600020905b81548152906001019060200180831161119057829003601f168201915b50505050508152602001600482015481526020016005820160405180610120016040529081600082015481526020016001820180546111eb9061491b565b80601f01602080910402602001604051908101604052809291908181526020018280546112179061491b565b80156112645780601f1061123957610100808354040283529160200191611264565b820191906000526020600020905b81548152906001019060200180831161124757829003601f168201915b5050505050815260200160028201805461127d9061491b565b80601f01602080910402602001604051908101604052809291908181526020018280546112a99061491b565b80156112f65780601f106112cb576101008083540402835291602001916112f6565b820191906000526020600020905b8154815290600101906020018083116112d957829003601f168201915b5050505050815260200160038201805461130f9061491b565b80601f016020809104026020016040519081016040528092919081815260200182805461133b9061491b565b80156113885780601f1061135d57610100808354040283529160200191611388565b820191906000526020600020905b81548152906001019060200180831161136b57829003601f168201915b505050505081526020016004820180546113a19061491b565b80601f01602080910402602001604051908101604052809291908181526020018280546113cd9061491b565b801561141a5780601f106113ef5761010080835404028352916020019161141a565b820191906000526020600020905b8154815290600101906020018083116113fd57829003601f168201915b5050505050815260200160058201548152602001600682015481526020016007820180546114479061491b565b80601f01602080910402602001604051908101604052809291908181526020018280546114739061491b565b80156114c05780601f10611495576101008083540402835291602001916114c0565b820191906000526020600020905b8154815290600101906020018083116114a357829003601f168201915b505050505081526020016008820180546114d99061491b565b80601f01602080910402602001604051908101604052809291908181526020018280546115059061491b565b80156115525780601f1061152757610100808354040283529160200191611552565b820191906000526020600020905b81548152906001019060200180831161153557829003601f168201915b5050505050815250508152602001600e8201604051806060016040529081600082015481526020016001820180546115899061491b565b80601f01602080910402602001604051908101604052809291908181526020018280546115b59061491b565b80156116025780601f106115d757610100808354040283529160200191611602565b820191906000526020600020905b8154815290600101906020018083116115e557829003601f168201915b5050505050815260200160028201805461161b9061491b565b80601f01602080910402602001604051908101604052809291908181526020018280546116479061491b565b80156116945780601f1061166957610100808354040283529160200191611694565b820191906000526020600020905b81548152906001019060200180831161167757829003601f168201915b5050505050815250508152505090806014016040518060a0016040529081600082015481526020016001820180546116cb9061491b565b80601f01602080910402602001604051908101604052809291908181526020018280546116f79061491b565b80156117445780601f1061171957610100808354040283529160200191611744565b820191906000526020600020905b81548152906001019060200180831161172757829003601f168201915b5050505050815260200160028201548152602001600382015481526020016004820180546117719061491b565b80601f016020809104026020016040519081016040528092919081815260200182805461179d9061491b565b80156117ea5780601f106117bf576101008083540402835291602001916117ea565b820191906000526020600020905b8154815290600101906020018083116117cd57829003601f168201915b505050505081525050905085565b60606003805480602002602001604051908101604052809291908181526020016000905b8282101561208157838290600052602060002090601902016040518060a001604052908160008201548152602001600182015481526020016002820180546118639061491b565b80601f016020809104026020016040519081016040528092919081815260200182805461188f9061491b565b80156118dc5780601f106118b1576101008083540402835291602001916118dc565b820191906000526020600020905b8154815290600101906020018083116118bf57829003601f168201915b50505050508152602001600382016040518060e001604052908160008201548152602001600182015481526020016002820180546119199061491b565b80601f01602080910402602001604051908101604052809291908181526020018280546119459061491b565b80156119925780601f1061196757610100808354040283529160200191611992565b820191906000526020600020905b81548152906001019060200180831161197557829003601f168201915b505050505081526020016003820180546119ab9061491b565b80601f01602080910402602001604051908101604052809291908181526020018280546119d79061491b565b8015611a245780601f106119f957610100808354040283529160200191611a24565b820191906000526020600020905b815481529060010190602001808311611a0757829003601f168201915b5050505050815260200160048201548152602001600582016040518061012001604052908160008201548152602001600182018054611a629061491b565b80601f0160208091040260200160405190810160405280929190818152602001828054611a8e9061491b565b8015611adb5780601f10611ab057610100808354040283529160200191611adb565b820191906000526020600020905b815481529060010190602001808311611abe57829003601f168201915b50505050508152602001600282018054611af49061491b565b80601f0160208091040260200160405190810160405280929190818152602001828054611b209061491b565b8015611b6d5780601f10611b4257610100808354040283529160200191611b6d565b820191906000526020600020905b815481529060010190602001808311611b5057829003601f168201915b50505050508152602001600382018054611b869061491b565b80601f0160208091040260200160405190810160405280929190818152602001828054611bb29061491b565b8015611bff5780601f10611bd457610100808354040283529160200191611bff565b820191906000526020600020905b815481529060010190602001808311611be257829003601f168201915b50505050508152602001600482018054611c189061491b565b80601f0160208091040260200160405190810160405280929190818152602001828054611c449061491b565b8015611c915780601f10611c6657610100808354040283529160200191611c91565b820191906000526020600020905b815481529060010190602001808311611c7457829003601f168201915b505050505081526020016005820154815260200160068201548152602001600782018054611cbe9061491b565b80601f0160208091040260200160405190810160405280929190818152602001828054611cea9061491b565b8015611d375780601f10611d0c57610100808354040283529160200191611d37565b820191906000526020600020905b815481529060010190602001808311611d1a57829003601f168201915b50505050508152602001600882018054611d509061491b565b80601f0160208091040260200160405190810160405280929190818152602001828054611d7c9061491b565b8015611dc95780601f10611d9e57610100808354040283529160200191611dc9565b820191906000526020600020905b815481529060010190602001808311611dac57829003601f168201915b5050505050815250508152602001600e820160405180606001604052908160008201548152602001600182018054611e009061491b565b80601f0160208091040260200160405190810160405280929190818152602001828054611e2c9061491b565b8015611e795780601f10611e4e57610100808354040283529160200191611e79565b820191906000526020600020905b815481529060010190602001808311611e5c57829003601f168201915b50505050508152602001600282018054611e929061491b565b80601f0160208091040260200160405190810160405280929190818152602001828054611ebe9061491b565b8015611f0b5780601f10611ee057610100808354040283529160200191611f0b565b820191906000526020600020905b815481529060010190602001808311611eee57829003601f168201915b505050505081525050815250508152602001601482016040518060a001604052908160008201548152602001600182018054611f469061491b565b80601f0160208091040260200160405190810160405280929190818152602001828054611f729061491b565b8015611fbf5780601f10611f9457610100808354040283529160200191611fbf565b820191906000526020600020905b815481529060010190602001808311611fa257829003601f168201915b505050505081526020016002820154815260200160038201548152602001600482018054611fec9061491b565b80601f01602080910402602001604051908101604052809291908181526020018280546120189061491b565b80156120655780601f1061203a57610100808354040283529160200191612065565b820191906000526020600020905b81548152906001019060200180831161204857829003601f168201915b505050505081525050815250508152602001906001019061181c565b50505050905090565b606060005b828110156123105760038482815181106120ac576120ab6148bd565b5b602002602001015190806001815401808255809150506001900390600052602060002090601902016000909190919091506000820151816000015560208201518160010155604082015181600201908051906020019061210d929190613140565b5060608201518160030160008201518160000155602082015181600101556040820151816002019080519060200190612147929190613140565b506060820151816003019080519060200190612164929190613140565b506080820151816004015560a08201518160050160008201518160000155602082015181600101908051906020019061219e929190613140565b5060408201518160020190805190602001906121bb929190613140565b5060608201518160030190805190602001906121d8929190613140565b5060808201518160040190805190602001906121f5929190613140565b5060a0820151816005015560c0820151816006015560e0820151816007019080519060200190612226929190613140565b50610100820151816008019080519060200190612244929190613140565b50505060c082015181600e01600082015181600001556020820151816001019080519060200190612276929190613140565b506040820151816002019080519060200190612293929190613140565b50505050506080820151816014016000820151816000015560208201518160010190805190602001906122c7929190613140565b50604082015181600201556060820151816003015560808201518160040190805190602001906122f8929190613140565b505050505080806123089061497c565b91505061208f565b506003805480602002602001604051908101604052809291908181526020016000905b82821015612b9857838290600052602060002090601902016040518060a0016040529081600082015481526020016001820154815260200160028201805461237a9061491b565b80601f01602080910402602001604051908101604052809291908181526020018280546123a69061491b565b80156123f35780601f106123c8576101008083540402835291602001916123f3565b820191906000526020600020905b8154815290600101906020018083116123d657829003601f168201915b50505050508152602001600382016040518060e001604052908160008201548152602001600182015481526020016002820180546124309061491b565b80601f016020809104026020016040519081016040528092919081815260200182805461245c9061491b565b80156124a95780601f1061247e576101008083540402835291602001916124a9565b820191906000526020600020905b81548152906001019060200180831161248c57829003601f168201915b505050505081526020016003820180546124c29061491b565b80601f01602080910402602001604051908101604052809291908181526020018280546124ee9061491b565b801561253b5780601f106125105761010080835404028352916020019161253b565b820191906000526020600020905b81548152906001019060200180831161251e57829003601f168201915b50505050508152602001600482015481526020016005820160405180610120016040529081600082015481526020016001820180546125799061491b565b80601f01602080910402602001604051908101604052809291908181526020018280546125a59061491b565b80156125f25780601f106125c7576101008083540402835291602001916125f2565b820191906000526020600020905b8154815290600101906020018083116125d557829003601f168201915b5050505050815260200160028201805461260b9061491b565b80601f01602080910402602001604051908101604052809291908181526020018280546126379061491b565b80156126845780601f1061265957610100808354040283529160200191612684565b820191906000526020600020905b81548152906001019060200180831161266757829003601f168201915b5050505050815260200160038201805461269d9061491b565b80601f01602080910402602001604051908101604052809291908181526020018280546126c99061491b565b80156127165780601f106126eb57610100808354040283529160200191612716565b820191906000526020600020905b8154815290600101906020018083116126f957829003601f168201915b5050505050815260200160048201805461272f9061491b565b80601f016020809104026020016040519081016040528092919081815260200182805461275b9061491b565b80156127a85780601f1061277d576101008083540402835291602001916127a8565b820191906000526020600020905b81548152906001019060200180831161278b57829003601f168201915b5050505050815260200160058201548152602001600682015481526020016007820180546127d59061491b565b80601f01602080910402602001604051908101604052809291908181526020018280546128019061491b565b801561284e5780601f106128235761010080835404028352916020019161284e565b820191906000526020600020905b81548152906001019060200180831161283157829003601f168201915b505050505081526020016008820180546128679061491b565b80601f01602080910402602001604051908101604052809291908181526020018280546128939061491b565b80156128e05780601f106128b5576101008083540402835291602001916128e0565b820191906000526020600020905b8154815290600101906020018083116128c357829003601f168201915b5050505050815250508152602001600e8201604051806060016040529081600082015481526020016001820180546129179061491b565b80601f01602080910402602001604051908101604052809291908181526020018280546129439061491b565b80156129905780601f1061296557610100808354040283529160200191612990565b820191906000526020600020905b81548152906001019060200180831161297357829003601f168201915b505050505081526020016002820180546129a99061491b565b80601f01602080910402602001604051908101604052809291908181526020018280546129d59061491b565b8015612a225780601f106129f757610100808354040283529160200191612a22565b820191906000526020600020905b815481529060010190602001808311612a0557829003601f168201915b505050505081525050815250508152602001601482016040518060a001604052908160008201548152602001600182018054612a5d9061491b565b80601f0160208091040260200160405190810160405280929190818152602001828054612a899061491b565b8015612ad65780601f10612aab57610100808354040283529160200191612ad6565b820191906000526020600020905b815481529060010190602001808311612ab957829003601f168201915b505050505081526020016002820154815260200160038201548152602001600482018054612b039061491b565b80601f0160208091040260200160405190810160405280929190818152602001828054612b2f9061491b565b8015612b7c5780601f10612b5157610100808354040283529160200191612b7c565b820191906000526020600020905b815481529060010190602001808311612b5f57829003601f168201915b5050505050815250508152505081526020019060010190612333565b50505050905092915050565b60606000805480602002602001604051908101604052809291908181526020016000905b828210156130ee57838290600052602060002090600e02016040518060e00160405290816000820154815260200160018201548152602001600282018054612c0f9061491b565b80601f0160208091040260200160405190810160405280929190818152602001828054612c3b9061491b565b8015612c885780601f10612c5d57610100808354040283529160200191612c88565b820191906000526020600020905b815481529060010190602001808311612c6b57829003601f168201915b50505050508152602001600382018054612ca19061491b565b80601f0160208091040260200160405190810160405280929190818152602001828054612ccd9061491b565b8015612d1a5780601f10612cef57610100808354040283529160200191612d1a565b820191906000526020600020905b815481529060010190602001808311612cfd57829003601f168201915b50505050508152602001600482015481526020016005820160405180608001604052908160008201548152602001600182018054612d579061491b565b80601f0160208091040260200160405190810160405280929190818152602001828054612d839061491b565b8015612dd05780601f10612da557610100808354040283529160200191612dd0565b820191906000526020600020905b815481529060010190602001808311612db357829003601f168201915b50505050508152602001600282018054612de99061491b565b80601f0160208091040260200160405190810160405280929190818152602001828054612e159061491b565b8015612e625780601f10612e3757610100808354040283529160200191612e62565b820191906000526020600020905b815481529060010190602001808311612e4557829003601f168201915b505050505081526020016003820154815250508152602001600982016040518060a001604052908160008201548152602001600182018054612ea39061491b565b80601f0160208091040260200160405190810160405280929190818152602001828054612ecf9061491b565b8015612f1c5780601f10612ef157610100808354040283529160200191612f1c565b820191906000526020600020905b815481529060010190602001808311612eff57829003601f168201915b50505050508152602001600282018054612f359061491b565b80601f0160208091040260200160405190810160405280929190818152602001828054612f619061491b565b8015612fae5780601f10612f8357610100808354040283529160200191612fae565b820191906000526020600020905b815481529060010190602001808311612f9157829003601f168201915b50505050508152602001600382018054612fc79061491b565b80601f0160208091040260200160405190810160405280929190818152602001828054612ff39061491b565b80156130405780601f1061301557610100808354040283529160200191613040565b820191906000526020600020905b81548152906001019060200180831161302357829003601f168201915b505050505081526020016004820180546130599061491b565b80601f01602080910402602001604051908101604052809291908181526020018280546130859061491b565b80156130d25780601f106130a7576101008083540402835291602001916130d2565b820191906000526020600020905b8154815290600101906020018083116130b557829003601f168201915b5050505050815250508152505081526020019060010190612bc8565b50505050905090565b6040518060e00160405280600081526020016000815260200160608152602001606081526020016000815260200161312d6131c6565b815260200161313a6131ee565b81525090565b82805461314c9061491b565b90600052602060002090601f01602090048101928261316e57600085556131b5565b82601f1061318757805160ff19168380011785556131b5565b828001600101855582156131b5579182015b828111156131b4578251825591602001919060010190613199565b5b5090506131c2919061321d565b5090565b6040518060800160405280600081526020016060815260200160608152602001600081525090565b6040518060a0016040528060008152602001606081526020016060815260200160608152602001606081525090565b5b8082111561323657600081600090555060010161321e565b5090565b6000819050919050565b61324d8161323a565b82525050565b60006020820190506132686000830184613244565b92915050565b6000604051905090565b600080fd5b600080fd5b61328b8161323a565b811461329657600080fd5b50565b6000813590506132a881613282565b92915050565b6000602082840312156132c4576132c3613278565b5b60006132d284828501613299565b91505092915050565b6132e48161323a565b82525050565b600081519050919050565b600082825260208201905092915050565b60005b83811015613324578082015181840152602081019050613309565b83811115613333576000848401525b50505050565b6000601f19601f8301169050919050565b6000613355826132ea565b61335f81856132f5565b935061336f818560208601613306565b61337881613339565b840191505092915050565b600060808301600083015161339b60008601826132db565b50602083015184820360208601526133b3828261334a565b915050604083015184820360408601526133cd828261334a565b91505060608301516133e260608601826132db565b508091505092915050565b600060a08301600083015161340560008601826132db565b506020830151848203602086015261341d828261334a565b91505060408301518482036040860152613437828261334a565b91505060608301518482036060860152613451828261334a565b9150506080830151848203608086015261346b828261334a565b9150508091505092915050565b600060e08301600083015161349060008601826132db565b5060208301516134a360208601826132db565b50604083015184820360408601526134bb828261334a565b915050606083015184820360608601526134d5828261334a565b91505060808301516134ea60808601826132db565b5060a083015184820360a08601526135028282613383565b91505060c083015184820360c086015261351c82826133ed565b9150508091505092915050565b600060208201905081810360008301526135438184613478565b905092915050565b600082825260208201905092915050565b6000613567826132ea565b613571818561354b565b9350613581818560208601613306565b61358a81613339565b840191505092915050565b600060208201905081810360008301526135af818461355c565b905092915050565b600080fd5b7f4e487b7100000000000000000000000000000000000000000000000000000000600052604160045260246000fd5b6135f482613339565b810181811067ffffffffffffffff82111715613613576136126135bc565b5b80604052505050565b600061362661326e565b905061363282826135eb565b919050565b600080fd5b600080fd5b600080fd5b600067ffffffffffffffff821115613661576136606135bc565b5b61366a82613339565b9050602081019050919050565b82818337600083830152505050565b600061369961369484613646565b61361c565b9050828152602081018484840111156136b5576136b4613641565b5b6136c0848285613677565b509392505050565b600082601f8301126136dd576136dc61363c565b5b81356136ed848260208601613686565b91505092915050565b60006080828403121561370c5761370b6135b7565b5b613716608061361c565b9050600061372684828501613299565b600083015250602082013567ffffffffffffffff81111561374a57613749613637565b5b613756848285016136c8565b602083015250604082013567ffffffffffffffff81111561377a57613779613637565b5b613786848285016136c8565b604083015250606061379a84828501613299565b60608301525092915050565b600060a082840312156137bc576137bb6135b7565b5b6137c660a061361c565b905060006137d684828501613299565b600083015250602082013567ffffffffffffffff8111156137fa576137f9613637565b5b613806848285016136c8565b602083015250604082013567ffffffffffffffff81111561382a57613829613637565b5b613836848285016136c8565b604083015250606082013567ffffffffffffffff81111561385a57613859613637565b5b613866848285016136c8565b606083015250608082013567ffffffffffffffff81111561388a57613889613637565b5b613896848285016136c8565b60808301525092915050565b600060e082840312156138b8576138b76135b7565b5b6138c260e061361c565b905060006138d284828501613299565b60008301525060206138e684828501613299565b602083015250604082013567ffffffffffffffff81111561390a57613909613637565b5b613916848285016136c8565b604083015250606082013567ffffffffffffffff81111561393a57613939613637565b5b613946848285016136c8565b606083015250608061395a84828501613299565b60808301525060a082013567ffffffffffffffff81111561397e5761397d613637565b5b61398a848285016136f6565b60a08301525060c082013567ffffffffffffffff8111156139ae576139ad613637565b5b6139ba848285016137a6565b60c08301525092915050565b6000602082840312156139dc576139db613278565b5b600082013567ffffffffffffffff8111156139fa576139f961327d565b5b613a06848285016138a2565b91505092915050565b6000608083016000830151613a2760008601826132db565b5060208301518482036020860152613a3f828261334a565b91505060408301518482036040860152613a59828261334a565b9150506060830151613a6e60608601826132db565b508091505092915050565b600060a083016000830151613a9160008601826132db565b5060208301518482036020860152613aa9828261334a565b91505060408301518482036040860152613ac3828261334a565b91505060608301518482036060860152613add828261334a565b91505060808301518482036080860152613af7828261334a565b9150508091505092915050565b600060e082019050613b19600083018a613244565b613b266020830189613244565b8181036040830152613b38818861355c565b90508181036060830152613b4c818761355c565b9050613b5b6080830186613244565b81810360a0830152613b6d8185613a0f565b905081810360c0830152613b818184613a79565b905098975050505050505050565b600061012083016000830151613ba860008601826132db565b5060208301518482036020860152613bc0828261334a565b91505060408301518482036040860152613bda828261334a565b91505060608301518482036060860152613bf4828261334a565b91505060808301518482036080860152613c0e828261334a565b91505060a0830151613c2360a08601826132db565b5060c0830151613c3660c08601826132db565b5060e083015184820360e0860152613c4e828261334a565b915050610100830151848203610100860152613c6a828261334a565b9150508091505092915050565b6000606083016000830151613c8f60008601826132db565b5060208301518482036020860152613ca7828261334a565b91505060408301518482036040860152613cc1828261334a565b9150508091505092915050565b600060e083016000830151613ce660008601826132db565b506020830151613cf960208601826132db565b5060408301518482036040860152613d11828261334a565b91505060608301518482036060860152613d2b828261334a565b9150506080830151613d4060808601826132db565b5060a083015184820360a0860152613d588282613b8f565b91505060c083015184820360c0860152613d728282613c77565b9150508091505092915050565b600060a083016000830151613d9760008601826132db565b5060208301518482036020860152613daf828261334a565b9150506040830151613dc460408601826132db565b506060830151613dd760608601826132db565b5060808301518482036080860152613def828261334a565b9150508091505092915050565b600060a082019050613e116000830188613244565b613e1e6020830187613244565b8181036040830152613e30818661355c565b90508181036060830152613e448185613cce565b90508181036080830152613e588184613d7f565b90509695505050505050565b600081519050919050565b600082825260208201905092915050565b6000819050602082019050919050565b600060e083016000830151613ea860008601826132db565b506020830151613ebb60208601826132db565b5060408301518482036040860152613ed3828261334a565b91505060608301518482036060860152613eed828261334a565b9150506080830151613f0260808601826132db565b5060a083015184820360a0860152613f1a8282613b8f565b91505060c083015184820360c0860152613f348282613c77565b9150508091505092915050565b600060a083016000830151613f5960008601826132db565b5060208301518482036020860152613f71828261334a565b9150506040830151613f8660408601826132db565b506060830151613f9960608601826132db565b5060808301518482036080860152613fb1828261334a565b9150508091505092915050565b600060a083016000830151613fd660008601826132db565b506020830151613fe960208601826132db565b5060408301518482036040860152614001828261334a565b9150506060830151848203606086015261401b8282613e90565b915050608083015184820360808601526140358282613f41565b9150508091505092915050565b600061404e8383613fbe565b905092915050565b6000602082019050919050565b600061406e82613e64565b6140788185613e6f565b93508360208202850161408a85613e80565b8060005b858110156140c657848403895281516140a78582614042565b94506140b283614056565b925060208a0199505060018101905061408e565b50829750879550505050505092915050565b600060208201905081810360008301526140f28184614063565b905092915050565b600067ffffffffffffffff821115614115576141146135bc565b5b602082029050602081019050919050565b600080fd5b60006101208284031215614142576141416135b7565b5b61414d61012061361c565b9050600061415d84828501613299565b600083015250602082013567ffffffffffffffff81111561418157614180613637565b5b61418d848285016136c8565b602083015250604082013567ffffffffffffffff8111156141b1576141b0613637565b5b6141bd848285016136c8565b604083015250606082013567ffffffffffffffff8111156141e1576141e0613637565b5b6141ed848285016136c8565b606083015250608082013567ffffffffffffffff81111561421157614210613637565b5b61421d848285016136c8565b60808301525060a061423184828501613299565b60a08301525060c061424584828501613299565b60c08301525060e082013567ffffffffffffffff81111561426957614268613637565b5b614275848285016136c8565b60e08301525061010082013567ffffffffffffffff81111561429a57614299613637565b5b6142a6848285016136c8565b6101008301525092915050565b6000606082840312156142c9576142c86135b7565b5b6142d3606061361c565b905060006142e384828501613299565b600083015250602082013567ffffffffffffffff81111561430757614306613637565b5b614313848285016136c8565b602083015250604082013567ffffffffffffffff81111561433757614336613637565b5b614343848285016136c8565b60408301525092915050565b600060e08284031215614365576143646135b7565b5b61436f60e061361c565b9050600061437f84828501613299565b600083015250602061439384828501613299565b602083015250604082013567ffffffffffffffff8111156143b7576143b6613637565b5b6143c3848285016136c8565b604083015250606082013567ffffffffffffffff8111156143e7576143e6613637565b5b6143f3848285016136c8565b606083015250608061440784828501613299565b60808301525060a082013567ffffffffffffffff81111561442b5761442a613637565b5b6144378482850161412b565b60a08301525060c082013567ffffffffffffffff81111561445b5761445a613637565b5b614467848285016142b3565b60c08301525092915050565b600060a08284031215614489576144886135b7565b5b61449360a061361c565b905060006144a384828501613299565b600083015250602082013567ffffffffffffffff8111156144c7576144c6613637565b5b6144d3848285016136c8565b60208301525060406144e784828501613299565b60408301525060606144fb84828501613299565b606083015250608082013567ffffffffffffffff81111561451f5761451e613637565b5b61452b848285016136c8565b60808301525092915050565b600060a0828403121561454d5761454c6135b7565b5b61455760a061361c565b9050600061456784828501613299565b600083015250602061457b84828501613299565b602083015250604082013567ffffffffffffffff81111561459f5761459e613637565b5b6145ab848285016136c8565b604083015250606082013567ffffffffffffffff8111156145cf576145ce613637565b5b6145db8482850161434f565b606083015250608082013567ffffffffffffffff8111156145ff576145fe613637565b5b61460b84828501614473565b60808301525092915050565b600061462a614625846140fa565b61361c565b9050808382526020820190506020840283018581111561464d5761464c614126565b5b835b8181101561469457803567ffffffffffffffff8111156146725761467161363c565b5b80860161467f8982614537565b8552602085019450505060208101905061464f565b5050509392505050565b600082601f8301126146b3576146b261363c565b5b81356146c3848260208601614617565b91505092915050565b600080604083850312156146e3576146e2613278565b5b600083013567ffffffffffffffff8111156147015761470061327d565b5b61470d8582860161469e565b925050602061471e85828601613299565b9150509250929050565b600081519050919050565b600082825260208201905092915050565b6000819050602082019050919050565b600060e08301600083015161476c60008601826132db565b50602083015161477f60208601826132db565b5060408301518482036040860152614797828261334a565b915050606083015184820360608601526147b1828261334a565b91505060808301516147c660808601826132db565b5060a083015184820360a08601526147de8282613383565b91505060c083015184820360c08601526147f882826133ed565b9150508091505092915050565b60006148118383614754565b905092915050565b6000602082019050919050565b600061483182614728565b61483b8185614733565b93508360208202850161484d85614744565b8060005b85811015614889578484038952815161486a8582614805565b945061487583614819565b925060208a01995050600181019050614851565b50829750879550505050505092915050565b600060208201905081810360008301526148b58184614826565b905092915050565b7f4e487b7100000000000000000000000000000000000000000000000000000000600052603260045260246000fd5b7f4e487b7100000000000000000000000000000000000000000000000000000000600052602260045260246000fd5b6000600282049050600182168061493357607f821691505b60208210811415614947576149466148ec565b5b50919050565b7f4e487b7100000000000000000000000000000000000000000000000000000000600052601160045260246000fd5b60006149878261323a565b91507fffffffffffffffffffffffffffffffffffffffffffffffffffffffffffffffff8214156149ba576149b961494d565b5b60018201905091905056fea26469706673582212205bdc2bdbc6ad53684d31e421287443cfddbfdc8ce4a5db4bac917720291e72f264736f6c634300080b0033",
  "immutableReferences": {},
  "source": "// SPDX-License-Identifier: MIT\r\npragma solidity >=0.4.22 <0.9.0;\r\nimport \"./Remplissage.sol\";\r\ncontract RetraitCol is Remplissage{\r\n//*********************************************************************************/\r\n//second app \r\n//******************************************************************************/\r\n\r\nOperationTank0[] public operationTankR;\r\n  function RetraitOperationTank(OperationTank0[] memory operationTank,uint count) \r\n   public returns (OperationTank0[] memory tt0) {\r\n\r\n   for (uint256 i = 0; i < count ; i++) {\r\n   operationTankR.push(operationTank[i]);\r\n}\r\n    return (operationTankR);\r\n  }\r\n\r\n    //get all operations \r\n  \r\n  function getOperationTanks() public view returns (OperationTank0[] memory result ) {\r\n    return operationTankR;\r\n  }\r\n}\r\n",
  "sourcePath": "C:\\Users\\ASUS\\Desktop\\pfe\\PFE_Project2022-Collecteur-\\PFE-FrontEnd\\contracts\\RetraitCol.sol",
  "compiler": {
    "name": "solc",
    "version": "0.8.11+commit.d7f03943.Emscripten.clang"
  },
  "schemaVersion": "3.4.5",
  "updatedAt": "2022-04-21T02:16:47.781Z",
  "networkType": "ethereum",
  "devdoc": {
    "kind": "dev",
    "methods": {},
    "version": 1
  },
  "userdoc": {
    "kind": "user",
    "methods": {},
    "version": 1
  }
}